S0180000464443414E5F426F6F746C6F616465722E7372656346
S3150800000000400220DD0C0008E1090008E7090008A5
S3150800001000000000000000000000000000000000D2
S31508000020000000000000000000000000ED090008C4
S315080000300000000000000000F7090008010A000897
S315080000402D0D00082D0D00082D0D00082D0D00089A
S315080000502D0D00082D0D00082D0D00082D0D00088A
S315080000602D0D00082D0D00082D0D00082D0D00087A
S315080000702D0D00082D0D00082D0D00082D0D00086A
S315080000802D0D00082D0D00082D0D00082D0D00085A
S315080000902D0D00082D0D00082D0D00082D0D00084A
S315080000A02D0D00082D0D00082D0D00082D0D00083A
S311080000B02D0D0008110A00082D0D00088F
S315080000BC10B5064C2378002B07D1054B002B02D024
S315080000CC044800E000BF0123237010BD680000201F
S315080000DC00000000BC510008044B10B5002B03D0DF
S315080000EC0349044800E000BF10BDC04600000000EC
S315080000FC6C000020BC51000803B471464908400046
S3150800010C4900095E49008E4403BC70470022430827
S3150800011C8B4274D303098B425FD3030A8B4244D3B5
S3150800012C030B8B4228D3030C8B420DD3FF220902F7
S3150800013C12BA030C8B4202D31212090265D0030BB6
S3150800014C8B4219D300E0090AC30B8B4201D3CB03AC
S3150800015CC01A5241830B8B4201D38B03C01A5241EE
S3150800016C430B8B4201D34B03C01A5241030B8B42F0
S3150800017C01D30B03C01A5241C30A8B4201D3CB02DB
S3150800018CC01A5241830A8B4201D38B02C01A5241C0
S3150800019C430A8B4201D34B02C01A5241030A8B42C3
S315080001AC01D30B02C01A5241CDD2C3098B4201D3DB
S315080001BCCB01C01A524183098B4201D38B01C01A59
S315080001CC524143098B4201D34B01C01A52410309D0
S315080001DC8B4201D30B01C01A5241C3088B4201D37F
S315080001ECCB00C01A524183088B4201D38B00C01A2C
S315080001FC524143088B4201D34B00C01A5241411A53
S3150800020C00D20146524110467047FFE701B500205F
S3150800021C00F0F0F802BDC0460029F7D076E7704723
S3150800022C03460B437FD4002243088B4274D303093D
S3150800023C8B425FD3030A8B4244D3030B8B4228D3DE
S3150800024C030C8B420DD3FF22090212BA030C8B4204
S3150800025C02D31212090265D0030B8B4219D300E0A4
S3150800026C090AC30B8B4201D3CB03C01A5241830B29
S3150800027C8B4201D38B03C01A5241430B8B4201D3D9
S3150800028C4B03C01A5241030B8B4201D30B03C01A02
S3150800029C5241C30A8B4201D3CB02C01A5241830A7C
S315080002AC8B4201D38B02C01A5241430A8B4201D3AB
S315080002BC4B02C01A5241030A8B4201D30B02C01AD5
S315080002CC5241CDD2C3098B4201D3CB01C01A52413C
S315080002DC83098B4201D38B01C01A524143098B42C5
S315080002EC01D34B01C01A524103098B4201D30B01AE
S315080002FCC01A5241C3088B4201D3CB00C01A5241D3
S3150800030C83088B4201D38B00C01A524143088B4297
S3150800031C01D34B00C01A5241411A00D20146524130
S3150800032C104670475DE0CA0F00D04942031000D34F
S3150800033C4042534000229C4603098B422DD3030AA4
S3150800034C8B4212D3FC22890112BA030A8B420CD3B4
S3150800035C890192118B4208D3890192118B4204D3DD
S3150800036C89013AD0921100E08909C3098B4201D35D
S3150800037CCB01C01A524183098B4201D38B01C01A97
S3150800038C524143098B4201D34B01C01A524103090E
S3150800039C8B4201D30B01C01A5241C3088B4201D3BD
S315080003ACCB00C01A524183088B4201D38B00C01A6A
S315080003BC5241D9D243088B4201D34B00C01A524141
S315080003CC411A00D20146634652415B10104601D3CE
S315080003DC4042002B00D54942704763465B1000D358
S315080003EC404201B5002000F005F802BD0029F8D0FE
S315080003FC16E770477047C046002B11D1002A0FD15B
S3150800040C002900D1002802D00021C943080007B4EE
S3150800041C024802A14018029003BDC046D9FFFFFF4F
S3150800042C03B4684601B5029800F006F8019B9E468F
S3150800043C02B00CBC7047C046F0B557464E4645460A
S3150800044CDE46E0B504000D009246994683B08B4211
S3150800045C30D82DD04946504600F0BAF82900060087
S3150800046C200000F0B5F8331A9846203B34D49B4646
S3150800047C53465A46934042461F00534693401E0025
S3150800048CAF423BD8AF4200D179E05B46A41BBD41D5
S3150800049C002B00DA76E00022002300920193012358
S315080004AC5A4693400193012342469340009329E010
S315080004BC8242CFD900220023009201930C9B002B79
S315080004CC01D01C605D600098019903B0F0BCBB4676
S315080004DCB246A946A046F0BD42469B4620239B1A27
S315080004EC5246DA40414613004A468A4017004246AD
S315080004FC1F43534693401E00AF42C3D90022002324
S3150800050C009201934346002BD8D0FB0772081A4376
S3150800051C46467B080EE0AB4201D1A2420CD8A41A7F
S3150800052C9D41012024196D410021013E24184D419D
S3150800053C002E06D0AB42EED9013E24196D41002E91
S3150800054CF8D1009801995B4600196941002B24DB08
S3150800055C2B005A464446D3402A00E2401C005B4610
S3150800056C1500002B2ADB26009E4033002600474642
S3150800057CBE403200801A9941009001919EE7A34231
S3150800058CBCD882E74246202300219B1A0022009100
S3150800059C01920122DA40019285E7424620239B1AF2
S315080005AC2A0046469A402300F340444613432A0041
S315080005BCE2401C005B461500002BD4DA42462F009D
S315080005CC2023260097409B1ADE403B003343CDE799
S315080005DC10B5002903D100F007F8203002E0080016
S315080005EC00F002F810BDC0461C2101231B049842DA
S315080005FC01D3000C10391B0A984201D3000A08399A
S3150800060C1B09984201D30009043902A2105C401850
S3150800061C7047C046040302020101010100000000F4
S3150800062C0000000080B500AF204B214A1A601F4B12
S3150800063C00225A601D4BC02292009A601B4B002266
S3150800064CDA601A4B01221A74184B00225A74174B8B
S3150800065C00229A74154B08225A61144B03229A618C
S3150800066C124B0C22DA61114B03221A620F4B02222F
S3150800067C5A620E4B03229A620C4B0C22DA620B4B13
S3150800068C03221A63094B01225A63084B00229A6308
S3150800069C064B0022DA63054B180000F085FD031E95
S315080006AC01D000F06AF9C046BD4680BD8400002022
S315080006BC0064004090B59DB000AF78605C23FB18D1
S315080006CC180014231A00002103F0CEFF10243B193E
S315080006DC18004C231A00002103F0C6FF7B681B6820
S315080006EC224A93423ED13B19802292041A603B1946
S315080006FC00229A643B19180002F004F8031E01D074
S3150800070C00F03BF91A4BDA6B194B802149010A4365
S3150800071CDA63174BDA6B80235B011340FB60FB68CB
S3150800072C134B5A6B124B08210A435A63104B5B6BDB
S3150800073C08221340BB60BB685C217B1803221A6035
S3150800074C7B1802225A607B1800229A607B180022BA
S3150800075CDA607B1803221A617B18064A1900100006
S3150800076C01F0F0F8C046BD461DB090BD00640040CF
S3150800077C00100240000C005090B58BB000AF14244A
S3150800078C3B19180014231A00002103F06DFF414B86
S3150800079C5A6B404B20210A435A633E4B5B6B202213
S315080007AC13403B613B693B4B5A6B3A4B01210A435D
S315080007BC5A63384B5B6B01221340FB60FB68354B65
S315080007CC5A6B344B02210A435A63324B5B6B022237
S315080007DC1340BB60BB682F4B5A6B2E4B04210A4344
S315080007EC5A632C4B5B6B042213407B607B68294B4A
S315080007FC5A6B284B08210A435A63264B5B6B082213
S3150800080C13403B603B682449A023DB0500221800F3
S3150800081C01F004FA214B00228021180001F0FEF9A0
S3150800082C3B191D4A1A603B1901225A603B190022D2
S3150800083C9A603B190022DA603A19A023DB051100ED
S3150800084C180001F07FF83B1940221A603B19002268
S3150800085C5A603B1901229A603B19104A190010007C
S3150800086C01F070F821007B1880221A607B1801228F
S3150800087C5A607B1800229A607B180022DA607B1873
S3150800088C064A1900100001F05DF8C046BD460BB0CB
S3150800089C90BDC046001002400382000000080050BC
S315080008AC80B500AF00F03EFA00F009F8FFF764FFD8
S315080008BCFFF7B8FE00F054F903F048FCFEE790B5D4
S315080008CC95B000AF14243B1918003C231A000021DC
S315080008DC03F0CAFE3B1D180010231A00002103F072
S315080008ECC3FE80239B00180001F0B6F93B190222BF
S315080008FC1A603B1980225200DA6021007B1800220C
S3150800090C1A617B1840225A617B1802221A627B18DC
S3150800091C02225A627B1800229A627B180822DA6233
S3150800092C7B18802292021A637B18802292045A63DF
S3150800093C7B18802292059A637B18180001F0D8F967
S3150800094C031E01D000F019F83B1D07221A603B1D47
S3150800095C02225A603B1D00229A603B1D0022DA6077
S3150800096C3B1D0221180001F023FD031E01D000F0E7
S3150800097C04F8C046BD4615B090BD80B500AF72B63A
S3150800098CC046FEE780B582B000AF114B1A6C104B0F
S3150800099C01210A431A640E4B1B6C012213407B601F
S315080009AC7B680B4BDA6B0A4B802149050A43DA63E1
S315080009BC074BDA6B80235B0513403B603B68C0230F
S315080009CCDB00180000F034FAC046BD4602B080BD04
S315080009DC0010024080B500AFFEE780B500AFFEE719
S315080009EC80B500AFC046BD4680BD80B500AFC046D9
S315080009FCBD4680BD80B500AF00F0FEF9C046BD46C9
S31508000A0C80BD000080B500AF034B180002F00CF94E
S31508000A1CC046BD4680BDC046EC00002080B586B0F9
S31508000A2C00AFF860B9607A6000237B610AE000E0E9
S31508000A3C00BF0100BB685A1CBA60CAB21A707B693F
S31508000A4C01337B617A697B689A42F0DB7B68180014
S31508000A5CBD4606B080BD80B586B000AFF860B960FB
S31508000A6C7A6000237B6109E0BB685A1CBA601B7864
S31508000A7C180000E000BF7B6901337B617A697B68EB
S31508000A8C9A42F1DB7B681800BD4606B080BD80B57E
S31508000A9C82B000AF786001235B421800BD4602B0F5
S31508000AAC80BD80B582B000AF786039603B68802223
S31508000ABC92015A6000231800BD4602B080BD80B56D
S31508000ACC82B000AF786001231800BD4602B080BD25
S31508000ADC80B584B000AFF860B9607A60002318005E
S31508000AECBD4604B080BD000080B586B000AF786006
S31508000AFC144A154BD31A7B617B693B61134B1B68F4
S31508000B0C002B02D1114B124A1A60104B1A687B68DB
S31508000B1CD3183A699A4207D203F0FCFD03000C225B
S31508000B2C1A6001235B4209E0084B1B68FB60074B04
S31508000B3C1A687B68D218054B1A60FB681800BD4604
S31508000B4C06B080BD0040022000040000E80000202A
S31508000B5C2003002080B500AFC046BD4680BD00000E
S31508000B6C80B500AF234B244A1A60224BE12252026D
S31508000B7C5A60204B00229A601E4B0022DA601D4BED
S31508000B8C00221A611B4B0C225A611A4B00229A61DD
S31508000B9C184B0022DA61174B00221A62154B0022F9
S31508000BAC5A62144B00229A62124B180001F0E6FFA7
S31508000BBC031E01D0FFF7E1FE0E4B0021180003F0CF
S31508000BCC95F9031E01D0FFF7D8FE0A4B0021180031
S31508000BDC03F0CCF9031E01D0FFF7CFFE054B180026
S31508000BEC03F04AF9031E01D0FFF7C7FEC046BD46FF
S31508000BFC80BDC046EC0000200048004090B59DB072
S31508000C0C00AF78605C23FB18180014231A00002127
S31508000C1C03F02AFD10243B1918004C231A00002156
S31508000C2C03F022FD7B681B68264A934246D13B1982
S31508000C3C04221A603B190022DA603B19180001F0ED
S31508000C4C61FD031E01D0FFF798FE1F4BDA6B1E4B96
S31508000C5C8021C9020A43DA631B4BDA6B8023DB0259
S31508000C6C1340FB60FB68184B5A6B174B02210A435F
S31508000C7C5A63154B5B6B02221340BB60BB685C2145
S31508000C8C7B18C02212011A607B1802225A607B1844
S31508000C9C00229A607B180022DA607B1804221A61FB
S31508000CAC7B180A4A1900100000F04CFE002202219B
S31508000CBC1D2000F07FF91D2000F091F9C046BD46B5
S31508000CCC1DB090BD004800400010024000040050C2
S31508000CDC0D488546FFF73EFF0C480D490D4A002383
S31508000CEC02E0D458C4500433C4188C42F9D30A4AC7
S31508000CFC0A4C002301E013600432A242FBD303F032
S31508000D0C0FFDFFF7CDFDFEE7004002200000002096
S31508000D1C6800002000530008680000201C0300200F
S31508000D2CFEE7000080B582B000AFFB1D00221A70EA
S31508000D3C0B4B1A680A4B802149000A431A60032098
S31508000D4C00F010F8031E03D0FB1D01221A7001E0F7
S31508000D5CFFF718FEFB1D1B781800BD4602B080BDB8
S31508000D6C0020024090B585B000AF78600F23FB18C1
S31508000D7C00221A701D4B1B78002B2BD01C4B1C68A1
S31508000D8C1A4B1B781900FA239800FFF7BFF90300D2
S31508000D9C19002000FFF7BAF90300180000F02FF924
S31508000DAC031E12D17B68032B0AD8796801235B4290
S31508000DBC0022180000F0FEF80E4B7A681A600DE057
S31508000DCC0F23FB1801221A7008E00F23FB180122C7
S31508000DDC1A7003E00F23FB1801221A700F23FB1855
S31508000DEC1B781800BD4605B090BDC046080000200B
S31508000DFC000000200400002080B500AF054B1B78CE
S31508000E0C1A00054B1B68D218034B1A60C046BD4620
S31508000E1C80BDC046080000208001002080B500AFC8
S31508000E2C024B1B681800BD4680BDC04680010020D9
S31508000E3C80B582B000AF7860064B1B68064A134033
S31508000E4C1900044B7A680A431A60C046BD4602B0BC
S31508000E5C80BDC04600000140FFF9FFFF80B582B097
S31508000E6C00AF0200FB1D1A70FB1D1B787F2B09D8DF
S31508000E7CFB1D1B781A001F231A40044B01219140B5
S31508000E8C0A001A60C046BD4602B080BD00E100E00B
S31508000E9C90B583B000AF02003960FB1D1A70FB1DBC
S31508000EAC1B787F2B28D82F4AFB1D1B785BB29B0817
S31508000EBCC0339B009B58FA1D1278110003220A4076
S31508000ECCD200FF2191400A00D2431A4011003B6818
S31508000EDC9B01FF221A40FB1D1B78180003230340B5
S31508000EECDB009A401F48FB1D1B785BB29B080A4324
S31508000EFCC0339B001A5031E01B4AFB1D1B781900A6
S31508000F0C0F230B40083B9B0806339B00D31804336E
S31508000F1C1B68FA1D1278110003220A40D200FF2121
S31508000F2C91400A00D2431A4011003B689B01FF22EC
S31508000F3C1A40FB1D1B78180003230340DB009A405C
S31508000F4C0948FB1D1B781C000F232340083B9B08F4
S31508000F5C0A4306339B00C31804331A60C046BD46C1
S31508000F6C03B090BD00E100E000ED00E080B582B072
S31508000F7C00AF78607B685A1E80235B049A4201D3C3
S31508000F8C012310E00A4B7A68013A5A6001235B4246
S31508000F9C03211800FFF77CFF054B00229A60044BCF
S31508000FAC07221A6000231800BD4602B080BDC04651
S31508000FBC10E000E080B584B000AFB9607A600F210C
S31508000FCC7B18021C1A70BA687B181B785BB2110066
S31508000FDC1800FFF75DFFC046BD4604B080BD80B55E
S31508000FEC82B000AF0200FB1D1A70FB1D1B785BB2AA
S31508000FFC1800FFF733FFC046BD4602B080BD80B56A
S3150800100C82B000AF78607B681800FFF7AFFF03006B
S3150800101C1800BD4602B080BD80B582B000AF7860BE
S3150800102C7B68002B01D101234FE07B6825229B5C52
S3150800103CDBB2022B08D07B680422DA637B68242295
S3150800104C00219954012340E07B681B681A687B6869
S3150800105C1B680E218A431A607B689B6C1A687B682E
S3150800106C9B6C1C490A401A607B681B681A687B686B
S3150800107C1B6801218A431A607B685B6C1C221A4028
S3150800108C7B681B6C012191400A005A607B68DB6CFB
S3150800109C7A68126D5A607B685B6D002B0CD07B6886
S315080010AC5B6D1A687B685B6D0A490A401A607B6837
S315080010BC9B6D7A68D26D5A607B68252201219954FA
S315080010CC7B6824220021995400231800BD4602B0DF
S315080010DC80BDC046FFFEFFFF80B584B000AF7860C8
S315080010EC0F217B1800221A707B6825229B5CDBB2C9
S315080010FC022B06D07B680422DA637B1801221A704D
S3150800110C48E07B681B681A687B681B680E218A4353
S3150800111C1A607B681B681A687B681B6801218A43FE
S3150800112C1A607B689B6C1A687B689B6C1D490A4025
S3150800113C1A607B685B6C1C221A407B681B6C01214D
S3150800114C91400A005A607B68DB6C7A68126D5A60AB
S3150800115C7B685B6D002B0CD07B685B6D1A687B68B3
S3150800116C5B6D10490A401A607B689B6D7A68D26D74
S3150800117C5A607B682522012199547B682422002118
S3150800118C99547B689B6B002B04D07B689B6B7A68A5
S3150800119C100098470F23FB181B781800BD4604B09F
S315080011AC80BDC046FFFEFFFF80B584B000AF7860F7
S315080011BC7B68002B01D101234EE17B685C229B5C8A
S315080011CCDBB2002B07D17B685D22002199547B6822
S315080011DC1800FFF76FFA7B681B689A697B681B68AF
S315080011EC10218A439A61FFF719FE0300FB6012E08F
S315080011FCFFF714FE0200FB68D31A0A2B0BD97B687F
S3150800120C1B6E01221A437B681A667B685C220321D3
S3150800121C9954012320E17B681B689B6908221340BB
S3150800122C082BE5D07B681B689A697B681B680121CB
S3150800123C0A439A61FFF7F2FD0300FB6012E0FFF721
S3150800124CEDFD0200FB68D31A0A2B0BD97B681B6EC3
S3150800125C01221A437B681A667B685C22032199541F
S3150800126C0123F9E07B681B689B6901221340E6D0D1
S3150800127C7B681B689A697B681B6802210A439A611A
S3150800128C7B681B68764A934203D1764A7B685B680F
S3150800129C13607B681B7C012B08D17B681B689A69D9
S315080012AC7B681B6840218A439A6107E07B681B6848
S315080012BC9A697B681B6840210A439A617B685B7C48
S315080012CC012B09D17B681B689A697B681B6880218E
S315080012DCC9010A439A6107E07B681B689A697B68AF
S315080012EC1B6861490A409A617B689B7C012B08D173
S315080012FC7B681B689A697B681B685C490A409A611B
S3150800130C08E07B681B689A697B681B688021490121
S3150800131C0A439A617B681B689B69554A13401900F6
S3150800132C7B689A687B681B680A439A617B681B68AA
S3150800133C9A697B681B68A4218A439A617B681B6837
S3150800134C1A697B681B6810218A431A617B68DB68FB
S3150800135C012B08D17B681B689A697B681B6804217A
S3150800136C0A439A612CE07B68DB68002B28D07B68E3
S3150800137CDB68022B1CD07B681B689A697B681B6828
S3150800138C80210A439A617B681B681A697B681B680B
S3150800139C10210A431A617B68DB68032B10D17B6822
S315080013AC1B689A697B681B6820210A439A6107E0C7
S315080013BC7B681B689A697B681B6820210A439A61BB
S315080013CC7B689B69013B5A067B68DB69013B1B0200
S315080013DC1A437B681B6A013B1A4311007B685B69DD
S315080013EC013B1A047B681B680A43DA617B689A68B6
S315080013FCC0239B009A4215D17B689B6A5A1E7B6850
S3150800140CDB6A013B1B021A437B681B6B013B1B0106
S3150800141C1A4311007B685B6A013B1A047B681B68DC
S3150800142C0A43DA607B681B68C02299587B68DA6BBA
S3150800143C7B681B680A43C0215A507B68180000F069
S3150800144C99F97B6800229A657B6800221A667B6884
S3150800145C5C220121995400231800BD4604B080BDB6
S3150800146C0064004000650040FFBFFFFFFFEFFFFF71
S3150800147CFFFCFFFF80B586B000AFF860B9607A60F4
S3150800148CFB685C229B5CDBB2022B2DD1FB681B68CC
S3150800149CC4229A5880239B03134008D0FB681B6E02
S315080014AC802292001A43FB681A66012323E0FB6824
S315080014BC1B68C4229B581B0C032213407B617B6957
S315080014CC7A68B968F86800F0C1F9FB681B680121ED
S315080014DC7A6991400A00CC215A5001227B699A40BC
S315080014ECFB689A65002306E0FB681B6E08221A4304
S315080014FCFB681A6601231800BD4606B080BD0000BD
S3150800150C80B58AB000AFF860B9607A603B6000239A
S3150800151CFB611B203B18FA685C21525C1A703B185D
S3150800152C1B78022B00D0ECE0BB68402B37D1FB684C
S3150800153C1B6890229B580F22134008D1FB681B6E20
S3150800154C802252001A43FB681A660123E0E0FB6806
S3150800155C1B6890229B581B0E01221340012B0AD1A3
S3150800156CFB681B6880229B585B0A01221340012BDF
S3150800157C01D10123FB61FB681B6890229B581B0A4F
S3150800158C03221340FA69D318FB61FB68996CFA6954
S3150800159C1300DB009B18DB00CB187B6236E0FB687C
S315080015AC1B6898229B580F22134008D1FB681B6EA8
S315080015BC802252001A43FB681A660123A8E0FB68CE
S315080015CC1B6898229B581B0E01221340012B0AD12B
S315080015DCFB681B6880229B581B0A01221340012BAF
S315080015EC01D10123FB61FB681B6898229B581B0AD7
S315080015FC03221340FA69D318FB61FB68D96CFA69A4
S3150800160C1300DB009B18DB00CB187B627B6A1A681D
S3150800161C8023DB051A407B685A607B685B68002B65
S3150800162C07D17B6A1B689B0C5B055A0D7B681A6095
S3150800163C05E07B6A1B68DB00DA087B681A607B6A44
S3150800164C1A6880239B051A407B689A607B6A1B681C
S3150800165CDB0FDA077B681A617B6A04337B627B6A69
S3150800166C1B681B041A0C7B68DA617B6A1B681B0CEB
S3150800167C0F221A407B68DA607B6A1A6880235B0340
S3150800168C1A407B685A617B6A1A6880239B031A4046
S3150800169C7B689A617B6A1B681B0E7F221A407B68E3
S315080016AC1A627B6A1B68DA0F7B685A627B6A043398
S315080016BC7B627B6A7B6100233B620AE07A693B6A40
S315080016CCD21839683B6ACB1812781A703B6A013300
S315080016DC3B627B68DB68104AD35C1A003B6A934210
S315080016ECECD3BB68402B05D1FB681B689421FA69BF
S315080016FC5A5004E0FB681B689C21FA695A5000236F
S3150800170C06E0FB681B6E08221A43FB681A6601235F
S3150800171C1800BD460AB080BD8452000880B584B056
S3150800172C00AF786039603B68402B07D17B681B6833
S3150800173C90229B580F221340FB6006E07B681B68BF
S3150800174C98229B580F221340FB60FB681800BD4675
S3150800175C04B080BD80B584B000AF78607B681B6828
S3150800176CC4229B5807221340FB60FB681800BD4631
S3150800177C04B080BD80B584B000AF78602F4BBB60D9
S3150800178C7B681B682E4A934205D1BB68D42292000B
S3150800179C94466344BB607B68BA681A647B681B68AA
S315080017AC80229B58274A134019007B685B6B1A04E6
S315080017BC7B681B680A4380215A50BB6870331A0031
S315080017CC7B685A647B681B6880229B581E4A1340A8
S315080017DC19007B689B6B1A067B681B680A43802179
S315080017EC5A50BB68B0331A007B689A64BB68893355
S315080017FCFF331A007B68DA64BB68982292009A1841
S3150800180C7B681A65BB689E2292009A187B685A6593
S3150800181CBB68FB6005E0FB6800221A60FB680433B2
S3150800182CFB60BB68D422920094466344FA689A42D9
S3150800183CF1D3C046C046BD4604B080BD00B40040D6
S3150800184C00680040FFFFE0FFFFFFFFF080B588B09F
S3150800185C00AFF860B9607A603B60BB685B68002BC8
S3150800186C0AD1BB681A69BB689B681A43BB681B68B4
S3150800187C9B041343FB610BE0BB681A69BB689B6846
S3150800188C1A43BB681B6813438022D2051343FB61BA
S3150800189CBB681B6A1A06BB68DB691A43BB689B697B
S315080018AC1A43BB685B691A43BB68DB681B041343A2
S315080018BC3B61FB68596D3A681300DB009B18DB002B
S315080018CCCB18BB61BB69FA691A60BB690433BB6187
S315080018DCBB693A691A60BB690433BB6100237B6137
S315080018EC20E07B6903337A68D3181B781A067B6960
S315080018FC02337968CB181B781B041A437B690133AE
S3150800190C7968CB181B781B02134379687A698A188D
S3150800191C12781A43BB691A60BB690433BB617B69CD
S3150800192C04337B61BB68DB68054AD35C1A007B69A8
S3150800193C9342D6D3C046C046BD4608B080BDC04605
S3150800194C8452000880B586B000AF786039600023F1
S3150800195C7B614DE13B681B6801217A6991400A005D
S3150800196C1340FB60FB68002B00D13EE13B685B68CB
S3150800197C03221340012B05D03B685B6803221340F6
S3150800198C022B30D17B689B683B617B695B00032229
S3150800199C9A401300DA433B6913403B613B68DA68AB
S315080019AC7B695B009A4013003A6913433B617B6879
S315080019BC3A699A607B685B683B6101227B699A404D
S315080019CC1300DA433B6913403B613B685B681B09B0
S315080019DC01221A407B699A4013003A6913433B610A
S315080019EC7B683A695A603B685B6803221340032B91
S315080019FC17D07B68DB683B617B695B0003229A40E6
S31508001A0C1300DA433B6913403B613B689A687B6970
S31508001A1C5B009A4013003A6913433B617B683A6949
S31508001A2CDA603B685B6803221340022B23D17B697F
S31508001A3CDA087B6808329200D3583B617B69072227
S31508001A4C13409B000F229A401300DA433B6913405C
S31508001A5C3B613B681A697B6907210B409B009A40DE
S31508001A6C13003A6913433B617B69DA087B680832D1
S31508001A7C92003969D1507B681B683B617B695B00B6
S31508001A8C03229A401300DA433B6913403B613B68D7
S31508001A9C5B6803221A407B695B009A4013003A691B
S31508001AAC13433B617B683A691A603B685A68C023E2
S31508001ABC9B02134000D198E0534A7B699B08183364
S31508001ACC9B009B583B617B6903221340DB000F226A
S31508001ADC9A401300DA433B6913403B617A68A023AA
S31508001AECDB059A4219D07B68484A934213D07B6827
S31508001AFC474A93420DD07B68464A934207D07B6887
S31508001B0C454A934201D1042308E0052306E0032342
S31508001B1C04E0022302E0012300E000237A69032192
S31508001B2C0A40D20093403A6913433B6136497B69B4
S31508001B3C9B0818339B003A695A50334B1B683B6118
S31508001B4CFB68DA433B6913403B613B685A68802360
S31508001B5C5B03134003D03A69FB6813433B612A4B7A
S31508001B6C3A691A60284B5B683B61FB68DA433B6948
S31508001B7C13403B613B685A6880239B03134003D090
S31508001B8C3A69FB6813433B611F4B3A695A601E4A14
S31508001B9C8423D3583B61FB68DA433B6913403B61AA
S31508001BAC3B685A6880239B02134003D03A69FB684A
S31508001BBC13433B61144984223B698B50124A802398
S31508001BCCD3583B61FB68DA433B6913403B613B687E
S31508001BDC5A6880235B02134003D03A69FB681343A7
S31508001BEC3B61094980223B698B507B6901337B61D8
S31508001BFC3B681A687B69DA40131E00D0AAE6C04611
S31508001C0CC046BD4606B080BD001802400004005010
S31508001C1C00080050000C00500010005080B582B02F
S31508001C2C00AF786008001100BB1C021C1A807B1CD4
S31508001C3C0A1C1A707B1C1B78002B04D0BB1C1A8838
S31508001C4C7B689A6103E0BB1C1A887B689A62C0465B
S31508001C5CBD4602B080BD000080B584B000AF786088
S31508001C6C194B1B68194A13401900174B7A680A4313
S31508001C7C1A607A6880239B009A421FD1144B1A6803
S31508001C8C13005B009B185B0012491800FEF73EFA1E
S31508001C9C03000133FB6008E0FB68002B03D0FB68EC
S31508001CAC013BFB6001E0032309E0074B5A698023DB
S31508001CBCDB001A408023DB009A42EDD00023180083
S31508001CCCBD4604B080BDC04600700040FFF9FFFF5A
S31508001CDC0000002040420F0080B500AF034B9A6805
S31508001CECE023DB0113401800BD4680BD00100240FE
S31508001CFC80B588B000AF78607B68002B02D10123D1
S31508001D0C00F050FB7B681B680122134000D17CE075
S31508001D1CC34B9B6838221340BB61C14BDB6803225B
S31508001D2C13407B61BB69102B02D17B69032B02D054
S31508001D3CBB69082B0BD1BA4B1A6880239B0213403C
S31508001D4C62D07B685B68002B5ED101232AE37B6833
S31508001D5C5A6880235B029A4207D1B14B1A68B04B7A
S31508001D6C802149020A431A6020E07B685A68A0233E
S31508001D7CDB029A420ED1AA4B1A68A94B8021C902DA
S31508001D8C0A431A60A64B1A68A54B802149020A43D6
S31508001D9C1A600BE0A24B1A68A14BA2490A401A60BA
S31508001DAC9F4B1A689E4BA0490A401A607B685B6871
S31508001DBC002B14D0FFF732F803003B6108E0FFF75D
S31508001DCC2DF802003B69D31A642B01D90323E9E2E7
S31508001DDC934B1A6880239B021340F0D015E0FFF74B
S31508001DEC1DF803003B6108E0FFF718F802003B6991
S31508001DFCD31A642B01D90323D4E2894B1A6880239E
S31508001E0C9B021340F0D100E0C0467B681B68022297
S31508001E1C134000D199E0824B9B6838221340BB6172
S31508001E2C7F4BDB68032213407B61BB69102B02D105
S31508001E3C7B69022B02D0BB69002B35D1784B1A680B
S31508001E4C8023DB00134005D07B68DB68002B01D1AF
S31508001E5C0123A7E2724B5B68744A134019007B682E
S31508001E6C5B691A026E4B0A435A60BB69002B12D186
S31508001E7C6B4B1B686E4A134019007B681A69684BD2
S31508001E8C0A431A60664B1B68DB0A07221340694A29
S31508001E9CDA40694B1A60694B1B681800FEF762FF3B
S31508001EAC031E51D001237DE27B68DB68002B30D002
S31508001EBC5B4B1B685E4A134019007B681A69584BC2
S31508001ECC0A431A60564B1A68554B802149000A4337
S31508001EDC1A60FEF7A3FF03003B6108E0FEF79EFFBE
S31508001EEC02003B69D31A022B01D903235AE24C4B45
S31508001EFC1A688023DB001340F0D0494B5B684B4AC9
S31508001F0C134019007B685B691A02454B0A435A60F1
S31508001F1C1BE0434B1A68424B49490A401A60FEF7C4
S31508001F2C7DFF03003B6108E0FEF778FF02003B6982
S31508001F3CD31A022B01D9032334E2394B1A688023AE
S31508001F4CDB001340F0D100E0C0467B681B68082212
S31508001F5C134047D0324B9B6838221340182B0AD1B2
S31508001F6C2F4B1B6E022213403CD07B689B69002BBF
S31508001F7C38D1012316E27B689B69002B19D0284BB4
S31508001F8C1A6E274B01210A431A66FEF747FF030010
S31508001F9C3B6108E0FEF742FF02003B69D31A022BAD
S31508001FAC01D90323FEE11E4B1B6E02221340F1D00E
S31508001FBC18E01B4B1A6E1A4B01218A431A66FEF758
S31508001FCC2DFF03003B6108E0FEF728FF02003B6982
S31508001FDCD31A022B01D90323E4E1114B1B6E0222FF
S31508001FEC1340F1D17B681B680422134000D1C7E06B
S31508001FFC1F23FB1800221A70094B9B6838221340C2
S3150800200C202B1FD1064BDB6D0222134000D1B7E003
S3150800201C7B689B68002B00D0B2E00123C2E1C04666
S3150800202C00100240FFFFFEFFFFFFFBFFFF80FFFFD4
S3150800203CFFC7FFFF0024F400000000200400002066
S3150800204CFFFEFFFFB54BDA6B80235B05134001D10E
S3150800205C012300E00023002B11D0B04BDA6BAF4BF9
S3150800206C802149050A43DA63AC4BDA6B80235B059E
S3150800207C1340FB60FB681F23FB1801221A70A84B40
S3150800208C1A6880235B0013401AD1A54B1A68A44B17
S3150800209C802149000A431A60FEF7C0FE03003B6123
S315080020AC08E0FEF7BBFE02003B69D31A022B01D9E6
S315080020BC032377E19A4B1A6880235B001340F0D010
S315080020CC7B689B68012B06D1944BDA6D934B0121E7
S315080020DC0A43DA651CE07B689B68052B0CD18F4B91
S315080020ECDA6D8E4B04210A43DA658C4BDA6D8B4B11
S315080020FC01210A43DA650BE0884BDA6D874B01211F
S3150800210C8A43DA65854BDA6D844B04218A43DA6592
S3150800211C7B689B68002B14D0FEF780FE03003B619E
S3150800212C09E0FEF77BFE02003B69D31A7D4A93420F
S3150800213C01D9032336E1794BDB6D02221340F0D02B
S3150800214C13E0FEF76BFE03003B6109E0FEF766FE43
S3150800215C02003B69D31A734A934201D9032321E13E
S3150800216C6E4BDB6D02221340F0D11F23FB181B7834
S3150800217C012B05D1694BDA6B684B6B490A40DA635C
S3150800218C7B681B682022134039D07B68DB69002BDF
S3150800219C1BD0624B1A68614B8021C9030A431A602B
S315080021ACFEF73CFE03003B6108E0FEF737FE020033
S315080021BC3B69D31A022B01D90323F3E0574B1A6850
S315080021CC80231B041340F0D019E0544B1A68534B68
S315080021DC56490A401A60FEF721FE03003B6108E0E7
S315080021ECFEF71CFE02003B69D31A022B01D9032306
S315080021FCD8E04A4B1A6880231B041340F0D17B683D
S3150800220C1B6A002B00D1CCE0444B9B683822134048
S3150800221C102B00D17BE07B681B6A022B56D13F4BF7
S3150800222C1A683E4B42490A401A60FEF7F7FD03004E
S3150800223C3B6108E0FEF7F2FD02003B69D31A022B5C
S3150800224C01D90323AEE0354B1A6880239B0413404F
S3150800225CF0D1324BDB68374A134019007B685A6A4F
S3150800226C7B689B6A1A437B68DB6A1B021A437B688A
S3150800227C1B6B1A437B685B6B1A437B689B6B1A4315
S3150800228C264B0A43DA60254B1A68244B80214904ED
S3150800229C0A431A60214BDA68204B802149050A4308
S315080022ACDA60FEF7BBFD03003B6108E0FEF7B6FDFE
S315080022BC02003B69D31A022B01D9032372E0174B90
S315080022CC1A6880239B041340F0D06AE0134B1A68F3
S315080022DC124B17490A401A60FEF7A0FD03003B6132
S315080022EC08E0FEF79BFD02003B69D31A022B01D9C5
S315080022FC032357E0094B1A6880239B041340F0D13B
S3150800230C064BDA68054B0C490A40DA6049E07B68EB
S3150800231C1B6A012B12D1012344E0C046001002406F
S3150800232C0070004088130000FFFFFFEFFFFFBFFFA0
S3150800233CFFFFFFFE8C80C111FCFFFEEE1B4BDB681A
S3150800234C7B617B6903221A407B685B6A9A4226D1B9
S3150800235C7B6970221A407B689B6A9A421FD17A69FC
S3150800236CFE23DB011A407B68DB6A1B029A4216D1F4
S3150800237C7A69F8239B031A407B681B6B9A420ED129
S3150800238C7A69E0231B051A407B685B6B9A4206D177
S3150800239C7B695B0F5A077B689B6B9A4201D00123BA
S315080023AC00E000231800BD4608B080BD00100240AE
S315080023BC80B584B000AF786039607B68002B01D19A
S315080023CC0123E9E0764B1B68072213403A689A42C8
S315080023DC1ED9734B1B68072293431900704B3A6836
S315080023EC0A431A60FEF71AFD0300FB6009E0FEF7C4
S315080023FC15FD0200FB68D31A6A4A934201D90323D6
S3150800240CCAE0674B1B68072213403A689A42EED11A
S3150800241C7B681B680222134015D07B681B68042254
S3150800242C134006D0604B9A685F4BE021C9010A43FA
S3150800243C9A605D4B9B685D4A134019007B689A68E5
S3150800244C594B0A439A607B681B680122134057D084
S3150800245C7B685B68012B07D1534B1A6880239B0258
S3150800246C13402BD1012397E07B685B68022B07D1BD
S3150800247C4D4B1A6880239B0413401FD101238BE014
S3150800248C7B685B68002B07D1474B1A688023DB00F7
S3150800249C134013D101237FE07B685B68032B06D1BD
S315080024AC414B1B6E0222134008D1012374E03E4BAC
S315080024BCDB6D0222134001D101236DE03A4B9B6878
S315080024CC0722934319007B685A68374B0A439A606C
S315080024DCFEF7A4FC0300FB6009E0FEF79FFC020074
S315080024ECFB68D31A2F4A934201D9032354E02E4B87
S315080024FC9B6838221A407B685B68DB009A42ECD1F1
S3150800250C274B1B68072213403A689A421ED2244B63
S3150800251C1B68072293431900214B3A680A431A6031
S3150800252CFEF77CFC0300FB6009E0FEF777FC020073
S3150800253CFB68D31A1B4A934201D903232CE0184B88
S3150800254C1B68072213403A689A42EED17B681B68CF
S3150800255C0422134009D0144B9B68154A13401900E2
S3150800256C7B68DA68104B0A439A6000F029F8010078
S3150800257C0D4B9B681B0A0F221A400E4B9200D35820
S3150800258C1F2213400A00DA400B4B1A600B4B1B68D0
S3150800259C1800FEF7E7FB03001800BD4604B080BD23
S315080025AC002002408813000000100240FFF0FFFFD5
S315080025BCFF8FFFFF245200080000002004000020B3
S315080025CC80B586B000AF3C4B9B68382213400FD1C0
S315080025DC394B1B68DB0A0722134001229A40130069
S315080025EC3B6039683548FDF791FD03003B615DE0BA
S315080025FC314B9B6838221340082B02D1304B3B6178
S3150800260C54E02D4B9B6838221340102B38D12A4B9B
S3150800261CDB6803221340FB60274BDB681B09072288
S3150800262C13400133BB60FB68032B0DD1B9682448F2
S3150800263CFDF76CFD030019001F4BDB681B0A7F2294
S3150800264C13404B437B610DE0B9681C48FDF75EFDF2
S3150800265C03001900184BDB681B0A7F2213404B43F7
S3150800266C7B61C046144BDB685B0F072213400133B2
S3150800267C7B6079687869FDF749FD03003B6115E0D5
S3150800268C0D4B9B6838221340202B03D180231B0249
S3150800269C3B610BE0084B9B6838221340182B03D17F
S315080026ACFA23DB013B6101E000233B613B6918001F
S315080026BCBD4606B080BDC046001002400024F4009A
S315080026CC00127A0080B500AF024B1B681800BD4695
S315080026DC80BDC04600000020B0B500AFFFF7F2FF82
S315080026EC0400FFF7F9FA03001A0B054B9200D358AE
S315080026FC1F221340DC4023001800BD46B0BDC0465F
S3150800270C6452000880B586B000AF78601323FB18B6
S3150800271C00221A701223FB1800221A707B681A689A
S3150800272C80239B02134000D1ADE011203B180022F8
S3150800273C1A70474BDA6B80235B05134010D1444B58
S3150800274CDA6B434B802149050A43DA63404BDA6B53
S3150800275C80235B051340BB60BB683B1801221A70CB
S3150800276C3C4B1A683B4B802149000A431A60FEF71A
S3150800277C55FB0300FB600BE0FEF750FB0200FB6801
S3150800278CD31A022B04D91323FB1803221A7005E05B
S3150800279C304B1A6880235B001340EDD01323FB18CB
S315080027AC1B78002B5ED12A4BDA6DC0239B00134095
S315080027BC7B617B69002B19D07B681B6C7A699A4202
S315080027CC14D0234BDB6D244A13407B61204BDA6D06
S315080027DC1F4B802149020A43DA651D4BDA6D1C4BE7
S315080027EC1E490A40DA651A4B7A69DA657B69012251
S315080027FC134016D0FEF712FB0300FB600CE0FEF745
S3150800280C0DFB0200FB68D31A154A934204D913230D
S3150800281CFB1803221A7004E00D4BDB6D02221340E1
S3150800282CEDD01323FB181B78002B0AD1084BDB6D54
S3150800283C094A134019007B681A6C054B0A43DA657A
S3150800284C16E01223FB181322BA1812781A700FE026
S3150800285C0010024000700040FFFCFFFFFFFFFEFF68
S3150800286C881300001223FB181322BA1812781A7050
S3150800287C1123FB181B78012B05D1B64BDA6BB54B1C
S3150800288CB5490A40DA637B681B680122134009D0F4
S3150800289CB04B5B6D0322934319007B685A68AD4BAA
S315080028AC0A435A657B681B680222134009D0A94B58
S315080028BC5B6D0C22934319007B689A68A54B0A43F7
S315080028CC5A657B681B680422134009D0A14B5B6DC3
S315080028DC3022934319007B68DA689E4B0A435A6583
S315080028EC7B681B681022134009D09A4B5B6D9B4A78
S315080028FC134019007B681A69964B0A435A657B681C
S3150800290C1A6880235B01134009D0924B5B6D944A7D
S3150800291C134019007B685A698E4B0A435A657B68C3
S3150800292C1A6880239B00134009D08A4B5B6D8D4A2D
S3150800293C134019007B689A6A864B0A435A657B686A
S3150800294C1A688023DB00134009D0824B5B6D864ADC
S3150800295C134019007B68DA6A7E4B0A435A657B6812
S3150800296C1B682022134009D07A4B5B6D7F4A1340B3
S3150800297C19007B689A69774B0A435A657B681B680A
S3150800298C4022134009D0734B5B6D794A13401900EA
S3150800299C7B68DA696F4B0A435A657B681A68802329
S315080029ACDB01134015D06B4B5B6D9B0099087B685C
S315080029BC1A6B684B0A435A657B681A6B8023DB05CE
S315080029CC9A4206D1634BDA68624B802149020A4364
S315080029DCDA607B681A6880231B03134009D05D4BA9
S315080029EC5B6D4022934319007B685A6B594B0A431B
S315080029FC5A657B681A6880239B03134016D0554B7F
S31508002A0C5B6D5C4A134019007B689A6B514B0A4301
S31508002A1C5A657B689A6B8023DB039A4206D14D4B29
S31508002A2CDA684C4B802149040A43DA607B681A68D9
S31508002A3C8023DB03134016D0464B5B6D4E4A13407E
S31508002A4C19007B68DA6B434B0A435A657B68DA6B69
S31508002A5C80235B049A4206D13E4BDA683D4B8021B3
S31508002A6C49040A43DA607B681A6880231B01134001
S31508002A7C14D0384B9B6D0322934319007B681A6A52
S31508002A8C344B0A439A657B681B6A012B06D1314B7A
S31508002A9CDA68304B802149020A43DA607B681A6887
S31508002AAC80239B01134014D02A4B9B6D0C22934315
S31508002ABC19007B685A6A274B0A439A657B685B6AD6
S31508002ACC042B06D1234BDA68224B802149020A4390
S31508002ADCDA607B681A6880235B04134016D01D4B9A
S31508002AEC9B6D224A134019007B685A6C194B0A4392
S31508002AFC9A657B685A6C80239B019A4206D1154BC2
S31508002B0CDA68144B802149040A43DA607B681A6830
S31508002B1C80239B04134016D00E4B9B6D104A134012
S31508002B2C19007B689A6C0B4B0A439A657B689A6CFE
S31508002B3C80235B009A4206D1064BDA68054B802146
S31508002B4C49040A43DA601223FB181B781800BD46A1
S31508002B5C06B080BD00100240FFFFFFEFFFF3FFFF3A
S31508002B6CFFFCFFFFFFFFF3FFFFFFCFFFFFCFFFFFCA
S31508002B7CFF3FFFFFFFFFBFFFFFFFFFFE80B582B0E1
S31508002B8C00AF78607B68002B01D1012346E07B6897
S31508002B9C88229B58002B07D17B68842200219954E4
S31508002BAC7B681800FEF72AF87B688822242199503E
S31508002BBC7B681B681A687B681B6801218A431A6044
S31508002BCC7B689B6A002B03D07B68180000F0C4FE58
S31508002BDC7B68180000F06AFB0300012B01D1012366
S31508002BEC1CE07B681B685A687B681B680D490A40A1
S31508002BFC5A607B681B689A687B681B682A218A431B
S31508002C0C9A607B681B681A687B681B6801210A43F3
S31508002C1C1A607B68180000F053FF03001800BD46C5
S31508002C2C02B080BDFFB7FFFFB0B5AAB000AF7860A1
S31508002C3C7B681B68DB69A422B9180B607B681B6868
S31508002C4C1B68A02039180B607B681B689B689C2442
S31508002C5C39190B601100BB181B68A24A134098223D
S31508002C6CBD182B60BB181B68002B1AD17B181B6868
S31508002C7C2022134015D03B181B682022134005D17F
S31508002C8C3B191A6880235B0513400AD07B685B6F77
S31508002C9C002B00D1DCE27B685B6F7A6810009847E2
S31508002CACD6E29823FB181B68002B00D122E19C2343
S31508002CBCFB181B688C4A134006D1A023FB181B680B
S31508002CCC8A4A134000D115E1A423FB181B6801227C
S31508002CDC134012D0A023FB181A6880235B001340FC
S31508002CEC0BD07B681B6801221A627B6890229B5862
S31508002CFC01221A437B6890215A50A423FB181B689F
S31508002D0C0222134011D09C23FB181B680122134086
S31508002D1C0BD07B681B6802221A627B6890229B5830
S31508002D2C04221A437B6890215A50A423FB181B686B
S31508002D3C0422134011D09C23FB181B680122134054
S31508002D4C0BD07B681B6804221A627B6890229B58FE
S31508002D5C02221A437B6890215A50A423FB181B683D
S31508002D6C0822134017D0A023FB181B6820221340F7
S31508002D7C05D19C23FB181B685B4A13400BD07B6858
S31508002D8C1B6808221A627B6890229B5808221A43F1
S31508002D9C7B6890215A50A423FB181A6880231B01C0
S31508002DAC134013D0A023FB181A688023DB041340A6
S31508002DBC0CD07B681B68802212011A627B689022F1
S31508002DCC9B5820221A437B6890215A507B68902284
S31508002DDC9B58002B00D13DE2A423FB181B6820222C
S31508002DEC134015D0A023FB181B682022134006D1CC
S31508002DFC9C23FB181A6880235B05134008D07B6854
S31508002E0C5B6F002B04D07B685B6F7A681000984761
S31508002E1C7B6890229B5894217A1813607B681B68F0
S31508002E2C9B6840221340402B04D07B181B68282231
S31508002E3C13404CD07B68180000F05CFF7B681B685D
S31508002E4C9B6840221340402B3CD1EFF310833B6622
S31508002E5C3B6E90203A18136001237B667B6E83F3D6
S31508002E6C1088C0467B681B689A687B681B6840217B
S31508002E7C8A439A603B181B68BB66BB6E83F3108843
S31508002E8CC0467B6880229B58002B16D07B68802214
S31508002E9C9B58174A9A637B6880229B581800FEF742
S31508002EAC1BF9031E1CD07B6880229B589B6B7A6887
S31508002EBC802152581000984712E07B68180000F0E1
S31508002ECCE1F90DE07B68180000F0DCF908E07B6896
S31508002EDC180000F0D7F97B68902200219950B9E1C7
S31508002EECC046B7E10F0800000100001020010004DD
S31508002EFCCD3D00087B68DB6E012B00D03EE1A42398
S31508002F0CFB181B681022134000D137E1A023FB18CD
S31508002F1C1B681022134000D130E17B681B68102215
S31508002F2C1A627B681B689B6840221340402B00D0B2
S31508002F3CA4E07B6880229B581B685A687E217B1804
S31508002F4C1A807B181B88002B00D185E17B685C22D4
S31508002F5C9B5A7A1812889A4200D37DE17B687A18B4
S31508002F6C5E2112885A527B6880229B581B681B6804
S31508002F7C2022134070D1EFF310833B633B6BBB6786
S31508002F8C01237B637B6B83F31088C0467B681B68C5
S31508002F9C1A687B681B68B4490A401A60BB6FBB6326
S31508002FACBB6B83F31088C046EFF31083FB63FB6B94
S31508002FBC7B6701233B643B6C83F31088C0467B68B4
S31508002FCC1B689A687B681B6801218A439A607B6F29
S31508002FDC7B647B6C83F31088C046EFF31083BB6469
S31508002FECBB6C3B670123FB64FB6C83F31088C04600
S31508002FFC7B681B689A687B681B6840218A439A60C1
S3150800300C3B6F3B653B6D83F31088C0467B688C220F
S3150800301C202199507B680022DA66EFF310837B65D2
S3150800302C7B6DFB660123BB65BB6D83F31088C046BD
S3150800303C7B681B681A687B681B6810218A431A60B0
S3150800304CFB6EFB65FB6D83F31088C0467B6880229C
S3150800305C9B581800FDF7E0FF7B6802221A677B680D
S3150800306C5C229A5A7B685E215B5A9BB2D31A9AB237
S3150800307C7B681100180000F00DF9EDE07B685C2206
S3150800308C995A7B685E229B5A9AB28E203B188A1AEA
S3150800309C1A807B685E229B5A9BB2002B00D1DDE01E
S315080030AC3B181B88002B00D1D8E0EFF31083FB608C
S315080030BCFB6888243A19136001233B613B6983F347
S315080030CC1088C0467B681B681A687B681B6867494A
S315080030DC0A401A603B191B687B617B6983F310886D
S315080030ECC046EFF31083BB61BB6984243A1913609D
S315080030FC0123FB61FB6983F31088C0467B681B6858
S3150800310C9A687B681B685A490A409A603B191B687F
S3150800311C3B623B6A83F31088C0467B688C2220216D
S3150800312C99507B680022DA667B6800225A67EFF3AF
S3150800313C10837B627B6A80243A1913600123BB6275
S3150800314CBB6A83F31088C0467B681B681A687B6861
S3150800315C1B6810218A431A603B191B68FB62FB6AC1
S3150800316C83F31088C0467B6802221A673B181A88B4
S3150800317C7B681100180000F08DF86FE0A423FB188B
S3150800318C1A6880235B03134010D09C23FB181A681B
S3150800319C8023DB03134009D07B681B68802252030B
S315080031AC1A627B68180000F04EFE5AE0A423FB183E
S315080031BC1B688022134016D0A023FB181B6880229C
S315080031CC134006D19C23FB181A6880231B04134052
S315080031DC09D07B689B6F002B42D07B689B6F7A6803
S315080031EC100098473CE0A423FB181B6840221340A8
S315080031FC0AD0A023FB181B684022134004D07B6816
S3150800320C180000F0F4FD2CE0A423FB181A688023A0
S3150800321C1B0413400BD0A023FB181A688023DB056C
S3150800322C134004D07B68180000F01DFE19E0A42397
S3150800323CFB181A6880235B04134012D0A023FB18D2
S3150800324C1B68002B0DDA7B68180000F004FE08E0FA
S3150800325CC04606E0C04604E0C04602E0C04600E0B0
S3150800326CC046BD462AB0B0BDFFFEFFFFDFFEFFFF1E
S3150800327CFEFFFFEF80B582B000AF7860C046BD4652
S3150800328C02B080BD80B582B000AF7860C046BD463E
S3150800329C02B080BD80B582B000AF78600A00BB1C56
S315080032AC1A80C046BD4602B080BD0000B0B590B0CD
S315080032BC00AF78621A2320229B18DB1900221A7099
S315080032CC7B6A9A687B6A1B691A437B6A5B691A4331
S315080032DC7B6ADB691343FB637B6A1B681B68C14A01
S315080032EC134019007B6A1A68FB6B0B4313607B6AE5
S315080032FC1B685B68BC4A134018007B6AD9687B6AF2
S3150800330C1A6803000B4353607B6A9B69FB637B6AF1
S3150800331C1B68B64A934209D07B6A1B68B44A934227
S3150800332C04D07B6A1B6AFA6B1343FB637B6A1B68C4
S3150800333C9B68B04A134019007B6A1A68FB6B0B43EF
S3150800334C93607B6A1B68DB6A0F22934318007B6ABF
S3150800335C596A7B6A1A6803000B43D3627B6A1B683B
S3150800336CA54A934231D1A54B5B6D03221340032B1F
S3150800337C1DD023D8022B0CD020D8002B02D0012B21
S3150800338C0ED01BE01B2320229B18DB1900221A7077
S3150800339C54E11B2320229B18DB1902221A704DE1DB
S315080033AC1B2320229B18DB1904221A7046E11B23C7
S315080033BC20229B18DB1908221A703FE11B232022B6
S315080033CC9B18DB1910221A7038E17B6A1B688C4A29
S315080033DC934231D1894B5B6D0C2213400C2B1DD0BB
S315080033EC23D8082B0CD020D8002B02D0042B0ED0B7
S315080033FC1BE01B2320229B18DB1900221A701DE1E7
S3150800340C1B2320229B18DB1902221A7016E11B2398
S3150800341C20229B18DB1904221A700FE11B23202289
S3150800342C9B18DB1908221A7008E11B2320229B180B
S3150800343CDB1910221A7001E17B6A1B68714A9342E8
S3150800344C31D16E4B5B6D30221340302B1DD023D8F7
S3150800345C202B0CD020D8002B02D0102B0ED01BE022
S3150800346C1B2320229B18DB1900221A70E6E01B236B
S3150800347C20229B18DB1902221A70DFE01B2320225C
S3150800348C9B18DB1904221A70D8E01B2320229B18E0
S3150800349CDB1908221A70D1E01B2320229B18DB1992
S315080034AC10221A70CAE07B6A1B68574A934206D1E7
S315080034BC1B2320229B18DB1900221A70BEE07B6A9C
S315080034CC1B68524A934206D11B2320229B18DB19F0
S315080034DC00221A70B2E07B6A1B684D4A934206D1E9
S315080034EC1B2320229B18DB1900221A70A6E07B6A84
S315080034FC1B683E4A93423ED1404B5A6DC0231B0172
S3150800350C1340C0221201934227D0C02212019342C3
S3150800351C2AD880221201934211D08022120193429A
S3150800352C22D8002B04D08022D20093420ED01BE066
S3150800353C1B2320229B18DB1900221A707EE01B2302
S3150800354C20229B18DB1902221A7077E01B232022F3
S3150800355C9B18DB1904221A7070E01B2320229B1877
S3150800356CDB1908221A7069E01B2320229B18DB1929
S3150800357C10221A7062E07B6A1B681D4A934257D167
S3150800358C1E4B5A6DC0239B001340C02292009342D7
S3150800359C40D0C0229200934243D880229200934294
S315080035AC11D08022920093423BD8002B04D0802263
S315080035BC520093420ED034E01B2320229B18DB19B1
S315080035CC00221A703AE01B2320229B18DB190222D0
S315080035DC1A7033E01B2320229B18DB1904221A705D
S315080035EC2CE0C046F369FFCFFFCFFFFF00800040F9
S315080035FC00840040FFF4FF1100380140001002401F
S3150800360C0044004000480040004C00400050004078
S3150800361C003C01401B2320229B18DB1908221A7038
S3150800362C0CE01B2320229B18DB1910221A7005E0CC
S3150800363C1B2320229B18DB1910221A707B6A1B6825
S3150800364CC14A934205D07B6A1B68C04A934200D094
S3150800365C93E01B2320229B18DB191B78082B15D00B
S3150800366C18DC042B0DD015DC002B02D0022B05D050
S3150800367C10E0FFF731F803007B6314E0B44B7B636F
S3150800368C11E0FEF79DFF03007B630CE080231B0211
S3150800369C7B6308E000237B631A2320229B18DB1923
S315080036AC01221A70C0467B6B002B00D135E17B6A70
S315080036BC5A6AA84B5200D35A1900786BFCF726FDA8
S315080036CC0300BB627B6A5A6813005B009B18BA6AD4
S315080036DC9A4205D37B6A5B681B03BA6A9A4206D977
S315080036EC1A2320229B18DB1901221A7044E07B6BE3
S315080036FCBB610023FB617B6A5A6A964B5200D35A0C
S3150800370C3B6100237B613A697B69B869F969FCF707
S3150800371C73FE02000B00110E1D020D4314027B6A88
S3150800372C5B685B08BB600023FB60B868F968001926
S3150800373C69417B6A5B683B6000237B603A687B68FF
S3150800374CFCF75AFE02000B0013003B633A6BC023CE
S3150800375C9B009A4209D33A6B80235B039A4204D2A4
S3150800376C7B6A1B683A6BDA6006E01A2320229B18E0
S3150800377CDB1901221A70D0E0CFE07B6ADA69802364
S3150800378C1B029A4200D070E01B2320229B18DB19DF
S3150800379C1B78082B15D018DC042B0DD015DC002B48
S315080037AC02D0022B05D010E0FEF796FF03007B63D0
S315080037BC14E0674B7B6311E0FEF702FF03007B63A3
S315080037CC0CE080231B027B6308E000237B631A232F
S315080037DC20229B18DB1901221A70C0467B6B002B22
S315080037EC00D19AE07B6A5A6A5A4B5200D35A19008E
S315080037FC786BFCF78BFC03005A007B6A5B685B08EA
S3150800380CD2187B6A5B6819001000FCF77FFC030072
S3150800381C3B633B6B0F2B21D93A6B80235B029A4295
S3150800382C1CD23B6B9AB20E2020240319DB190F21EC
S3150800383C8A431A803B6B5B089BB20722134099B2EA
S3150800384C0319DB190219D21912880A431A807B6AE2
S3150800385C1B680219D2191288DA605EE01A23202234
S3150800386C9B18DB1901221A7057E01B2320229B1880
S3150800387CDB191B78082B15D018DC042B0DD015DC9E
S3150800388C002B02D0022B05D010E0FEF725FF030013
S3150800389C7B6314E02E4B7B6311E0FEF791FE03006D
S315080038AC7B630CE080231B027B6308E000237B63AD
S315080038BC1A2320229B18DB1901221A70C0467B6B2F
S315080038CC002B2AD07B6A5A6A224B5200D35A19000B
S315080038DC786BFCF71BFC03001A007B6A5B685B08B9
S315080038ECD2187B6A5B6819001000FCF70FFC030002
S315080038FC3B633B6B0F2B0AD93A6B80235B029A42CC
S3150800390C05D23B6B9AB27B6A1B68DA6005E01A2310
S3150800391C20229B18DB1901221A707B6A6A22012164
S3150800392C99527B6A6822012199527B6A00225A674E
S3150800393C7B6A00229A671A2320229B18DB191B78AC
S3150800394C1800BD4610B0B0BD008000400084004091
S3150800395C0024F4009452000880B582B000AF786059
S3150800396C7B689B6A082213400BD07B681B685B68D4
S3150800397C4A4A134019007B689A6B7B681B680A4392
S3150800398C5A607B689B6A012213400BD07B681B68C4
S3150800399C5B68434A134019007B68DA6A7B681B68C4
S315080039AC0A435A607B689B6A022213400BD07B68D9
S315080039BC1B685B683B4A134019007B681A6B7B686B
S315080039CC1B680A435A607B689B6A042213400BD017
S315080039DC7B681B685B68344A134019007B685A6B12
S315080039EC7B681B680A435A607B689B6A10221340E3
S315080039FC0BD07B681B689B682C4A134019007B68A4
S31508003A0CDA6B7B681B680A439A607B689B6A202280
S31508003A1C13400BD07B681B689B68254A134019001A
S31508003A2C7B681A6C7B681B680A439A607B689B6A7E
S31508003A3C402213401DD07B681B685B681D4A1340E7
S31508003A4C19007B685A6C7B681B680A435A607B684A
S31508003A5C5A6C80235B039A420BD17B681B685B68A4
S31508003A6C154A134019007B689A6C7B681B680A43D5
S31508003A7C5A607B689B6A802213400BD07B681B6854
S31508003A8C5B680E4A134019007B68DA6C7B681B6806
S31508003A9C0A435A60C046BD4602B080BDFF7FFFFF91
S31508003AACFFFFFDFFFFFFFEFFFFFFFBFFFFEFFFFF23
S31508003ABCFFDFFFFFFFFFEFFFFFFF9FFFFFFFF7FF94
S31508003ACC80B592B002AF78607B689022002199503D
S31508003ADCFDF7A4F90300FB637B681B681B680822C7
S31508003AEC1340082B2DD1FB6B802291037868474A2B
S31508003AFC0092002200F08EF8031E22D0EFF31083FA
S31508003B0C7B627B6ABB630123BB62BB6A83F3108847
S31508003B1CC0467B681B681A687B681B6880218A43C9
S31508003B2C1A60BB6BFB62FB6A83F31088C0467B6822
S31508003B3C8822202199507B688422002199540323DA
S31508003B4C60E07B681B681B6804221340042B46D173
S31508003B5CFB6B8022D10378682C4A0092002200F075
S31508003B6C59F8031E3BD0EFF31083FB60FB687B63AD
S31508003B7C01233B613B6983F31088C0467B681B684D
S31508003B8C1A687B681B6822490A401A607B6B7B6142
S31508003B9C7B6983F31088C046EFF31083BB61BB695E
S31508003BAC3B630123FB61FB6983F31088C0467B6882
S31508003BBC1B689A687B681B6801218A439A603B6B71
S31508003BCC3B623B6A83F31088C0467B688C222021B3
S31508003BDC99507B68842200219954032312E07B6850
S31508003BEC8822202199507B688C22202199507B6849
S31508003BFC0022DA667B6800221A677B688422002119
S31508003C0C995400231800BD4610B080BDFFFFFF0174
S31508003C1CDFFEFFFF80B584B000AFF860B9603B608B
S31508003C2CFB1D1A7051E0BB6901334ED0FDF7F6F84F
S31508003C3C02003B68D31ABA699A4202D3BB69002BB5
S31508003C4C01D1032351E0FB681B681B68042213404F
S31508003C5C3BD0BB68802B38D0BB68402B35D0FB6873
S31508003C6C1B68DB6908221340082B11D1FB681B68FB
S31508003C7C08221A62FB68180000F03CF8FB689022D0
S31508003C8C08219950FB6884220021995401232CE0C1
S31508003C9CFB681B68DA6980231B011A4080231B0109
S31508003CAC9A4212D1FB681B68802212011A62FB68C1
S31508003CBC180000F01FF8FB68902220219950FB6829
S31508003CCC84220021995403230FE0FB681B68DB69E7
S31508003CDCBA681340BA68D31A5A425341DBB21A006F
S31508003CECFB1D1B789A429ED000231800BD4604B0D3
S31508003CFC80BD000080B58EB000AF7860EFF31083FE
S31508003D0C7B617B697B630123BB61BB6983F3108889
S31508003D1CC0467B681B681A687B681B6826490A407C
S31508003D2C1A607B6BFB61FB6983F31088C046EFF363
S31508003D3C10833B623B6A3B6301237B627B6A83F39A
S31508003D4C1088C0467B681B689A687B681B681B4989
S31508003D5C0A409A603B6BBB62BB6A83F31088C04609
S31508003D6C7B68DB6E012B18D1EFF31083BB60BB6845
S31508003D7CFB620123FB60FB6883F31088C0467B68F3
S31508003D8C1B681A687B681B6810218A431A60FB6AD1
S31508003D9C3B613B6983F31088C0467B688C222021E3
S31508003DAC99507B680022DA667B6800225A67C046FF
S31508003DBCBD460EB080BDC046DFFEFFFFFEFFFFEF1F
S31508003DCC80B584B000AF78607B689B6AFB60FB6843
S31508003DDC5E2200219952FB68562200219952FB68F3
S31508003DEC1800FFF74FFAC046BD4604B080BD80B533
S31508003DFC86B000AF7860EFF31083BB60BB687B615D
S31508003E0C0123FB60FB6883F31088C0467B681B683C
S31508003E1C1A687B681B6840218A431A607B693B6178
S31508003E2C3B6983F31088C0467B6888222021995009
S31508003E3C7B6800229A677B681800FFF71BFAC04656
S31508003E4CBD4606B080BD80B582B000AF7860C0466E
S31508003E5CBD4602B080BD80B582B000AF7860C04662
S31508003E6CBD4602B080BD80B582B000AF7860C04652
S31508003E7CBD4602B080BD000080B584B000AF786046
S31508003E8C7B6884229B5C012B01D1022327E07B688B
S31508003E9C8422012199547B688822242199507B68B5
S31508003EAC1B681B68FB607B681B681A687B681B6849
S31508003EBC01218A431A60FB680B4A1340FB607B6836
S31508003ECC00225A667B681B68FA681A607B68882227
S31508003EDC202199507B6884220021995400231800CC
S31508003EECBD4604B080BDC046FFFFFFDF80B584B079
S31508003EFC00AF786039607B6884229B5C012B01D10A
S31508003F0C02232EE07B688422012199547B6888223F
S31508003F1C242199507B681B681B68FB607B681B68AF
S31508003F2C1A687B681B6801218A431A607B681B68C0
S31508003F3C9B68DB00D9087B681B683A680A439A6059
S31508003F4C7B68180000F054F87B681B68FA681A60DE
S31508003F5C7B688822202199507B68842200219954F9
S31508003F6C00231800BD4604B080BD000080B584B09F
S31508003F7C00AF786039607B6884229B5C012B01D189
S31508003F8C02232FE07B688422012199547B688822BE
S31508003F9C242199507B681B681B68FB607B681B682F
S31508003FAC1A687B681B6801218A431A607B681B6840
S31508003FBC9B680E4A134019007B681B683A680A43CB
S31508003FCC9A607B68180000F013F87B681B68FA681F
S31508003FDC1A607B688822202199507B6884220021EC
S31508003FEC995400231800BD4604B080BDFFFFFFF1AD
S31508003FFCF0B585B000AF78607B685B6E002B08D196
S3150800400C7B686A22012199527B68682201219952A0
S3150800401C43E00F26BB1908221A700E203B180822FB
S3150800402C1A707B681B689B685B0EDAB20D243B1909
S3150800403C07210A401A707B681B689B685B0FDAB20B
S3150800404C0C257B1907210A401A703B181B787A191C
S3150800405C127814498A5C5A4310007B191B78124A49
S3150800406CD35C1900FCF7DCF8030099B27B686A226A
S3150800407C9952BB191B783A1912780A498A5C5A4321
S3150800408C10003B191B78084AD35C1900FCF7C8F8D2
S3150800409C030099B27B6868229952C046BD4605B0A2
S315080040ACF0BDC046AC520008B452000880B582B0C8
S315080040BC00AF0200FB1D1A70134B0122DA60C046D2
S315080040CC124B1800FDF746FB031EF9D0FA1D0E49D4
S315080040DC0E4B1800FDF7CEF9C0460C4B1B681A6D33
S315080040EC80239B001A4080239B009A42F5D1074BEC
S315080040FC1B68196D054B1B68802292000A401A65CD
S3150800410CC046BD4602B080BD840100208400002054
S3150800411C80B582B000AFFB1D00221A70C046094B51
S3150800412C40211800FDF7FAFA031EF8D0FB1D064AC3
S3150800413C04484021FDF7E4F9FB1D1B781800BD4621
S3150800414C02B080BD84000020A801002080B598B07C
S3150800415C00AF5B217B1800221A702A4B00221A60CA
S3150800416C7B181B781800FFF7A1FFFFF7D1FF030098
S3150800417C1A0079231340792B3AD1FFF7C9FF0300AC
S3150800418C7B65FFF7C5FF03003B653A6D796D1E4BE2
S3150800419C180000F007F91D4B180000F069F9002308
S315080041ACFB6513E0FFF7B4FF030019003B00FA6D3B
S315080041BC9200D1503B00FA6D9200D258144B110064
S315080041CC180000F0EFF8FB6D0133FB65FB6D7A6D9B
S315080041DC9A42E7D8FFF79CFF03001A00792313408D
S315080041EC792B05D10B4B180000F042F9002305E09A
S315080041FC094B180000F03CF901235B421800BD4638
S3150800420C18B080BD84010020D4510008E85100087C
S3150800421CF4510008FC51000810520008002310B590
S3150800422C040003604360836081814366C281036135
S3150800423C43618361190008225C3000F015FA0B4BB8
S3150800424C246263620A4BA3620A4BE3620A4B23633A
S3150800425C0A4B9C4205D00A4B9C4202D0094B9C4205
S3150800426C03D12000583000F07FFA10BD91440008A5
S3150800427CB9440008F14400081D450008D001002087
S3150800428C38020020A002002010B5034A034904484E
S3150800429C00F06CF810BDC0460C0000201550000844
S315080042AC1800002041680B4B10B50400994201D048
S315080042BC00F0AAFEA168084B994202D0200000F033
S315080042CCA3FEE168054B994202D0200000F09CFE43
S315080042DC10BDC046D001002038020020A0020020E4
S315080042EC10B5094B094A04211A6009480022FFF740
S315080042FC95FF012209210748FFF790FF0222122198
S3150800430C0548FFF78BFF10BD0803002095420008EF
S3150800431CD001002038020020A002002010B5024867
S3150800432C00F023FA10BDC0461103002010B5024850
S3150800433C00F01CFA10BDC0461103002010B504008D
S3150800434CFFF7ECFF236A002B02D0FFF7EFFF10BD37
S3150800435C044B2362044B1B68002BF6D1FFF7C0FFF6
S3150800436CF3E7C046B142000808030020F7B514006D
S3150800437C002600900191A5686768013F04D524685A
S3150800438C002CF8D13000FEBDAB89012B08D90E22C2
S3150800439CAB5E013304D029000098019B984706436D
S315080043AC6835EAE70FB407B5054904AB086804CBCA
S315080043BC8168019300F002FB03B008BC04B01847EF
S315080043CC64000020036A70B505000E008468002B93
S315080043DC01D1FFF7B3FF636EDB0705D4A3899B05F1
S315080043EC02D4A06D00F0C1F9A3891B0702D5236975
S315080043FC002B1FD12100280000F0D2F8002819D074
S3150800440C01256D42636EDB0705D4A3899B0502D48F
S3150800441CA06D00F0ABF9280070BD0136A360002B27
S3150800442C04DAA2699A4216DC0A2914D023685A1CA3
S3150800443C22601970A3683178013B0029EDD1A3607D
S3150800444C002B0FDA280022000A3100F067F80A253B
S3150800445C0130D7D1D4E72200280000F05FF80130EC
S3150800446CE8D1CDE70A2523685A1C22601D70C9E7D6
S3150800447C10B5034B01001868FFF7A4FF10BDC04622
S3150800448C6400002070B50C000E25495F00F01AF97F
S3150800449C002803DB636D1B18636570BDA389024A8C
S315080044AC1340A381F9E7C046FFEFFFFFF8B51F00DD
S315080044BC8B8905000C001600DB0505D50E23C95E95
S315080044CC0022022300F0EAF8A389054A28001340C3
S315080044DCA38132000E23E15E3B0000F007F9F8BD1C
S315080044ECFFEFFFFF70B50C000E25495F00F0D6F8FC
S315080044FCA389421C03D1054A1340A38170BD8022AF
S3150800450C52011343A3816065F8E7C046FFEFFFFF2E
S3150800451C10B50E23C95E00F0AFF810BDF8B506004D
S3150800452C0D001400002804D0036A002B01D1FFF7F4
S3150800453C05FFA369A360A3891B0728D52369002B4C
S3150800454C25D023692068EFB2C01A6369EDB283429D
S3150800455C05DC2100300000F057FD00281DD1A368AA
S3150800456C0130013BA36023685A1C22601F706369E3
S3150800457C834204D0A389DB0707D50A2D05D1210070
S3150800458C300000F041FD002807D12800F8BD2100B5
S3150800459C300000F005F80028D3D001256D42F4E769
S315080045AC304B70B5050018680C00002804D0036A57
S315080045BC002B01D1FFF7C2FE0C23E25E93B2110762
S315080045CC23D4D90607D4092301202B603733134388
S315080045DCA381404270BD5B0713D5616B002908D0D7
S315080045EC23004433994202D0280000F0C1F8002376
S315080045FC63632422A3899343A381002363602369FD
S3150800460C23600823A2891343A3812369002B0BD1AA
S3150800461CA0218022A389890092000B40934203D0E3
S3150800462C2100280000F044FD0C22A35E01201A008C
S3150800463C99B2024003420FD00022A260626952422C
S3150800464CA261002022698242C4D10906C2D5402241
S3150800465C1343A3810138BDE7880700D46269A260B9
S3150800466CEFE7C0466400002003008218934200D18D
S3150800467C704719700133F9E7002370B5064D04002D
S3150800468C08002B60FCF703FA431C03D12B68002B9C
S3150800469C00D0236070BDC0460C03002070B5040022
S315080046AC080011001A000023054D2B60FCF710FAC0
S315080046BC431C03D12B68002B00D0236070BDC04669
S315080046CC0C03002070B50400080011001A00002322
S315080046DC054D2B60FCF7A2F9431C03D12B68002B64
S315080046EC00D0236070BDC0460C03002070B50400D2
S315080046FC080011001A000023054D2B60FCF7ABF9D6
S3150800470C431C03D12B68002B00D0236070BDC04618
S3150800471C0C030020014B18687047C0466400002043
S3150800472C70B500260C4C0D4D641BA410A64209D17D
S3150800473C002600F03DFD0A4C0A4D641BA410A64247
S3150800474C05D170BDB300EB5898470136EEE7B300B8
S3150800475CEB5898470136F2E7F8520008F852000869
S3150800476CFC520008F8520008704770477047000062
S3150800477C70B50500002910D00C1F2368002B00DA31
S3150800478CE418280000F0E2F81D4A1368002B05D13E
S3150800479C63601460280000F0E1F870BDA34208D9E4
S315080047AC206821188B42F3D119685B6809182160B7
S315080047BCEEE71A005B68002B01D0A342F9D9116801
S315080047CC5018A0420BD12068091850181160834262
S315080047DCE0D118685B68411811605360DAE7A042AB
S315080047EC02D90C232B60D5E7206821188B4203D1FC
S315080047FC19685B680918216063605460CAE7C0468B
S3150800480C1403002070B50F4E0D0031680400002902
S3150800481C02D100F0AFFC30602900200000F0AAFCA1
S3150800482C431C0AD00323C51C9D43A84207D0291A4A
S3150800483C200000F09FFC013001D101256D422800B3
S3150800484C70BDC04618030020F7B50322CB1C934352
S3150800485C083306001F000C2B38D20C27B94237D860
S3150800486C300000F073F8384B00931B681C00002CC2
S3150800487C33D139003000FFF7C5FF0400431C5ED165
S3150800488C009B1C682500002D4ED1002C51D02368A6
S3150800489C2900E3183000019300F06CFC019B83425D
S315080048AC47D123683000FF1A3900FFF7ABFF0130F8
S315080048BC3FD02368DB192360009B1B68002B40D074
S315080048CC5A68A24233D100225A6014E0002BC5DA8A
S315080048DC0C23002533602800FEBD2168C91B20D493
S315080048EC0B2918D9E2192760A34212D1009B1A602A
S315080048FC6368116053603000250000F02FF807221A
S3150800490C0B35231D9543EA1A9D42E4D05B1BA35035
S3150800491CE1E75A60ECE76268A342D5D1009B1A60BE
S3150800492CE9E723006468A2E72C006D68ABE713007F
S3150800493CC4E70C233000336000F010F8CBE727608F
S3150800494CD9E75B60FFDEC0461403002010B50248A9
S3150800495CFFF70BFF10BDC0461003002010B5024828
S3150800496CFFF704FF10BDC04610030020936810B56E
S3150800497C013B9360002B04DA9469A34207DB0A29EE
S3150800498C05D01368581C10601970080010BDFFF785
S3150800499CC5FD0100F9E7F8B506000F001400D51897
S315080049ACAC4201D1002007E021783A003000FFF72D
S315080049BCDDFF0134431CF3D1F8BD0000F0B5A1B0FE
S315080049CC0F0015001E000390002804D0036A002B64
S315080049DC01D1FFF7B3FC7B6EDB0705D4BB899B05BE
S315080049EC02D4B86DFFF7C1FEBB891B0702D53B691C
S315080049FC002B13D139000398FFF7D2FD00280DD0F0
S31508004A0C7B6EDB0703D50120404221B0F0BDBB8984
S31508004A1C9B05F8D4B86DFFF7A9FEF4E7002308AC9C
S31508004A2C6361203363761033A37607962E003378AA
S31508004A3C002B01D0252B48D1731B0593AE420BD006
S31508004A4C2A0039000398FFF7A6FF013000D1AFE022
S31508004A5C6369059A9B1863613378002B00D1A7E02C
S31508004A6C012200235242626004A954325218751C62
S31508004A7C2360E360A3601370A365594B05221800E5
S31508004A8C2978059300F088FB6E1C00281FD1226834
S31508004A9CD30604D5532304A95B18202119701307D0
S31508004AAC04D5532304A95B182B2119702B782A2BB0
S31508004ABC16D02E0000210A20E3683278751C303A8D
S31508004ACC092A4ED9002911D117E00136AFE7059B03
S31508004ADC2268C01A01238340134335002360CCE7B0
S31508004AEC079B191D1B680791002B01DB0B9304E030
S31508004AFC5B42E36002231343236033782E2B0AD1DF
S31508004B0C73782A2B35D1079B02361A1D1B68079218
S31508004B1C002B2BDB0993334D03222800317800F048
S31508004B2C3BFB002806D04023401B834022680136F5
S31508004B3C13432360317806222B48751C217600F026
S31508004B4C2BFB002843D0294B002B25D10722079B8A
S31508004B5C07339343083307936369049A9B18636175
S31508004B6C64E743432E0001219B18A6E701235B4209
S31508004B7CD0E700230A201A00013663603178751CC9
S31508004B8C3039092903D9002BC5D00992C3E742430A
S31508004B9C2E0001235218F1E707AA009221003A00C9
S31508004BAC134B039800E000BF0490049B0133D3D148
S31508004BBC7B6EDB0705D4BB899B0502D4B86DFFF762
S31508004BCCD5FDBB895B0600D51DE70D981DE707AA21
S31508004BDC009221003A00064B039800F07BF8E3E7B5
S31508004BECBC520008C2520008C65200080000000059
S31508004BFCA3490008F7B5160001938A680B690C00DF
S31508004C0C0090934200DA1300220033604332127884
S31508004C1C002A01D00133336023689B0602D533681A
S31508004C2C023333602268062315001D401A4227D02A
S31508004C3C230043331B785A1E93412268920630D4BC
S31508004C4C220001990098089D4332A847013025D0C7
S31508004C5C0622236800251340042B05D13368E56822
S31508004C6CED1AEB43DB171D40A3682269934201DD5D
S31508004C7C9B1AED180026B54220D1002010E001350C
S31508004C8CE36832689B1AAB42D2DD220001230199F4
S31508004C9C0098089F1932B8470130F0D101204042DC
S31508004CACFEBD3020E1184331087021005A1C4531ED
S31508004CBC0978A218433202331170C1E72200012386
S31508004CCC01990098089F1A32B8470130E6D0013688
S31508004CDCD1E70000F0B58BB006920A004332079371
S31508004CEC059004920A7E0C00109B782A09D8622A31
S31508004CFC0BD8002A00D1BEE07C490391582A00D172
S31508004D0C93E026004236327022E0100063381528EC
S31508004D1CF7D8FBF7F1F916001F00F6FFF6FFF6FFBA
S31508004D2CF6FF1F00F6FFF6FFF6FFF6FFA3003600A8
S31508004D3C8300F6FFF6FFB400F6FF3600F6FFF6FF23
S31508004D4C870026001A684236111D196013683370DD
S31508004D5C0123A2E018680968021D0D060BD5056823
S31508004D6C1A60002D03DA2D23049A6D4213705F4BDB
S31508004D7C0A2703931BE005681A604906F1D52DB27C
S31508004D8CEFE70D681968081D18602E0601D50D6821
S31508004D9C03E06D06FBD50D68ADB2544B082703939B
S31508004DAC6F2A00D002372300002243331A70636837
S31508004DBCA360002B03DB042122688A432260002DA2
S31508004DCC02D1049E002B0CD0049E28003900FBF758
S31508004DDC23FA039B013E5B5C33702B0005009F4254
S31508004DECF3D9082F09D12368DB0706D5626823692E
S31508004DFC9A4202DC3023013E3370049B9B1B2361D1
S31508004E0C079B210000930598069B09AAFFF7F2FE5B
S31508004E1C013047D1012040420BB0F0BD2022096871
S31508004E2C0A432260782232490391210045310A70DF
S31508004E3C1968226820C9100602D4500600D5ADB2EE
S31508004E4C1960D30702D52023134323601027002D9E
S31508004E5CA9D12022236893432360A4E71A680D6816
S31508004E6C101D4969186013682E0601D5196002E0F1
S31508004E7C6D06FBD519800023049E2361C0E71A68CA
S31508004E8C111D1960166800213000626800F084F95B
S31508004E9C002801D0801B6060636823610023049A94
S31508004EAC1370ADE73200236906990598079DA84744
S31508004EBC0130AFD023689B0715D4099BE06898424C
S31508004ECCAADA1800A8E72200012306990598079E76
S31508004EDC1932B04701309DD00135E368099A9B1AFF
S31508004EECAB42F0DCE9E70025F7E7C046CD520008EF
S31508004EFCDE520008F7B58B8905000C001A075CD43E
S31508004F0C4A68002A04DC0A6C002A01DC0020FEBD73
S31508004F1CE76A002FFAD0002280202E682A601A0031
S31508004F2C4001216A0240034234D0606DA3895B07B5
S31508004F3C06D56368C01A636B002B01D0236CC01AA4
S31508004F4C020000232800E76A216AB847A289431C95
S31508004F5C06D129681D292CD82A4B0B41DB0728D4E6
S31508004F6C0023636023692360D20405D5431C02D150
S31508004F7C2B68002B00D16065616B2E600029C5D0AB
S31508004F8C23004433994202D02800FFF7F1FB002096
S31508004F9C6063BCE701232800B847431CC6D12B68BD
S31508004FAC002BC3D01D2B01D0162B01D12E60ADE7DB
S31508004FBCA28940231343A381A9E70E69002EA5D025
S31508004FCC0F680E60BA1B019200229B0700D14A6932
S31508004FDCA260019B002B99DDA36A32001F002800F2
S31508004FEC019B216AB847002806DC40230120A289C8
S31508004FFC40421343A3818AE7019B36181B1A019377
S3150800500CE7E7C046FEFFBFDF0B6970B505000C006D
S3150800501C002B02D10025280070BD002804D0036A95
S3150800502C002B01D1FFF78AF90C22A35E002BF1D0D5
S3150800503C626ED20704D49B0502D4A06DFFF795FBCC
S3150800504C28002100FFF756FF636E0500DB07E2D444
S3150800505CA3899B05DFD4A06DFFF788FBDBE700006F
S3150800506C70B50E001D000E23C95E140096B00029FB
S3150800507C0CDAB2898023110019401A4213D0002188
S3150800508C403B00202960236016B070BD6A4600F0CC
S3150800509C4DF80028EDDBF02301991B021940034B50
S315080050ACC9184B4259418023DB00EAE700E0FFFFB1
S315080050BCF7B502268B8905000C00334206D023006F
S315080050CC47332360236101236361F7BD6A4601AB4D
S315080050DCFFF7C6FF009907002800FFF7B5FB002865
S315080050EC08D10C22A35E9A05EFD4032293431E43E0
S315080050FCA681E4E78023A28920601343A381009B41
S3150800510C20616361019B002B0CD028000E23E15E05
S3150800511C00F01EF8002805D00323A2899A43023B07
S3150800512C1343A381A3893B43A381CEE7002370B520
S3150800513C064D0400080011002B60FBF7B2FC431C5B
S3150800514C03D12B68002B00D0236070BD0C03002004
S3150800515C002370B5064D040008002B60FBF7AFFC66
S3150800516C431C03D12B68002B00D0236070BDC046AE
S3150800517C0C030020002370B5064D040008002B60B4
S3150800518CFBF7B2FC431C03D12B68002B00D0236021
S3150800519C70BDC0460C030020C9B28218904201D1DA
S315080051AC0020704703788B42FBD00130F6E70000ED
S315080051BCF8B5C046F8BC08BC9E467047F8B5C0465C
S30D080051CCF8BC08BC9E467047BA
S315080051D46E756D3A25642C76657273696F6E3A2519
S315080051E4640A0000476574436F6D6D616E643A0026
S315080051F4307825780A000000476574436F6D6D6141
S315080052046E6420537563636573732100476574433D
S315080052146F6D6D616E64206661696C210000000023
S31508005224000000000000000000000000000000006C
S31508005234000000000000000000000000000000005C
S315080052440100000002000000030000000400000042
S31508005254060000000700000008000000090000001E
S31508005264000000000000000000000000000000002C
S315080052740100000002000000030000000400000012
S315080052840001020304050607080C10141820304010
S31508005294010002000400060008000A000C001000C1
S315080052A420004000800000010101010307010000FD
S315080052B40804020408010101232D302B2000686C20
S315080052C44C00656667454647003031323334353617
S315080052D43738394142434445460030313233343550
S311080052E43637383961626364656600007D
S30D080052F054B1FF7F0100000024
S309080052F8E5000008B7
S309080052FCBD000008DB
S315080053000024F40004000000010000000000000072
S3150800531003000000D001002000000000D00100209A
S3150800532038020020A0020020000000000000000053
S31508005330000000000000000000000000000000005F
S31508005340000000000000000000000000000000004F
S31508005350000000000000000000000000000000003F
S30D080053600000000018000020FF
S70508000CDD09
