:020000040800F2
:10000000004002201D0900087D0700087F07000846
:1000100000000000000000000000000000000000E0
:100020000000000000000000000000008107000840
:10003000000000000000000083070008850700089A
:100040006D0900086D0900086D0900086D090008B8
:100050006D0900086D0900086D0900086D090008A8
:100060006D0900086D0900086D0900086D09000898
:100070006D0900086D0900086D0900086D09000888
:100080006D0900086D0900086D0900086D09000878
:100090006D0900088D0700086D0900086D0900084A
:1000A0006D0900086D0900086D0900086D09000858
:0C00B0006D0900086D0900086D090008CA
:1000BC0010B5064C2378002B07D1054B002B02D032
:1000CC00044800E000BF0123237010BD680000202D
:1000DC0000000000C8280008044B10B5002B03D00A
:1000EC000349044800E000BF10BDC04600000000FA
:1000FC006C000020C8280008002243088B4274D3EF
:10010C0003098B425FD3030A8B4244D3030B8B420C
:10011C0028D3030C8B420DD3FF22090212BA030C15
:10012C008B4202D31212090265D0030B8B4219D3F6
:10013C0000E0090AC30B8B4201D3CB03C01A524116
:10014C00830B8B4201D38B03C01A5241430B8B425E
:10015C0001D34B03C01A5241030B8B4201D30B0347
:10016C00C01A5241C30A8B4201D3CB02C01A52416E
:10017C00830A8B4201D38B02C01A5241430A8B4231
:10018C0001D34B02C01A5241030A8B4201D30B021A
:10019C00C01A5241CDD2C3098B4201D3CB01C01A34
:1001AC00524183098B4201D38B01C01A524143093E
:1001BC008B4201D34B01C01A524103098B4201D32C
:1001CC000B01C01A5241C3088B4201D3CB00C01A99
:1001DC00524183088B4201D38B00C01A5241430811
:1001EC008B4201D34B00C01A5241411A00D2014636
:1001FC00524110467047FFE701B5002000F0F0F8BF
:10020C0002BDC0460029F7D076E7704703460B4382
:10021C007FD4002243088B4274D303098B425FD3F3
:10022C00030A8B4244D3030B8B4228D3030C8B421F
:10023C000DD3FF22090212BA030C8B4202D3121205
:10024C00090265D0030B8B4219D300E0090AC30BDA
:10025C008B4201D3CB03C01A5241830B8B4201D387
:10026C008B03C01A5241430B8B4201D34B03C01A70
:10027C005241030B8B4201D30B03C01A5241C30AE8
:10028C008B4201D3CB02C01A5241830A8B4201D359
:10029C008B02C01A5241430A8B4201D34B02C01A43
:1002AC005241030A8B4201D30B02C01A5241CDD2E8
:1002BC00C3098B4201D3CB01C01A524183098B4233
:1002CC0001D38B01C01A524143098B4201D34B011C
:1002DC00C01A524103098B4201D30B01C01A52417F
:1002EC00C3088B4201D3CB00C01A524183088B4206
:1002FC0001D38B00C01A524143088B4201D34B00EF
:10030C00C01A5241411A00D2014652411046704760
:10031C005DE0CA0F00D04942031000D34042534065
:10032C0000229C4603098B422DD3030A8B4212D325
:10033C00FC22890112BA030A8B420CD38901921157
:10034C008B4208D3890192118B4204D389013AD094
:10035C00921100E08909C3098B4201D3CB01C01A69
:10036C00524183098B4201D38B01C01A524143097C
:10037C008B4201D34B01C01A524103098B4201D36A
:10038C000B01C01A5241C3088B4201D3CB00C01AD7
:10039C00524183088B4201D38B00C01A5241D9D2EF
:1003AC0043088B4201D34B00C01A5241411A00D270
:1003BC000146634652415B10104601D34042002B6C
:1003CC0000D54942704763465B1000D3404201B5EB
:1003DC00002000F005F802BD0029F8D016E77047A0
:1003EC007047C046C0221148114B920070B50121D4
:1003FC00826008220C2402250360002342610182E2
:10040C00053A4360C36083748261C46102624562D1
:10041C008262C462026341638363C36300F05EFB68
:10042C00002801D000F088F970BDC046840000207F
:10043C000064004010B504009AB01422002102A8F8
:10044C0001F060FF4C22002107A801F05BFF1B4B61
:10045C0022689A422FD1802307A89B04079301F0AE
:10046C00F9F8002801D000F067F98021144B4901FC
:10047C00DA6B00240A43DA63DA6B12480A4008216B
:10048C000092009A5A6B0A435A635B6B02220B4030
:10049C000193019B032302A90293039206930494F4
:1004AC00059400F08FFE15202200210000F0C6FA02
:1004BC00152000F0EDFA1AB010BDC04600640040E3
:1004CC0000100240000C0050F0B58BB0142200213B
:1004DC0005A801F017FF20210125284BA0275A6BF6
:1004EC00274C0A435A635A6B264E0A400092009AD4
:1004FC005A6B1E392A435A635A6BFF052A400192E4
:10050C00019A5A6B38000A435A635A6B0A4002929A
:10051C00029A5A6B02310A435A635A6B0A4003928D
:10052C00039A5A6B04310A435A635B6B00220B40EB
:10053C0004932100049B00F08BFE002230008021EC
:10054C0000F086FE05940024380005A90695079452
:10055C00089400F037FE4023300005A9059306945B
:10056C00079500F02FFE8023300005A90593069512
:10057C000794089400F026FE0BB0F0BD001002406A
:10058C000382000000080050012307B55B42019074
:10059C000122034801A901F0BFF901980EBDC04624
:1005AC000401002010B594B03C22002105A801F0F4
:1005BC00A9FE1022002101A801F0A4FE80208000D9
:1005CC0000F04CFE80235B000893002309930F93EB
:1005DC000833109380239B02119380239B04129366
:1005EC008023022440229B0505A805940A920D94B1
:1005FC000E94139300F05EFE002801D072B6FEE755
:10060C00072303900490210001A80193029400F0A9
:10061C005FFF002801D072B6FEE714B010BD0000D9
:10062C00F0B50024D5B000F0C5F9FFF7BBFF2100F1
:10063C00FC2215A8149401F065FE21003C2205A8AB
:10064C00049401AE01F05EFE0522374902A801F0C8
:10065C00DCFE3480FFF738FFFFF7C4FE00F0E0F853
:10066C00324801F053FD01F023FB642000F0C8F97F
:10067C00142304AD73702F002B0006345C7001340E
:10068C00E4B202331A2CF9D12900300001F0C4FB7A
:10069C00142373702B005C700134E4B202332E2CE3
:1006AC00F9D12900300001F0B7FB122373706C7084
:1006BC000134E4B20235402CF9D1390030008025E8
:1006CC0001F0AAFB1A4C6D002A00002114A801F0BD
:1006DC0019FE2300013414AAFF341968117019682B
:1006EC00090A51701968090C917002CB090ED1706E
:1006FC0004329C42F1D114A902A801F051FB6B46C3
:10070C009B7A02A9FF2B02D14A7801324A706A46C1
:10071C0001339372074B9C42D6D1FA20800000F033
:10072C006FF901F0ABFBFEE7E0280008E5280008B4
:10073C0000300008001C010872B6FEE707B5012165
:10074C000A4BC0201A6CC0000A431A641A6C0A4087
:10075C0080210092009ADA6B49050A43DA63DB6B5D
:10076C000B400193019B00F05DF907BD00100240A6
:10077C00FEE7FEE77047704710B500F02FF910BD8B
:10078C0010B5024800F06BFC10BDC0468400002080
:10079C0070B50E0014000025A54201DB200070BDD1
:1007AC0000E000BF70550135F6E770B50E0014007F
:1007BC000025A54201DB200070BD705DFFF7E4FE53
:1007CC000135F6E701204042704780239B01002051
:1007DC004B60704701207047002070470B490C4A52
:1007EC000300521A0B4910B50868002801D10A48B9
:1007FC0008600868C318934206D901F0D9FD0C2390
:10080C0003600120404210BD0B60FCE700040000B7
:10081C0000400220000100208003002070470000EF
:10082C0010B5184B184C0C222360E1235B0263605B
:10083C0000232000A360E36023616261A361E36194
:10084C0023626362A36201F037F9002801D0FFF73D
:10085C0073FF0021200001F0A9F9002801D0FFF757
:10086C006BFF0021200001F0C1F9002801D0FFF737
:10087C0063FF200001F07CF9002801D0FFF75CFF3A
:10088C0010BDC046004800400401002010B5040013
:10089C009AB01422002102A801F034FD4C22002150
:1008AC0007A801F02FFD174B22689A4227D1042389
:1008BC0007A8079300F0CEFE002801D0FFF73CFFFD
:1008CC008021114BC902DA6B10480A43DA63DA6BE8
:1008DC000A400092009A0222596B114359635B6BD8
:1008EC0002A913400193019BC0231B010293002317
:1008FC000493059304330392069300F063FC1AB03F
:10090C0010BDC046004800400010024000040050DA
:10091C000D488546FFF782FF0C480D490D4A002310
:10092C0002E0D458C4500433C4188C42F9D30A4A98
:10093C000A4C002301E013600432A242FBD301F005
:10094C003DFDFFF76DFEFEE7004002200000002099
:10095C0068000020082A000868000020800300209E
:10096C00FEE7000070B5104B05001978002901D185
:10097C00012070BDFA208000FFF7BEFB0B4C01007C
:10098C002068FFF7B9FB00F08FF8041EF0D1032D9F
:10099C00EED8020001202900404200F04FF8044B31
:1009AC0020001D60E5E7C046040000200000002088
:1009BC00080000208023084A5B00116810B50B4327
:1009CC0003201360FFF7CEFF041E03D1FFF7B6FE22
:1009DC00200010BD0124FBE700200240034A044B19
:1009EC0011681B785B1813607047C0469801002093
:1009FC0004000020014B18687047C0469801002085
:100A0C0070B50400FFF7F6FF0500631C02D0044B21
:100A1C001B78E418FFF7EEFF401BA042FAD370BD21
:100A2C0004000020034A044913680B40034313607D
:100A3C007047C04600000140FFF9FFFF30B5FF25AD
:100A4C0003242A000440E400A24089012940D24337
:100A5C00A140C3B200280ADBC0240B4B80088000E5
:100A6C00C018A400035913400B43035130BD0F2091
:100A7C000340083B05489B089B001B18D8690240A3
:100A8C000A43DA61F2E7C04600E100E000ED00E065
:100A9C00002805DB1F2318401E3B8340014A1360CE
:100AAC007047C04600E100E08022431E5204012042
:100ABC0093420DD2C021074A07485360036A0906C6
:100ACC001B021B0A0B430362002007239060136078
:100ADC007047C04610E000E000ED00E070B5050086
:100AEC005C352B780400DAB2002B04D103005D33A3
:100AFC001A70FFF79FFC102123689A698A439A6148
:100B0C00082299691142FCD101219A690A439A6120
:100B1C009A690A42FCD0022299690A439A614F4AA7
:100B2C00934202D161684E4A1160217C4022012916
:100B3C0000D086E0996991439961627C012A00D0CA
:100B4C0083E080229969D2010A439A61A27C012A2E
:100B5C0000D07EE09A6943490A409A619A694248FA
:100B6C00A1680240A4200A439A619A6982439A615F
:100B7C001A69943882431A61E069A2690138013A12
:100B8C00000252060243206A0138024360690138B0
:100B9C0000040243DA61C022920091420ED1E26A53
:100BAC00216B013A0139090112020A43A16A013988
:100BBC000A43616A013909040A43DA601900C03139
:100BCC000A68E06B294E02430A60294A9A18511EA2
:100BDC008A41284952420A4027490433D86F521897
:100BEC00616B3040090401432264D96711007031F4
:100BFC00D86F6164214EA16B304009060143D9675F
:100C0C001300B033A364D833E36498239B00D31848
:100C1C0023659E239B00D3186365D4239B00D018B7
:100C2C00111DD423884200D2D33B00219B009B187A
:100C3C0002C29A42FCD101230020A16521662B70CF
:100C4C0070BD99690A439A6177E79A690C490A4021
:100C5C007BE78022996952010A437EE700640040D9
:100C6C0000650040FFEFFFFFFFFCFFFFFFFFE0FF11
:100C7C000098FFBFB0FCFFFF50B70040FFFFFFF034
:100C8C00FFBFFFFF0300F0B55C331B780700013B8F
:100C9C00012B1AD88C68CB680D694E69A40705C95D
:100CAC00002808D1DB062343396C33432D04920012
:100CBC002B435350F0BD796CD2005B0752182B4379
:100CCC003443002013605460F4E70223026E134394
:100CDC0003660120EEE703005C331B78012B05D182
:100CEC000368002009021143996470470423026EC3
:100CFC00134303660120F8E703005C331B78012BD8
:100D0C0007D1802302680020D1681B040B43D360F9
:100D1C0070470423026E134303660120F8E70200B8
:100D2C005C3211780300C8B2012908D1013111706D
:100D3C0019688A69824300208A6118667047042208
:100D4C00196E01200A431A66F8E700000300F7B594
:100D5C005C331B78022B58D105682B00C4331C68FC
:100D6C00A40206D58023026E9B0013430366012068
:100D7C0036E01C680F69A403A30F4C6800938E68BF
:100D8C000B68002C2DD137439B048E691F43CB6914
:100D9C00009C33434E6933430E6A36063343CE68A8
:100DAC003604334348266643446DA4466644736058
:100DBC000823376037005B429E1B154B08370193A5
:100DCC00CC68A4466346019CE35C9C46BB19634516
:100DDC000CD30123009ACC3593402B608365002003
:100DEC00FEBD3B4380273343FF05CEE7D3781B067C
:100DFC009C46644693781B0423431478234354780D
:100E0C0004322402234308C7DAE70823026EACE756
:100E1C004C290008F7B5040001935C342478022CAB
:100E2C0000D080E00F26046840295BD12700903762
:100E3C003D68354206D18023026E5B001343036686
:100E4C0001204EE00126B44663463D682D0E2E402F
:100E5C001D4203D00434E66F760A1E4048243D68D8
:100E6C00AD05AD0FAD196C43866CA41980262768AF
:100E7C00F605374057602668F600002F4AD1760DEC
:100E8C00802716602668BF053E408027966026683E
:100E9C007F03F60FF60716616668244BB6B2D6616F
:100EAC0066689C463603360FD66066683E408027DF
:100EBC0056616668BF033E40966166687600760EA2
:100ECC00166266680834F60F566200266346D768C9
:100EDC00DF5DB74220D80368402922D1943300202B
:100EEC001D60FEBD250098352F683742A3D02E68B3
:100EFC000127330E1E003E403B4203D00434E66F04
:100F0C00360A3E4048242D68AD05AD0FAD196C4333
:100F1C00C66CAAE7F608B3E7A75D019B9F5501369F
:100F2C00D4E79C33DBE70823026E87E74C290008E3
:100F3C0003680F20402903D190331B681840704779
:100F4C009833FAE70368C4331868072318407047CE
:100F5C00030070B55C331B78013B012B00D96DE0AD
:100F6C0007240D0000682540836D214201D0DC0769
:100F7C0022D53824214201D09C071DD5E0246400E1
:100F8C00214201D05C0717D5F0246401214201D025
:100F9C001C0711D5E0242402214201D0DC060BD51C
:100FAC00C024A402214201D09C0605D5FC242404B3
:100FBC00214205D05C0603D40124C66D3443C465BC
:100FCC00002D01D0DC0722D43824214201D09C070B
:100FDC001DD4E0246400214201D05C0717D4F02416
:100FEC006401214201D01C0711D4E02424022142C7
:100FFC0001D0DC060BD4C024A402214201D09C06F3
:10100C0005D4FC242404214205D05B0603D502231D
:10101C00C46D2343C3650B0604D50400DC3423687C
:10102C0013432360CB0504D50400E0342368134339
:10103C002360436D0B434365002070BD0223026E99
:10104C00134303660120F8E77047704770477047F9
:10105C007047704770477047704770477047036818
:10106C00F0B51A6D5F6D196D1740E02252011740F3
:10107C005A6D85B00A4007210A400092196D5A6DCD
:10108C0004000A4038210A400192196D5A6D0A4039
:10109C00F12109040A400292196D5A6D5D6D0A40E6
:1010AC00E02109030A40039240221E6D164204D02F
:1010BC00154202D01A65FFF7CFFF8022520016426C
:1010CC000CD015420AD023681900D83108680831B1
:1010DC0009681A6501402000FFF7BBFF002F05D0FF
:1010EC002368390020001F65FFF7AEFF009B002B23
:1010FC0006D0009A2368110020001A65FFF7A5FF9F
:10110C00019B002B06D0019A2368110020001A6560
:10111C00FFF79CFF80239B001E4206D01D4204D08B
:10112C00226820001365FFF792FF802216420CD034
:10113C0015420AD023681900D431086808310968AF
:10114C001A6501402000FFF783FF80239B011E429C
:10115C0006D01D4204D0226820001365FFF77AFFE9
:10116C0080231B021E4206D01D4204D022682000A0
:10117C001365FFF770FF8023DB011E4207D01D4271
:10118C0005D0226813658023226E13432366039BCC
:10119C00002B06D0039A2368110020001A65FFF774
:1011AC005DFF029B002B05D02368029A1A65236E03
:1011BC0013432366236E002B02D02000FFF74DFF54
:1011CC0005B0F0BDF7B500220B681C00D44000D16F
:1011DC00F7BD01249440A446234237D00325560082
:1011EC00B5400324ED434B6801951C40651E012D51
:1011FC000FD88768019D1B092F40CD68B5403D4332
:10120C00674685604568BD4301273B4093402B43AF
:10121C004360022C14D107270F251740BF00BD4097
:10122C00AC46D3089B00C31800931B6A1D00634691
:10123C009D43AC460D696346BD401D43009B1D623A
:10124C00B4400368019D1D402C4304600132BBE790
:10125C00002A01D0816170478162FCE710B5114C06
:10126C001149236802000B400343236080230020B4
:10127C009B009A420ED10D4B0D491868062358431A
:10128C00FEF73AFF8022431CD2006169080010402F
:10129C00114200D110BD002B01D0013BF5E703201A
:1012AC00F8E7C04600700040FFF9FFFF0000002087
:1012BC0040420F00F8B5036805009B074ED5382255
:1012CC00574CA3681340E268102B0BD103210A4042
:1012DC00022A09D12268520524D5EA68002A21D1B4
:1012EC000120F8BD002BF5D0EB68002B42D0236811
:1012FC004C4A802713402A69FF0013432360802344
:10130C0022685B0013432360FFF774FB060023681D
:10131C003B4228D062686B6943491B020A40134365
:10132C0063601BE061686A693F48120201400A432E
:10133C006260002B0CD123683A4A3C4913402A695D
:10134C001343236023683A4A9B045B0FDA400A601C
:10135C00384B1868FFF706FB0028C1D12A6A002A0F
:10136C001AD10020BDE7FFF745FB801B0228CED920
:10137C000320B6E72368304A802713402360FFF729
:10138C0039FB0600FF0023683B42E7D0FFF732FB36
:10139C00801B0228F7D9EBE73820214B99680140D4
:1013AC00102938D0802125488904022A26D11A68B0
:1013BC0002401A601A680A42FCD1A86A6A6AD968A3
:1013CC0002431F4801400A43296B0A43696B0A43D5
:1013DC00A96B0A43E96A09020A43DA608022196898
:1013EC0052040A431A608022D96852050A43DA6013
:1013FC008022920419681142FCD0B2E71A680240AC
:10140C001A601A68100008400A42FAD1DA680D49CD
:10141C000A40DA6065E7012A00D161E7DB68A0E7E2
:10142C0000100240FFC7FFFFFF80FFFF00000020FD
:10143C000024F40008000020FFFEFFFFFFFFFFFE6A
:10144C008C80C111FCFFFEEE382370B51D4CA268D8
:10145C001A4205D123681C489B045B0FD84070BD11
:10146C00A2681A40082A27D0A2681A40102A17D15D
:10147C00E368E168DB43E5684906490F6F322D0AE2
:10148C00013115409B0709D11048FEF735FEE16884
:10149C006843490F0131FEF72FFEE0E70A48F4E7F5
:1014AC00A2681A40202A09D0A26800201340182BE9
:1014BC00D5D1FA20C001D2E70448D0E78020000241
:1014CC00CDE7C046001002400024F40000127A0060
:1014DC00F7B504000D00002801D10120FEBD07273F
:1014EC004A4E33683B408B422AD3226893073BD445
:1014FC00D20748D4072733683B40AB420AD933683C
:10150C00BB432B433360FFF775FA019033683B40C4
:10151C00AB426BD123683E4D5B076FD4FFF794FF52
:10152C00AB683C491B051B0F9B005B581F210B40F4
:10153C00D840394A394B10601868FFF713FACDE7D9
:10154C003368BB430B433360FFF754FA01903368A5
:10155C003B40AB42C9D0FFF74DFA019BC01A304B50
:10156C009842F4D90320B9E72949530704D5E0235D
:10157C008868DB0103438B608B682A480340A068B2
:10158C0003438B60B4E76268214F012A19D13B6891
:10159C009B03A2D50721BB688B431343BB60FFF7AA
:1015AC0029FA01903823BA681A406368DB009A4222
:1015BC00A0D0FFF71FFA019BC01A194B9842F1D922
:1015CC00D0E7022A03D13B689B01E3D485E7002ACC
:1015DC0003D13B685B05DDD47FE70223032A03D1EB
:1015EC00396E1942D6D178E7F96DFAE7FFF702FAAE
:1015FC00019BC01A0A4B984288D9B3E7AB680A4AD8
:10160C001340E2681343AB6088E7C04600200240F9
:10161C0000100240EC280008000000200800002008
:10162C0088130000FFF0FFFFFF8FFFFF064B0749F9
:10163C009B68074A5B045B0F9B005B581F2110687B
:10164C000B40D8407047C046001002402C290008BF
:10165C0000000020026810B5530706D530240D4950
:10166C004B6DA343C46823434B6592010FD5094AC4
:10167C00816C936D084803400B43936580235B009A
:10168C00994204D18023D1685B040B43D3600020C2
:10169C0010BDC04600100240FFFCFFFF30B5EFF359
:1016AC001084012282F310880168134D0B682B40C3
:1016BC000B6084F31088EFF3108182F310880268BA
:1016CC000E4C93682340936081F31088C36E012BFA
:1016DC000AD1EFF3108183F3108810240268136889
:1016EC00A343136081F31088030020228C331A600B
:1016FC000023C366436730BDDFFEFFFFFEFFFFEF35
:10170C0070B5040003688268006919680243606957
:10171C000243E06902431F4801400A431A605A68B9
:10172C001D490A40E1680A435A601C4AA169934268
:10173C0004D01B4A934201D0226A11439A6819487B
:10174C0002400A430F219A60DA6A8A43616A0A43AB
:10175C00DA62FFF76BFF0022904214D0626A124BE0
:10176C005200D15AFEF7C8FC65686B082900C018F6
:10177C00FEF7C2FC0D49030010380122884202D842
:10178C002268D36000220A4B1000A3660023636713
:10179C00A36770BDF369FFCFFFCFFFFF0080004050
:1017AC0000840040FFF4FF115C290008EFFF0000EB
:1017BC0001000100836A30B51A0706D50168284C70
:1017CC004A682240846B22434A60DA0706D50168D6
:1017DC00244C4A682240C46A22434A609A0706D5C0
:1017EC000168214C4A682240046B22434A605A0724
:1017FC0006D501681D4C4A682240446B22434A605E
:10180C00DA0606D501681A4C8A682240C46B22435A
:10181C008A609A0606D50168164C8A682240046CC8
:10182C0022438A605A0610D50168134D4A68446CED
:10183C002A4022434A6080225203944205D14A68CE
:10184C000E4C2240846C22434A601B0606D502686B
:10185C000B4953680B40C16C0B43536030BDC04601
:10186C00FF7FFFFFFFFFFDFFFFFFFEFFFFFFFBFF03
:10187C00FFEFFFFFFFDFFFFFFFFFEFFFFFFF9FFF0C
:10188C00FFFFF7FFF7B504000D0017000093226867
:10189C00D3692B405B1B59424B41BB4201D000200A
:1018AC0027E0089B0133F3D0FFF7A4F8009BC01A84
:1018BC00089B98422ED8002B2CD0042123681A6840
:1018CC000A42E4D02A003C31403A8A43DFD0DA693C
:1018DC00082611003140019132420BD020001E62CB
:1018EC00FFF7DCFE230090331E60002301208434BC
:1018FC002370FEBD8022D96912011142C7D01A6231
:10190C002000FFF7CBFE2300202290331A60019BAE
:10191C00843423700320ECE7F0B51600020085B088
:10192C0088320393136804000D000220202B3AD157
:10193C000138002937D0002E35D08023A1685B01F7
:10194C00994204D12369002B01D105422BD12300EC
:10195C0000219033196021231360FFF74BF823000B
:10196C0054331E8002331E8002938023A26807002A
:10197C0000265B019A4204D12369B34201D12E00A7
:10198C001D00230056331B889AB2002B0DD1039BEC
:10199C002000009340213B00FFF774FF2023883484
:1019AC00236000280ED105B0F0BD039B00220093EC
:1019BC0080213B002000FFF765FF002804D0202386
:1019CC00883423600320EEE72268002D0BD1338886
:1019DC000236DB05DB0D9362029B029A1B88013BEE
:1019EC009BB21380CDE72B7801359362F4E70000AE
:1019FC00030073B50026040090331E60FEF7FAFF57
:101A0C00236805001B681B071FD58021284B32005B
:101A1C000093890303002000FFF734FFB04214D079
:101A2C00EFF31081012383F3108880202268136860
:101A3C008343136081F310882300202288331A60BB
:101A4C00032000238434237076BD260023688C3653
:101A5C001B685B0723D58021154B002200932000C7
:101A6C002B00C903FFF70EFF002818D0EFF31080EE
:101A7C00012282F3108821680E4D0B682B400B60FD
:101A8C0080F31088EFF3108082F3108821688B6844
:101A9C0093438B6080F3108820233360D0E72300BE
:101AAC002022002088331A603260E0662067C8E785
:101ABC00FFFFFF01DFFEFFFF70B5041E01D1012007
:101ACC0070BD050088352B68002B04D102008432D0
:101ADC001370FEF7DBFE2423012122682B601368B0
:101AEC008B431360A36A002B02D02000FFF762FE29
:101AFC002000FFF705FE0128E1D0236807495A684A
:101B0C0020000A402A215A609A688A439A6001226E
:101B1C0019680A431A60FFF76BFFD1E7FFB7FFFFA5
:101B2C00F7B50700436E04006A37002B04D101207F
:101B3C00388068342080F7BD03680B4E9A689B6828
:101B4C000A4D5B0FF05CE95CC0000192FEF75EFB96
:101B5C00019B38801B015B0FF05CE95CC000FEF759
:101B6C0055FB80B2E5E7C0467C29000874290008C3
:101B7C0070B504008434227803000220012A11D0AD
:101B8C001D002422012688352A601A681168106805
:101B9C00B0431060044801400020586620231160B7
:101BAC002B60207070BDC046FFFFFFDFF8B505004D
:101BBC0084350B0029780222012915D00600012159
:101BCC000468883622323260276822688A43226091
:101BDC00A168C900C9081943A160FFF7A1FF202320
:101BEC000022276033602A701000F8BDF8B505009C
:101BFC0084350A0029780223012915D00600012119
:101C0C000468883622333360276823688B4323604B
:101C1C00A168064B19401143A160FFF781FF2023F7
:101C2C002760336000232B701800F8BDFFFFFFF115
:101C3C0010B5012280210548FFF70AFB8021A02066
:101C4C0001220902C005FFF703FB10BD000800507C
:101C5C000023144910B50B604B6002338B60013BC1
:101C6C00CB601223104CFF330B61104B20004B61E7
:101C7C00FFF708F8002801D0FEF75EFD636AE16A01
:101C8C00002220005943FFF726F8002801D0FEF768
:101C9C0053FD2000FFF730F8002801D0FEF74CFD73
:101CAC0010BDC046E800002084000020FF070000A3
:101CBC0010B5FFF7CDFFFFF7BBFF0520FEF7A0FE29
:101CCC00154C002201212000FFF742F9002801D019
:101CDC00FEF732FD2000FFF722F8002801D0FEF7B6
:101CEC002BFD0F210D4B0E4AD96080211A608022EA
:101CFC0049035961D20580215A60002289039A60F8
:101D0C001A619961DA611A62064B1A60064B1A6005
:101D1C00064B1A6010BDC046840000209C010020B8
:101D2C0011F1FF002C020020C00100203002002025
:101D3C0070B505000B4EF1600B4C2000FFF702F95B
:101D4C000028F9D031002A002000FEF7FFFF802187
:101D5C00236889001A6D0A42FCD01A6D0A401A6574
:101D6C0070BDC0469C0100208400002013B50023E8
:101D7C006A46D371084C40212000FFF7D9F800289F
:101D8C00F8D06B4640212000044A0733FFF742F895
:101D9C006B46D87916BDC04684000020C4010020D3
:101DAC0070B5174B174D0C0005212B60FFF7C0FFCA
:101DBC00154B2B60FFF7DAFF79231840984215D1A9
:101DCC00651CFF3520000F21FFF7B2FF40340120C6
:101DDC00FEF716FEAC42F5D1FFF7C8FF7923184089
:101DEC00984202D1094800F091F970BDFFF7BEFF8F
:101DFC00C043C00601D10648F5E70648F3E7C046E4
:101E0C0031FFFF009C01002011F1FF00AF290008F9
:101E1C00C4290008A929000870B5124B124C0D00FA
:101E2C0002212360FFF784FF104B2360FFF79EFF16
:101E3C0079240440792C0CD10F212800FFF778FF6E
:101E4C00FFF794FF2040792802D1094800F05EF991
:101E5C0070BDFFF78BFFC043C00601D10548F5E705
:101E6C000548F3E744FFFF009C01002011F1FF003F
:101E7C00D6290008C4290008A929000813B5104B5D
:101E8C00104A0193104B042101A81A607924FFF722
:101E9C004FFFFFF76BFF0440792C08D1FFF766FF6B
:101EAC002040792802D1094800F030F913BDFFF722
:101EBC005DFFC043C00601D10548F5E70548F3E7CF
:101ECC000800300021FFFF009C010020EB290008D6
:101EDC00F7290008A9290008002310B504000360A5
:101EEC004360836081814366C28103614361836186
:101EFC00190008225C3000F005FA0B4B2462636277
:101F0C000A4BA3620A4BE3620A4B23630A4B9C42C3
:101F1C0005D00A4B9C4202D0094B9C4203D12000B5
:101F2C00583000F06FFA10BD2D2100085521000823
:101F3C008D210008B9210008340200209C020020E9
:101F4C000403002010B5034A0349044800F06CF860
:101F5C0010BDC0460C0000203927000818000020D6
:101F6C0041680B4B10B50400994201D000F0DEFB28
:101F7C00A168084B994202D0200000F0D7FBE16821
:101F8C00054B994202D0200000F0D0FB10BDC0469A
:101F9C00340200209C0200200403002010B5094BE1
:101FAC00094A04211A6009480022FFF795FF012213
:101FBC0009210748FFF790FF022212210548FFF77D
:101FCC008BFF10BD6C030020511F00083402002051
:101FDC009C0200200403002010B5024800F013FA04
:101FEC0010BDC0467503002010B5024800F00CFA75
:101FFC0010BDC0467503002010B50400FFF7ECFFC0
:10200C00236A002B02D0FFF7EFFF10BD044B2362B5
:10201C00044B1B68002BF6D1FFF7C0FFF3E7C0465B
:10202C006D1F00086C030020F7B51400002600900B
:10203C000191A5686768013F04D52468002CF8D18C
:10204C003000FEBDAB89012B08D90E22AB5E0133EB
:10205C0004D029000098019B984706436835EAE7AD
:10206C00036A70B505000E008468002B01D1FFF7E0
:10207C00C3FF636EDB0705D4A3899B0502D4A06D57
:10208C0000F0C1F9A3891B0702D52369002B1FD1CE
:10209C002100280000F0D2F8002819D001256D424B
:1020AC00636EDB0705D4A3899B0502D4A06D00F0F9
:1020BC00ABF9280070BD0136A360002B04DAA269CD
:1020CC009A4216DC0A2914D023685A1C2260197013
:1020DC00A3683178013B0029EDD1A360002B0FDA06
:1020EC00280022000A3100F067F80A250130D7D108
:1020FC00D4E72200280000F05FF80130E8D1CDE7EA
:10210C000A2523685A1C22601D70C9E710B5034BC1
:10211C0001001868FFF7A4FF10BDC0466400002042
:10212C0070B50C000E25495F00F01AF9002803DB8E
:10213C00636D1B18636570BDA389024A1340A381AC
:10214C00F9E7C046FFEFFFFFF8B51F008B890500CC
:10215C000C001600DB0505D50E23C95E00220223F8
:10216C0000F0EAF8A389054A28001340A381320045
:10217C000E23E15E3B0000F007F9F8BDFFEFFFFF17
:10218C0070B50C000E25495F00F0D6F8A389421CEF
:10219C0003D1054A1340A38170BD80225201134321
:1021AC00A3816065F8E7C046FFEFFFFF10B50E2373
:1021BC00C95E00F0AFF810BDF8B506000D001400B4
:1021CC00002804D0036A002B01D1FFF715FFA36987
:1021DC00A360A3891B0728D52369002B25D023696D
:1021EC002068EFB2C01A6369EDB2834205DC2100AE
:1021FC00300000F09BFA00281DD1A3680130013B90
:10220C00A36023685A1C22601F706369834204D048
:10221C00A389DB0707D50A2D05D12100300000F07A
:10222C0085FA002807D12800F8BD2100300000F005
:10223C0005F80028D3D001256D42F4E7304B70B57A
:10224C00050018680C00002804D0036A002B01D18B
:10225C00FFF7D2FE0C23E25E93B2110723D4D9060A
:10226C0007D4092301202B6037331343A381404249
:10227C0070BD5B0713D5616B002908D02300443374
:10228C00994202D0280000F0C9F80023636324228D
:10229C00A3899343A38100236360236923600823EC
:1022AC00A2891343A3812369002B0BD1A021802287
:1022BC00A389890092000B40934203D0210028008F
:1022CC0000F088FA0C22A35E01201A0099B2024099
:1022DC0003420FD00022A26062695242A261002028
:1022EC0022698242C4D10906C2D540221343A3817C
:1022FC000138BDE7880700D46269A260EFE7C046E9
:10230C006400002003008218934200D170471970BA
:10231C000133F9E7002370B5064D040008002B606B
:10232C00FEF750FA431C03D12B68002B00D023601E
:10233C0070BDC0467003002070B504000800110089
:10234C001A000023054D2B60FEF746FA431C03D1FF
:10235C002B68002B00D0236070BDC046700300209A
:10236C0070B50400080011001A000023054D2B6005
:10237C00FEF70EFA431C03D12B68002B00D0236010
:10238C0070BDC0467003002070B504000800110039
:10239C001A000023054D2B60FEF707FA431C03D1EE
:1023AC002B68002B00D0236070BDC046700300204A
:1023BC00014B18687047C0466400002070B50026B9
:1023CC000C4C0D4D641BA410A64209D1002600F044
:1023DC0075FA0A4C0A4D641BA410A64205D170BDB7
:1023EC00B300EB5898470136EEE7B300EB5898472B
:1023FC000136F2E7002A0008002A0008042A000827
:10240C00002A0008704770477047002310B59A42A5
:10241C0000D110BDCC5CC4540133F8E770B5050095
:10242C00002910D00C1F2368002B00DAE4182800B8
:10243C0000F0E2F81D4A1368002B05D163601460AC
:10244C00280000F0E1F870BDA34208D920682118DB
:10245C008B42F3D119685B6809182160EEE71A000A
:10246C005B68002B01D0A342F9D911685018A04227
:10247C000BD120680918501811608342E0D11868FC
:10248C005B68411811605360DAE7A04202D90C2353
:10249C002B60D5E7206821188B4203D119685B6843
:1024AC000918216063605460CAE7C04678030020B5
:1024BC0070B50F4E0D0031680400002902D100F0F8
:1024CC00EBF930602900200000F0E6F9431C0AD03B
:1024DC000323C51C9D43A84207D0291A200000F0F5
:1024EC00DBF9013001D101256D42280070BDC046D9
:1024FC007C030020F7B50322CB1C93430833060062
:10250C001F000C2B38D20C27B94237D8300000F002
:10251C0073F8384B00931B681C00002C33D1390026
:10252C003000FFF7C5FF0400431C5ED1009B1C6804
:10253C002500002D4ED1002C51D023682900E31822
:10254C003000019300F0A8F9019B834247D1236826
:10255C003000FF1A3900FFF7ABFF01303FD0236882
:10256C00DB192360009B1B68002B40D05A68A242E9
:10257C0033D100225A6014E0002BC5DA0C2300255D
:10258C0033602800FEBD2168C91B20D40B2918D943
:10259C00E2192760A34212D1009B1A606368116094
:1025AC0053603000250000F02FF807220B35231D57
:1025BC009543EA1A9D42E4D05B1BA350E1E75A60B5
:1025CC00ECE76268A342D5D1009B1A60E9E72300CF
:1025DC006468A2E72C006D68ABE71300C4E70C231A
:1025EC003000336000F010F8CBE72760D9E75B6070
:1025FC00FFDEC0467803002010B50248FFF703FF4A
:10260C0010BDC0467403002010B50248FFF7FCFE55
:10261C0010BDC04674030020F7B58B8905000C0073
:10262C001A075CD44A68002A04DC0A6C002A01DC14
:10263C000020FEBDE76A002FFAD0002280202E6811
:10264C002A601A004001216A0240034234D0606DB6
:10265C00A3895B0706D56368C01A636B002B01D096
:10266C00236CC01A020000232800E76A216AB847CD
:10267C00A289431C06D129681D292CD82A4B0B4151
:10268C00DB0728D40023636023692360D20405D5BB
:10269C00431C02D12B68002B00D16065616B2E604E
:1026AC000029C5D023004433994202D02800FFF7FB
:1026BC00B5FE00206063BCE701232800B847431C2B
:1026CC00C6D12B68002BC3D01D2B01D0162B01D1EA
:1026DC002E60ADE7A28940231343A381A9E70E69BD
:1026EC00002EA5D00F680E60BA1B019200229B072A
:1026FC0000D14A69A260019B002B99DDA36A3200CC
:10270C001F002800019B216AB847002806DC4023E3
:10271C000120A28940421343A3818AE7019B36180A
:10272C001B1A0193E7E7C046FEFFBFDF0B6970B5CC
:10273C0005000C00002B02D10025280070BD0028DC
:10274C0004D0036A002B01D1FFF756FC0C22A35EC8
:10275C00002BF1D0626ED20704D49B0502D4A06D7D
:10276C00FFF751FE28002100FFF756FF636E0500AE
:10277C00DB07E2D4A3899B05DFD4A06DFFF744FEF1
:10278C00DBE7000070B50E001D000E23C95E1400BF
:10279C0096B000290CDAB2898023110019401A4234
:1027AC0013D00021403B00202960236016B070BD7F
:1027BC006A4600F04DF80028EDDBF02301991B026E
:1027CC001940034BC9184B4259418023DB00EAE7FF
:1027DC0000E0FFFFF7B502268B8905000C003342A1
:1027EC0006D0230047332360236101236361F7BDC7
:1027FC006A4601ABFFF7C6FF009907002800FFF7F8
:10280C0079FE002808D10C22A35E9A05EFD403228E
:10281C0093431E43A681E4E78023A28920601343DF
:10282C00A381009B20616361019B002B0CD02800CD
:10283C000E23E15E00F01EF8002805D00323A289C8
:10284C009A43023B1343A381A3893B43A381CEE765
:10285C00002370B5064D0400080011002B60FDF735
:10286C00B4FF431C03D12B68002B00D0236070BD38
:10287C0070030020002370B5064D040008002B6087
:10288C00FDF7A8FF431C03D12B68002B00D023605D
:10289C0070BDC04670030020002370B5064D0400C7
:1028AC0008002B60FDF79AFF431C03D12B68002B0B
:1028BC0000D0236070BDC04670030020F8B5C04640
:1028CC00F8BC08BC9E467047F8B5C046F8BC08BCBE
:0428DC009E4670475D
:1028E00008003000FF686F737400000000000000F3
:1028F00000000000000000000000000000000000D8
:1029000000000000000000000000000001000000C6
:1029100002000000030000000400000006000000A8
:10292000070000000800000009000000000000008F
:102930000000000000000000000000000100000096
:102940000200000003000000040000000001020378
:1029500004050607080C101418203040010002007E
:102960000400060008000A000C00100020004000CF
:1029700080000001080402040801010101010103B3
:1029800007010000476574436F6D6D616E642053ED
:102990007563636573732100476574436F6D6D6183
:1029A0006E64206661696C21006572726F720057F7
:1029B000726974654D656D6F7279205375636365D7
:1029C0007373210057726974654D656D6F7279205C
:1029D0006661696C210045726173654D656D6F724A
:1029E0007920537563636573732100476F205375B6
:1029F00063636573732100476F206661696C210012
:042A0000E5000008E5
:042A0400BD00000809
:102A08000024F400010000000400000000000000A1
:102A180003000000340200200000000034020020FF
:102A28009C020020040300200000000000000000B9
:102A3800000000000000000000000000000000008E
:102A4800000000000000000000000000000000007E
:102A5800000000000000000000000000000000006E
:082A680000000000180000202E
:040000050800091DC9
:00000001FF
