:020000040800F2
:10000000004002203D0900089D0700089F070008E6
:1000100000000000000000000000000000000000E0
:10002000000000000000000000000000A107000820
:100030000000000000000000A3070008A50700085A
:100040008D0900088D0900088D0900088D09000838
:100050008D0900088D0900088D0900088D09000828
:100060008D0900088D0900088D0900088D09000818
:100070008D0900088D0900088D0900088D09000808
:100080008D0900088D0900088D0900088D090008F8
:100090008D090008AD0700088D0900088D090008CA
:1000A0008D0900088D0900088D0900088D090008D8
:0C00B0008D0900088D0900088D0900086A
:1000BC0010B5064C2378002B07D1054B002B02D032
:1000CC00044800E000BF0123237010BD6C00002029
:1000DC0000000000FC2A0008044B10B5002B03D0D4
:1000EC000349044800E000BF10BDC04600000000FA
:1000FC0070000020FC2A0008002243088B4274D3B5
:10010C0003098B425FD3030A8B4244D3030B8B420C
:10011C0028D3030C8B420DD3FF22090212BA030C15
:10012C008B4202D31212090265D0030B8B4219D3F6
:10013C0000E0090AC30B8B4201D3CB03C01A524116
:10014C00830B8B4201D38B03C01A5241430B8B425E
:10015C0001D34B03C01A5241030B8B4201D30B0347
:10016C00C01A5241C30A8B4201D3CB02C01A52416E
:10017C00830A8B4201D38B02C01A5241430A8B4231
:10018C0001D34B02C01A5241030A8B4201D30B021A
:10019C00C01A5241CDD2C3098B4201D3CB01C01A34
:1001AC00524183098B4201D38B01C01A524143093E
:1001BC008B4201D34B01C01A524103098B4201D32C
:1001CC000B01C01A5241C3088B4201D3CB00C01A99
:1001DC00524183088B4201D38B00C01A5241430811
:1001EC008B4201D34B00C01A5241411A00D2014636
:1001FC00524110467047FFE701B5002000F0F0F8BF
:10020C0002BDC0460029F7D076E7704703460B4382
:10021C007FD4002243088B4274D303098B425FD3F3
:10022C00030A8B4244D3030B8B4228D3030C8B421F
:10023C000DD3FF22090212BA030C8B4202D3121205
:10024C00090265D0030B8B4219D300E0090AC30BDA
:10025C008B4201D3CB03C01A5241830B8B4201D387
:10026C008B03C01A5241430B8B4201D34B03C01A70
:10027C005241030B8B4201D30B03C01A5241C30AE8
:10028C008B4201D3CB02C01A5241830A8B4201D359
:10029C008B02C01A5241430A8B4201D34B02C01A43
:1002AC005241030A8B4201D30B02C01A5241CDD2E8
:1002BC00C3098B4201D3CB01C01A524183098B4233
:1002CC0001D38B01C01A524143098B4201D34B011C
:1002DC00C01A524103098B4201D30B01C01A52417F
:1002EC00C3088B4201D3CB00C01A524183088B4206
:1002FC0001D38B00C01A524143088B4201D34B00EF
:10030C00C01A5241411A00D2014652411046704760
:10031C005DE0CA0F00D04942031000D34042534065
:10032C0000229C4603098B422DD3030A8B4212D325
:10033C00FC22890112BA030A8B420CD38901921157
:10034C008B4208D3890192118B4204D389013AD094
:10035C00921100E08909C3098B4201D3CB01C01A69
:10036C00524183098B4201D38B01C01A524143097C
:10037C008B4201D34B01C01A524103098B4201D36A
:10038C000B01C01A5241C3088B4201D3CB00C01AD7
:10039C00524183088B4201D38B00C01A5241D9D2EF
:1003AC0043088B4201D34B00C01A5241411A00D270
:1003BC000146634652415B10104601D34042002B6C
:1003CC0000D54942704763465B1000D3404201B5EB
:1003DC00002000F005F802BD0029F8D016E77047A0
:1003EC007047C046C0221148114B920070B50121D4
:1003FC00826008220C2402250360002342610182E2
:10040C00053A4360C36083748261C46102624562D1
:10041C008262C462026341638363C36300F06EFB58
:10042C00002801D000F098F970BDC046880000206B
:10043C000064004010B504009AB01422002102A8F8
:10044C0002F07AF84C22002107A802F075F81B4B39
:10045C0022689A422FD1802307A89B04079301F0AE
:10046C00FFF8002801D000F077F98021144B4901E6
:10047C00DA6B00240A43DA63DA6B12480A4008216B
:10048C000092009A5A6B0A435A635B6B02220B4030
:10049C000193019B032302A90293039206930494F4
:1004AC00059400F094FE15202200210000F0D6FAED
:1004BC00152000F0FDFA1AB010BDC04600640040D3
:1004CC0000100240000C0050F0B58BB0142200213B
:1004DC0005A802F031F820210125284BA0275A6BE2
:1004EC00274C0A435A635A6B264E0A400092009AD4
:1004FC005A6B1E392A435A635A6BFF052A400192E4
:10050C00019A5A6B38000A435A635A6B0A4002929A
:10051C00029A5A6B02310A435A635A6B0A4003928D
:10052C00039A5A6B04310A435A635B6B00220B40EB
:10053C0004932100049B00F090FE002230008021E7
:10054C0000F08BFE05940024380005A9069507944D
:10055C00089400F03CFE4023300005A90593069456
:10056C00079500F034FE8023300005A9059306950D
:10057C000794089400F02BFE0BB0F0BD0010024065
:10058C000382000000080050012307B55B42019074
:10059C000122034801A901F0C5F901980EBDC0461E
:1005AC000801002010B594B03C22002105A801F0F0
:1005BC00C3FF1022002101A801F0BEFF80208000A3
:1005CC0000F052FE80235B000893002309930F93E5
:1005DC000833109380239B02119380239B04129366
:1005EC008023022440229B0505A805940A920D94B1
:1005FC000E94139300F064FE002801D072B6FEE74F
:10060C00072303900490210001A80193029400F0A9
:10061C0065FF002801D072B6FEE714B010BD0000D3
:10062C00F0B50024D5B000F0D5F9FFF7BBFF2100E1
:10063C00FC2215A8149401F07FFF21003C2205A890
:10064C00049401AE01F078FF05223F4902A801F0A5
:10065C00F6FF3480FFF738FFFFF7C4FE00F0F0F828
:10066C003A4801F06DFE01F029FB01F035FC01F078
:10067C006DFC142304AD73702F002B0006345C70DA
:10068C000134E4B202331A2CF9D12900300001F004
:10069C00D1FCAF20400000F0C3F9142373702B0081
:1006AC005C700134E4B202332E2CF9D129003000F5
:1006BC0001F0C0FCAF20400000F0B2F912237370BF
:1006CC006C700134E4B20235402CF9D139003000A1
:1006DC0001F0B0FCAF208025400000F0A1F91C4CCB
:1006EC006D002A00002114A801F026FF230001341C
:1006FC0014AAFF34196811701968090A5170196825
:10070C00090C917002CB090ED17004329C42F1D1CC
:10071C0014A902A801F04CFC6B469B7A02A9FF2B92
:10072C0002D14A7801324A706A460133937214201E
:10073C0000F076F9074B9C42D3D1FA20800000F0F0
:10074C006FF901F0AFFCFEE7142B0008192B000821
:10075C0000300008001C010872B6FEE707B5012145
:10076C000A4BC0201A6CC0000A431A641A6C0A4067
:10077C0080210092009ADA6B49050A43DA63DB6B3D
:10078C000B400193019B00F05DF907BD0010024086
:10079C00FEE7FEE77047704710B500F02FF910BD6B
:1007AC0010B5024800F060FC10BDC0468800002067
:1007BC0070B50E0014000025A54201DB200070BDB1
:1007CC0000E000BF70550135F6E770B50E0014005F
:1007DC000025A54201DB200070BD705DFFF7D4FE43
:1007EC000135F6E701204042704780239B01002031
:1007FC004B60704701207047002070470B490C4A32
:10080C000300521A0B4910B50868002801D10A4898
:10081C0008600868C318934206D901F0E3FE0C2364
:10082C0003600120404210BD0B60FCE70004000097
:10083C000040022004010020A0A500207047000009
:10084C0010B5184B184C0C222360E1235B0263603B
:10085C0000232000A360E36023616261A361E36174
:10086C0023626362A36201F02DF9002801D0FFF727
:10087C0073FF0021200001F09FF9002801D0FFF741
:10088C006BFF0021200001F0B7F9002801D0FFF721
:10089C0063FF200001F072F9002801D0FFF75CFF24
:1008AC0010BDC046004800400801002010B50400EF
:1008BC009AB01422002102A801F03EFE4C22002125
:1008CC0007A801F039FE174B22689A4227D104235E
:1008DC0007A8079300F0C4FE002801D0FFF73CFFE7
:1008EC008021114BC902DA6B10480A43DA63DA6BC8
:1008FC000A400092009A0222596B114359635B6BB8
:10090C0002A913400193019BC0231B0102930023F6
:10091C000493059304330392069300F058FC1AB029
:10092C0010BDC046004800400010024000040050BA
:10093C000D488546FFF782FF0C480D490D4A0023F0
:10094C0002E0D458C4500433C4188C42F9D30A4A78
:10095C000A4C002301E013600432A242FBD301F0E5
:10096C0047FEFFF75DFEFEE700400220000000207E
:10097C006C000020682C00086C0000209CA5002056
:10098C00FEE7000070B5104B05001978002901D165
:10099C00012070BDFA208000FFF7AEFB0B4C01006C
:1009AC002068FFF7A9FB00F08FF8041EF0D1032D8F
:1009BC00EED8020001202900404200F04FF8044B11
:1009CC0020001D60E5E7C046040000200000002068
:1009DC00080000208023084A5B00116810B50B4307
:1009EC0003201360FFF7CEFF041E03D1FFF7B6FE02
:1009FC00200010BD0124FBE700200240034A044BF9
:100A0C0011681B785B1813607047C0469C0100206E
:100A1C0004000020014B18687047C0469C01002060
:100A2C0070B50400FFF7F6FF0500631C02D0044B01
:100A3C001B78E418FFF7EEFF401BA042FAD370BD01
:100A4C0004000020034A044913680B40034313605D
:100A5C007047C04600000140FFF9FFFF30B5FF258D
:100A6C0003242A000440E400A24089012940D24317
:100A7C00A140C3B200280ADBC0240B4B80088000C5
:100A8C00C018A400035913400B43035130BD0F2071
:100A9C000340083B05489B089B001B18D869024083
:100AAC000A43DA61F2E7C04600E100E000ED00E045
:100ABC00002805DB1F2318401E3B8340014A1360AE
:100ACC007047C04600E100E08022431E5204012022
:100ADC0093420DD2C021074A07485360036A0906A6
:100AEC001B021B0A0B430362002007239060136058
:100AFC007047C04610E000E000ED00E070B5050066
:100B0C005C352B780400DAB2002B04D103005D3382
:100B1C001A70FFF78FFC102123689A698A439A6137
:100B2C00082299691142FCD101219A690A439A6100
:100B3C009A690A42FCD0022299690A439A614F4A87
:100B4C00934202D161684E4A1160217C40220129F6
:100B5C0000D086E0996991439961627C012A00D0AA
:100B6C0083E080229969D2010A439A61A27C012A0E
:100B7C0000D07EE09A6943490A409A619A694248DA
:100B8C00A1680240A4200A439A619A6982439A613F
:100B9C001A69943882431A61E069A2690138013AF2
:100BAC00000252060243206A013802436069013890
:100BBC0000040243DA61C022920091420ED1E26A33
:100BCC00216B013A0139090112020A43A16A013968
:100BDC000A43616A013909040A43DA601900C03119
:100BEC000A68E06B294E02430A60294A9A18511E82
:100BFC008A41284952420A4027490433D86F521877
:100C0C00616B3040090401432264D96711007031D3
:100C1C00D86F6164214EA16B304009060143D9673E
:100C2C001300B033A364D833E36498239B00D31828
:100C3C0023659E239B00D3186365D4239B00D01897
:100C4C00111DD423884200D2D33B00219B009B185A
:100C5C0002C29A42FCD101230020A16521662B70AF
:100C6C0070BD99690A439A6177E79A690C490A4001
:100C7C007BE78022996952010A437EE700640040B9
:100C8C0000650040FFEFFFFFFFFCFFFFFFFFE0FFF1
:100C9C000098FFBFB0FCFFFF50B70040FFFFFFF014
:100CAC00FFBFFFFF0300F0B55C331B780700013B6F
:100CBC00012B1AD88C68CB680D694E69A40705C93D
:100CCC00002808D1DB062343396C33432D049200F2
:100CDC002B435350F0BD796CD2005B0752182B4359
:100CEC003443002013605460F4E70223026E134374
:100CFC0003660120EEE703005C331B78012B05D162
:100D0C000368002009021143996470470423026EA2
:100D1C00134303660120F8E703005C331B78012BB7
:100D2C0007D1802302680020D1681B040B43D360D9
:100D3C0070470423026E134303660120F8E7020098
:100D4C005C3211780300C8B2012908D1013111704D
:100D5C0019688A69824300208A61186670470422E8
:100D6C00196E01200A431A66F8E700000300F7B574
:100D7C005C331B78022B58D105682B00C4331C68DC
:100D8C00A40206D58023026E9B0013430366012048
:100D9C0036E01C680F69A403A30F4C6800938E689F
:100DAC000B68002C2DD137439B048E691F43CB69F4
:100DBC00009C33434E6933430E6A36063343CE6888
:100DCC003604334348266643446DA4466644736038
:100DDC000823376037005B429E1B154B0837019385
:100DEC00CC68A4466346019CE35C9C46BB196345F6
:100DFC000CD30123009ACC3593402B6083650020E3
:100E0C00FEBD3B4380273343FF05CEE7D3781B065B
:100E1C009C46644693781B042343147823435478EC
:100E2C0004322402234308C7DAE70823026EACE736
:100E3C00802B0008F7B5040001935C342478022C55
:100E4C0000D080E00F26046840295BD12700903742
:100E5C003D68354206D18023026E5B001343036666
:100E6C0001204EE00126B44663463D682D0E2E400F
:100E7C001D4203D00434E66F760A1E4048243D68B8
:100E8C00AD05AD0FAD196C43866CA419802627688F
:100E9C00F605374057602668F600002F4AD1760DCC
:100EAC00802716602668BF053E408027966026681E
:100EBC007F03F60FF60716616668244BB6B2D6614F
:100ECC0066689C463603360FD66066683E408027BF
:100EDC0056616668BF033E40966166687600760E82
:100EEC00166266680834F60F566200266346D768A9
:100EFC00DF5DB74220D80368402922D1943300200B
:100F0C001D60FEBD250098352F683742A3D02E6892
:100F1C000127330E1E003E403B4203D00434E66FE3
:100F2C00360A3E4048242D68AD05AD0FAD196C4313
:100F3C00C66CAAE7F608B3E7A75D019B9F5501367F
:100F4C00D4E79C33DBE70823026E87E7802B00088D
:100F5C000368C4331868072318407047030070B542
:100F6C005C331B78013B012B00D96DE007240D008D
:100F7C0000682540836D214201D0DC0722D538243E
:100F8C00214201D09C071DD5E0246400214201D0F0
:100F9C005C0717D5F0246401214201D01C0711D540
:100FAC00E0242402214201D0DC060BD5C024A4028B
:100FBC00214201D09C0605D5FC242404214205D0F5
:100FCC005C0603D40124C66D3443C465002D01D0E6
:100FDC00DC0722D43824214201D09C071DD4E02404
:100FEC006400214201D05C0717D4F0246401214233
:100FFC0001D01C0711D4E0242402214201D0DC06CC
:10100C000BD4C024A402214201D09C0605D4FC249C
:10101C002404214205D05B0603D50223C46D23436F
:10102C00C3650B0604D50400DC342368134323602A
:10103C00CB0504D50400E034236813432360436DCF
:10104C000B434365002070BD0223026E13430366FD
:10105C000120F8E77047704770477047704770473A
:10106C0070477047704770470368F0B51A6D5F6D35
:10107C00196D1740E022520117405A6D85B00A4095
:10108C0007210A400092196D5A6D04000A4038215C
:10109C000A400192196D5A6D0A40F12109040A4067
:1010AC000292196D5A6D5D6D0A40E02109030A40E8
:1010BC00039240221E6D164204D0154202D01A65CE
:1010CC00FFF7CFFF8022520016420CD015420AD0F7
:1010DC0023681900D8310868083109681A6501407D
:1010EC002000FFF7BBFF002F05D02368390020003C
:1010FC001F65FFF7AFFF009B002B06D0009A2368FB
:10110C00110020001A6500F089FE019B002B06D00F
:10111C00019A2368110020001A65FFF79CFF8023B9
:10112C009B001E4206D01D4204D02268200013658D
:10113C00FFF792FF802216420CD015420AD023688A
:10114C001900D4310868083109681A65014020007B
:10115C00FFF783FF80239B011E4206D01D4204D063
:10116C00226820001365FFF77AFF80231B021E42C2
:10117C0006D01D4204D0226820001365FFF770FFD3
:10118C008023DB011E4207D01D4205D02268136567
:10119C008023226E13432366039B002B06D0039AF5
:1011AC002368110020001A65FFF75DFF029B002BDE
:1011BC0005D02368029A1A65236E13432366236EA7
:1011CC00002B02D02000FFF74DFF05B0F0BDF7B5A6
:1011DC0000220B681C00D44000D1F7BD01249440C0
:1011EC00A446234237D003255600B5400324ED43D3
:1011FC004B6801951C40651E012D0FD88768019D19
:10120C001B092F40CD68B5403D4367468560456856
:10121C00BD4301273B4093402B434360022C14D128
:10122C0007270F251740BF00BD40AC46D3089B00D5
:10123C00C31800931B6A1D0063469D43AC460D69A1
:10124C006346BD401D43009B1D62B4400368019D75
:10125C001D402C4304600132BBE7002A01D08161A0
:10126C0070478162FCE7000010B5114C11492368EE
:10127C0002000B4003432360802300209B009A4212
:10128C000ED10D4B0D49186806235843FEF734FF59
:10129C008022431CD200616908001040114200D129
:1012AC0010BD002B01D0013BF5E70320F8E7C04649
:1012BC0000700040FFF9FFFF0000002040420F00CB
:1012CC00F8B5036805009B074ED53822574CA36828
:1012DC001340E268102B0BD103210A40022A09D1DA
:1012EC002268520524D5EA68002A21D10120F8BDD4
:1012FC00002BF5D0EB68002B42D023684C4A80279A
:10130C0013402A69FF0013432360802322685B008B
:10131C0013432360FFF77EFB060023683B4228D073
:10132C0062686B6943491B020A40134363601BE00C
:10133C0061686A693F48120201400A436260002BEF
:10134C000CD123683A4A3C4913402A691343236061
:10135C0023683A4A9B045B0FDA400A60384B1868E2
:10136C00FFF710FB0028C1D12A6A002A1AD10020ED
:10137C00BDE7FFF74FFB801B0228CED90320B6E751
:10138C002368304A802713402360FFF743FB060095
:10139C00FF0023683B42E7D0FFF73CFB801B022891
:1013AC00F7D9EBE73820214B99680140102938D048
:1013BC00802125488904022A26D11A6802401A6025
:1013CC001A680A42FCD1A86A6A6AD96802431F48A3
:1013DC0001400A43296B0A43696B0A43A96B0A4310
:1013EC00E96A09020A43DA608022196852040A4346
:1013FC001A608022D96852050A43DA60802292046E
:10140C0019681142FCD0B2E71A6802401A601A68D7
:10141C00100008400A42FAD1DA680D490A40DA6035
:10142C0065E7012A00D161E7DB68A0E70010024004
:10143C00FFC7FFFFFF80FFFF000000200024F40027
:10144C0008000020FFFEFFFFFFFFFFFE8C80C11194
:10145C00FCFFFEEE382370B51D4CA2681A4205D174
:10146C0023681C489B045B0FD84070BDA2681A40CF
:10147C00082A27D0A2681A40102A17D1E368E1681D
:10148C00DB43E5684906490F6F322D0A01311540DF
:10149C009B0709D11048FEF72FFEE1686843490FFE
:1014AC000131FEF729FEE0E70A48F4E7A2681A408A
:1014BC00202A09D0A26800201340182BD5D1FA207D
:1014CC00C001D2E70448D0E780200002CDE7C04637
:1014DC00001002400024F40000127A00F7B504005A
:1014EC000D00002801D10120FEBD07274A4E3368AC
:1014FC003B408B422AD3226893073BD4D20748D473
:10150C00072733683B40AB420AD93368BB432B43B4
:10151C003360FFF77FFA019033683B40AB426BD1ED
:10152C0023683E4D5B076FD4FFF794FFAB683C49D3
:10153C001B051B0F9B005B581F210B40D840394AE1
:10154C00394B10601868FFF71DFACDE73368BB43C1
:10155C000B433360FFF75EFA019033683B40AB42BC
:10156C00C9D0FFF757FA019BC01A304B9842F4D9F7
:10157C000320B9E72949530704D5E0238868DB0128
:10158C0003438B608B682A480340A06803438B603D
:10159C00B4E76268214F012A19D13B689B03A2D59D
:1015AC000721BB688B431343BB60FFF733FA0190F1
:1015BC003823BA681A406368DB009A42A0D0FFF760
:1015CC0029FA019BC01A194B9842F1D9D0E7022A8B
:1015DC0003D13B689B01E3D485E7002A03D13B6828
:1015EC005B05DDD47FE70223032A03D1396E194250
:1015FC00D6D178E7F96DFAE7FFF70CFA019BC01A20
:10160C000A4B984288D9B3E7AB680A4A1340E268A0
:10161C001343AB6088E7C046002002400010024034
:10162C00202B000800000020080000208813000078
:10163C00FFF0FFFFFF8FFFFF064B07499B68074A30
:10164C005B045B0F9B005B581F2110680B40D8405C
:10165C007047C04600100240602B000800000020BC
:10166C00026810B5530706D530240D494B6DA343C2
:10167C00C46823434B6592010FD5094A816C936D65
:10168C00084803400B43936580235B00994204D1C7
:10169C008023D1685B040B43D360002010BDC0468F
:1016AC0000100240FFFCFFFF30B5EFF31084012265
:1016BC0082F310880168134D0B682B400B6084F388
:1016CC001088EFF3108182F3108802680E4C936837
:1016DC002340936081F31088C36E012B0AD1EFF382
:1016EC00108183F31088102402681368A3431360DD
:1016FC0081F31088030020228C331A600023C36608
:10170C00436730BDDFFEFFFFFEFFFFEF70B5040047
:10171C000368826800691968024360690243E069E2
:10172C0002431F4801400A431A605A681D490A4087
:10173C00E1680A435A601C4AA169934204D01B4ACF
:10174C00934201D0226A11439A68194802400A4315
:10175C000F219A60DA6A8A43616A0A43DA62FFF7F8
:10176C006BFF0022904214D0626A124B5200D15A85
:10177C00FEF7C2FC65686B082900C018FEF7BCFCBC
:10178C000D49030010380122884202D82268D36028
:10179C0000220A4B1000A36600236367A36770BD89
:1017AC00F369FFCFFFCFFFFF0080004000840040B3
:1017BC00FFF4FF11902B0008EFFF00000100010067
:1017CC00836A30B51A0706D50168284C4A6822404E
:1017DC00846B22434A60DA0706D50168244C4A68B8
:1017EC002240C46A22434A609A0706D50168214CFC
:1017FC004A682240046B22434A605A0706D50168A6
:10180C001D4C4A682240446B22434A60DA0606D5D6
:10181C0001681A4C8A682240C46B22438A609A067B
:10182C0006D50168164C8A682240046C22438A60F3
:10183C005A0610D50168134D4A68446C2A4022435D
:10184C004A6080225203944205D14A680E4C2240D1
:10185C00846C22434A601B0606D502680B49536808
:10186C000B40C16C0B43536030BDC046FF7FFFFF84
:10187C00FFFFFDFFFFFFFEFFFFFFFBFFFFEFFFFF83
:10188C00FFDFFFFFFFFFEFFFFFFF9FFFFFFFF7FFF4
:10189C00F7B504000D00170000932268D3692B40A4
:1018AC005B1B59424B41BB4201D0002027E0089BF7
:1018BC000133F3D0FFF7AEF8009BC01A089B984297
:1018CC002ED8002B2CD0042123681A680A42E4D0AD
:1018DC002A003C31403A8A43DFD0DA6908261100ED
:1018EC003140019132420BD020001E62FFF7DCFE2A
:1018FC00230090331E600023012084342370FEBD2E
:10190C008022D96912011142C7D01A622000FFF758
:10191C00CBFE2300202290331A60019B8434237069
:10192C000320ECE7F0B51600020085B08832039373
:10193C00136804000D000220202B3AD10138002935
:10194C0037D0002E35D08023A1685B01994204D199
:10195C002369002B01D105422BD1230000219033A8
:10196C00196021231360FFF755F8230054331E80B0
:10197C0002331E8002938023A268070000265B01BD
:10198C009A4204D12369B34201D12E001D002300D9
:10199C0056331B889AB2002B0DD1039B2000009369
:1019AC0040213B00FFF774FF20238834236000287C
:1019BC000ED105B0F0BD039B0022009380213B00AB
:1019CC002000FFF765FF002804D020238834236013
:1019DC000320EEE72268002D0BD133880236DB059D
:1019EC00DB0D9362029B029A1B88013B9BB2138016
:1019FC00CDE72B7801359362F4E70000030073B553
:101A0C000026040090331E60FFF704F823680500DD
:101A1C001B681B071FD58021284B320000938903BC
:101A2C0003002000FFF734FFB04214D0EFF3108115
:101A3C00012383F31088802022681368834313608A
:101A4C0081F310882300202288331A60032000239E
:101A5C008434237076BD260023688C361B685B07A4
:101A6C0023D58021154B0022009320002B00C903A5
:101A7C00FFF70EFF002818D0EFF31080012282F33D
:101A8C00108821680E4D0B682B400B6080F310887A
:101A9C00EFF3108082F3108821688B6893438B607E
:101AAC0080F3108820233360D0E72300202200200D
:101ABC0088331A603260E0662067C8E7FFFFFF01D9
:101ACC00DFFEFFFF70B5041E01D1012070BD0500C3
:101ADC0088352B68002B04D1020084321370FEF77A
:101AEC00E5FE2423012122682B6013688B431360CD
:101AFC00A36A002B02D02000FFF762FE2000FFF744
:101B0C0005FE0128E1D0236807495A6820000A40E5
:101B1C002A215A609A688A439A60012219680A43FA
:101B2C001A60FFF76BFFD1E7FFB7FFFFF7B50700B0
:101B3C00436E04006A37002B04D1012038806834CE
:101B4C002080F7BD03680B4E9A689B680A4D5B0FAB
:101B5C00F05CE95CC0000192FEF758FB019B3880F9
:101B6C001B015B0FF05CE95CC000FEF74FFB80B221
:101B7C00E5E7C046B02B0008A82B000870B50400A0
:101B8C008434227803000220012A11D01D00242263
:101B9C00012688352A601A6811681068B0431060F5
:101BAC000448014000205866202311602B602070EF
:101BBC0070BDC046FFFFFFDFF8B5050084350B0094
:101BCC0029780222012915D00600012104688836E3
:101BDC0022323260276822688A432260A168C900D9
:101BEC00C9081943A160FFF7A1FF20230022276039
:101BFC0033602A701000F8BDF8B5050084350A0072
:101C0C0029780223012915D00600012104688836A1
:101C1C0022333360276823688B432360A168064B0B
:101C2C0019401143A160FFF781FF20232760336027
:101C3C0000232B701800F8BDFFFFFFF110B5012237
:101C4C0080210548FFF709FB8021A0200122090211
:101C5C00C005FFF702FB10BD00080050002314491B
:101C6C0010B50B604B6002338B60013BCB601223D1
:101C7C00104CFF330B61104B20004B61FFF712F837
:101C8C00002801D0FEF768FD636AE16A002220009B
:101C9C005943FFF730F8002801D0FEF75DFD200016
:101CAC00FFF73AF8002801D0FEF756FD10BDC046EC
:101CBC00EC00002088000020FF07000010B5FFF7A3
:101CCC00CDFFFFF7BBFF0520FEF7AAFE154C002247
:101CDC0001212000FFF742F9002801D0FEF73CFD5E
:101CEC002000FFF72CF8002801D0FEF735FD0F215E
:101CFC000D4B0E4AD96080211A608022490359612C
:101D0C00D20580215A60002289039A601A61996178
:101D1C00DA611A62064B1A60064B1A60064B1A609F
:101D2C0010BDC04688000020A001002011F1FF006A
:101D3C0048A4002044A400204CA4002073B56B469A
:101D4C00DE1D01230D4D3070EB600D4C2000FFF7B4
:101D5C00FFF80028F9D0290032002000FFF706F820
:101D6C008021236889001A6D0A42FCD01A6D01206B
:101D7C000A401A65FEF754FE73BDC046A001002050
:101D8C008800002070B505000C4EF1600C4C200052
:101D9C00FFF7DEF80028F9D031002A002000FEF70A
:101DAC00E5FF8021236889001A6D0A42FCD01A6D68
:101DBC0001200A401A65FEF733FE70BDA001002019
:101DCC0088000020034B01301B68984200D1002092
:101DDC007047C0460C000020F8B50C4D0C4B2C681D
:101DEC001B68010000209C420FDA68221300094E88
:101DFC000948376801347B43C01800F020FC3800D8
:101E0C00FFF7E0FF306001202C60F8BD4CA40020EF
:101E1C000C00002048A40020C401002000B59BB099
:101E2C00C90708D56A46402104480AABFFF702F8F7
:101E3C006846FFF7D1FF1BB000BDC04688000020EC
:101E4C00F8B500230A4D2C689C420FDD6822130064
:101E5C00084E09493768013C7B43C91800F0EFFB79
:101E6C003800FFF7AFFF012330602C601800F8BD7D
:101E7C004CA4002044A40020C401002010B59AB04A
:101E8C006846FFF7DDFF002807D00120FEF7C8FDEC
:101E9C000AAB1C7820001AB010BD024800F050FAB2
:101EAC00F8E7C046B82B000810B59AB00400684695
:101EBC00FFF7C6FF002809D0402220000AA900F035
:101ECC00BEFB0120FEF7ACFD1AB010BD014800F0BE
:101EDC0037FAF9E7B82B0008174B184A70B50020F1
:101EEC001A60FFF72BFF0220FEF79AFDFFF7C6FFE3
:101EFC0079231840984215D1FFF7C0FF0024050044
:101F0C00FFF7BCFFA54209DCFFF7B8FF79231840A7
:101F1C00984202D10A4800F013FA70BDFFF7AEFFE9
:101F2C000134EFE7FFF7AAFFC043C00601D1054813
:101F3C00F1E70548EFE7C046A001002000FFFF00D5
:101F4C00C82B0008DC2B0008ED2B000810B5134B38
:101F5C00134A90B000201A60FFF7F0FE0220FEF743
:101F6C005FFD7924FFF78AFF0440792C0DD1022103
:101F7C006846FFF799FFFFF781FF2040792802D1CF
:101F8C00084800F0DDF910B010BDFFF777FFC04333
:101F9C00C00601D10448F4E70448F2E7A001002090
:101FAC0002FFFF00F32B0008022C0008ED2B0008A9
:101FBC0070B51A4B1A4D0C0005212B60FFF7E2FE91
:101FCC00184B02202B60FEF72BFDFFF757FF7923F0
:101FDC001840984218D1651CFF3520000F21FFF7DF
:101FEC00D1FE40340120FEF71BFDAC42F5D1072099
:101FFC00FEF716FDFFF742FF79231840984202D1F5
:10200C00094800F09DF970BDFFF738FFC043C006CA
:10201C0001D10648F5E70648F3E7C04631FFFF005B
:10202C00A001002011F1FF000E2C0008232C000849
:10203C00ED2B000870B5154B154C0D0002212360DB
:10204C00FFF7A0FE134B02202360FEF7E9FC792476
:10205C00FFF714FF0440792C0FD10F212800FFF754
:10206C0091FE6420FEF7DCFCFFF708FF2040792886
:10207C0002D1094800F064F970BDFFF7FFFEC043C0
:10208C00C00601D10548F5E70548F3E744FFFF001A
:10209C00A001002011F1FF00352C0008232C0008B2
:1020AC00ED2B000813B5134B134A0193134B04216A
:1020BC0001A81A60FFF766FE0A20FEF7B1FC79242E
:1020CC00FFF7DCFE0440792C0BD10A20FEF7A8FCAC
:1020DC00FFF7D4FE2040792802D1094800F030F9EE
:1020EC0013BDFFF7CBFEC043C00601D10548F5E791
:1020FC000548F3E70800300021FFFF00A001002095
:10210C004A2C0008562C0008ED2B0008002310B5B3
:10211C00040003604360836081814366C281036174
:10212C0043618361190008225C3000F005FA0B4B07
:10213C00246263620A4BA3620A4BE3620A4B236379
:10214C000A4B9C4205D00A4B9C4202D0094B9C4244
:10215C0003D12000583000F06FFA10BD6123000845
:10216C0089230008C1230008ED23000850A4002097
:10217C00B8A4002020A5002010B5034A0349044848
:10218C0000F06CF810BDC046100000206D2900084E
:10219C001C00002041680B4B10B50400994201D083
:1021AC0000F0DEFBA168084B994202D0200000F041
:1021BC00D7FBE168054B994202D0200000F0D0FB20
:1021CC0010BDC04650A40020B8A4002020A50020BB
:1021DC0010B5094B094A04211A6009480022FFF77F
:1021EC0095FF012209210748FFF790FF02221221D7
:1021FC000548FFF78BFF10BD88A50020852100083E
:10220C0050A40020B8A4002020A5002010B502483E
:10221C0000F013FA10BDC04691A5002010B502487D
:10222C0000F00CFA10BDC04691A5002010B50400BA
:10223C00FFF7ECFF236A002B02D0FFF7EFFF10BD76
:10224C00044B2362044B1B68002BF6D1FFF7C0FF35
:10225C00F3E7C046A121000888A50020F7B51400BB
:10226C00002600900191A5686768013F04D5246899
:10227C00002CF8D13000FEBDAB89012B08D90E2201
:10228C00AB5E013304D029000098019B98470643AC
:10229C006835EAE7036A70B505000E008468002B08
:1022AC0001D1FFF7C3FF636EDB0705D4A3899B0540
:1022BC0002D4A06D00F0C1F9A3891B0702D52369D4
:1022CC00002B1FD12100280000F0D2F8002819D0D3
:1022DC0001256D42636EDB0705D4A3899B0502D4EF
:1022EC00A06D00F0ABF9280070BD0136A360002B87
:1022FC0004DAA2699A4216DC0A2914D023685A1C03
:10230C0022601970A3683178013B0029EDD1A360DC
:10231C00002B0FDA280022000A3100F067F80A259A
:10232C000130D7D1D4E72200280000F05FF801304B
:10233C00E8D1CDE70A2523685A1C22601D70C9E735
:10234C0010B5034B01001868FFF7A4FF10BDC04681
:10235C006800002070B50C000E25495F00F01AF9DA
:10236C00002803DB636D1B18636570BDA389024AEB
:10237C001340A381F9E7C046FFEFFFFFF8B51F003C
:10238C008B8905000C001600DB0505D50E23C95EF4
:10239C000022022300F0EAF8A389054A2800134022
:1023AC00A38132000E23E15E3B0000F007F9F8BD7B
:1023BC00FFEFFFFF70B50C000E25495F00F0D6F85B
:1023CC00A389421C03D1054A1340A38170BD80220E
:1023DC0052011343A3816065F8E7C046FFEFFFFF8E
:1023EC0010B50E23C95E00F0AFF810BDF8B50600AD
:1023FC000D001400002804D0036A002B01D1FFF754
:10240C0015FFA369A360A3891B0728D52369002B9B
:10241C0025D023692068EFB2C01A6369EDB28342FC
:10242C0005DC2100300000F09BFA00281DD1A368C8
:10243C000130013BA36023685A1C22601F70636942
:10244C00834204D0A389DB0707D50A2D05D12100CF
:10245C00300000F085FA002807D12800F8BD2100D3
:10246C00300000F005F80028D3D001256D42F4E7C8
:10247C00304B70B5050018680C00002804D0036AB6
:10248C00002B01D1FFF7D2FE0C23E25E93B21107B1
:10249C0023D4D90607D4092301202B6037331343E7
:1024AC00A381404270BD5B0713D5616B002908D036
:1024BC0023004433994202D0280000F0C9F80023CD
:1024CC0063632422A3899343A3810023636023695C
:1024DC0023600823A2891343A3812369002B0BD10A
:1024EC00A0218022A389890092000B40934203D043
:1024FC002100280000F088FA0C22A35E01201A00AB
:10250C0099B2024003420FD00022A260626952428B
:10251C00A261002022698242C4D10906C2D54022A0
:10252C001343A3810138BDE7880700D46269A26018
:10253C00EFE7C0466800002003008218934200D1E8
:10254C00704719700133F9E7002370B5064D04008C
:10255C0008002B60FEF746F9431C03D12B68002BB7
:10256C0000D0236070BDC0468CA5002070B504005F
:10257C00080011001A000023054D2B60FEF73CF9F2
:10258C00431C03D12B68002B00D0236070BDC046C8
:10259C008CA5002070B50400080011001A0000235F
:1025AC00054D2B60FEF704F9431C03D12B68002B5F
:1025BC0000D0236070BDC0468CA5002070B504000F
:1025CC00080011001A000023054D2B60FEF7FDF8E2
:1025DC00431C03D12B68002B00D0236070BDC04678
:1025EC008CA50020014B18687047C046680000207D
:1025FC0070B500260C4C0D4D641BA410A64209D1DD
:10260C00002600F075FA0A4C0A4D641BA410A64271
:10261C0005D170BDB300EB5898470136EEE7B30017
:10262C00EB5898470136F2E7602C0008602C000844
:10263C00642C0008602C000870477047704700231A
:10264C0010B59A4200D110BDCC5CC4540133F8E7EC
:10265C0070B50500002910D00C1F2368002B00DA80
:10266C00E418280000F0E2F81D4A1368002B05D18D
:10267C0063601460280000F0E1F870BDA34208D933
:10268C00206821188B42F3D119685B680918216006
:10269C00EEE71A005B68002B01D0A342F9D9116850
:1026AC005018A0420BD120680918501811608342B1
:1026BC00E0D118685B68411811605360DAE7A042FA
:1026CC0002D90C232B60D5E7206821188B4203D14B
:1026DC0019685B680918216063605460CAE7C046DA
:1026EC0094A5002070B50F4E0D0031680400002930
:1026FC0002D100F0EBF930602900200000F0E6F97F
:10270C00431C0AD00323C51C9D43A84207D0291A99
:10271C00200000F0DBF9013001D101256D422800C9
:10272C0070BDC04698A50020F7B50322CB1C93437F
:10273C00083306001F000C2B38D20C27B94237D8AF
:10274C00300000F073F8384B00931B681C00002C11
:10275C0033D139003000FFF7C5FF0400431C5ED1B4
:10276C00009B1C682500002D4ED1002C51D02368F5
:10277C002900E3183000019300F0A8F9019B834273
:10278C0047D123683000FF1A3900FFF7ABFF013047
:10279C003FD02368DB192360009B1B68002B40D0C3
:1027AC005A68A24233D100225A6014E0002BC5DAD9
:1027BC000C23002533602800FEBD2168C91B20D4E2
:1027CC000B2918D9E2192760A34212D1009B1A6079
:1027DC006368116053603000250000F02FF8072269
:1027EC000B35231D9543EA1A9D42E4D05B1BA35085
:1027FC00E1E75A60ECE76268A342D5D1009B1A600E
:10280C00E9E723006468A2E72C006D68ABE71300CE
:10281C00C4E70C233000336000F010F8CBE72760DE
:10282C00D9E75B60FFDEC04694A5002010B50248D6
:10283C00FFF703FF10BDC04690A5002010B502485D
:10284C00FFF7FCFE10BDC04690A50020F7B58B89A4
:10285C0005000C001A075CD44A68002A04DC0A6CD8
:10286C00002A01DC0020FEBDE76A002FFAD000220E
:10287C0080202E682A601A004001216A024003421F
:10288C0034D0606DA3895B0706D56368C01A636B8F
:10289C00002B01D0236CC01A020000232800E76A29
:1028AC00216AB847A289431C06D129681D292CD856
:1028BC002A4B0B41DB0728D4002363602369236078
:1028CC00D20405D5431C02D12B68002B00D16065C6
:1028DC00616B2E600029C5D023004433994202D08D
:1028EC002800FFF7B5FE00206063BCE70123280039
:1028FC00B847431CC6D12B68002BC3D01D2B01D06D
:10290C00162B01D12E60ADE7A28940231343A3817E
:10291C00A9E70E69002EA5D00F680E60BA1B0192B4
:10292C0000229B0700D14A69A260019B002B99DD14
:10293C00A36A32001F002800019B216AB8470028B7
:10294C0006DC40230120A28940421343A3818AE77D
:10295C00019B36181B1A0193E7E7C046FEFFBFDF49
:10296C000B6970B505000C00002B02D10025280066
:10297C0070BD002804D0036A002B01D1FFF756FC70
:10298C000C22A35E002BF1D0626ED20704D49B05FF
:10299C0002D4A06DFFF751FE28002100FFF756FF6F
:1029AC00636E0500DB07E2D4A3899B05DFD4A06D21
:1029BC00FFF744FEDBE7000070B50E001D000E2390
:1029CC00C95E140096B000290CDAB289802311007C
:1029DC0019401A4213D00021403B0020296023608B
:1029EC0016B070BD6A4600F04DF80028EDDBF02300
:1029FC0001991B021940034BC9184B4259418023C2
:102A0C00DB00EAE700E0FFFFF7B502268B89050043
:102A1C000C00334206D0230047332360236101238B
:102A2C006361F7BD6A4601ABFFF7C6FF009907006B
:102A3C002800FFF779FE002808D10C22A35E9A0526
:102A4C00EFD4032293431E43A681E4E78023A2899B
:102A5C0020601343A381009B20616361019B002BC9
:102A6C000CD028000E23E15E00F01EF8002805D0E3
:102A7C000323A2899A43023B1343A381A3893B43BB
:102A8C00A381CEE7002370B5064D040008001100A9
:102A9C002B60FDF7AAFE431C03D12B68002B00D042
:102AAC00236070BD8CA50020002370B5064D04007A
:102ABC0008002B60FDF79EFE431C03D12B68002BF6
:102ACC0000D0236070BDC0468CA50020002370B5DB
:102ADC00064D040008002B60FDF790FE431C03D14B
:102AEC002B68002B00D0236070BDC0468CA5002045
:102AFC00F8B5C046F8BC08BC9E467047F8B5C04651
:082B0C00F8BC08BC9E467047AE
:102B140008003000FF686F737400000000000000BC
:102B240000000000000000000000000000000000A1
:102B34000000000000000000000000000100000090
:102B44000200000003000000040000000600000072
:102B54000700000008000000090000000000000059
:102B64000000000000000000000000000100000060
:102B74000200000003000000040000000001020342
:102B840004050607080C1014182030400100020048
:102B94000400060008000A000C0010002000400099
:102BA400800000010804020408010101010101037D
:102BB4000701000042756666657220697320456DE1
:102BC40070747900476574436F6D6D616E64205352
:102BD4007563636573732100476574436F6D6D613D
:102BE4006E64206661696C21006572726F720047C1
:102BF40065744944205375636365737321004765A5
:102C0400744944206661696C210057726974654D8A
:102C1400656D6F7279205375636365737321005713
:102C2400726974654D656D6F7279206661696C2196
:102C34000045726173654D656D6F727920537563DC
:102C4400636573732100476F205375636365737302
:0C2C54002100476F206661696C210000C0
:042C6000E500000883
:042C6400BD000008A7
:102C68000024F400010000000400000090010000AE
:102C7800000000000300000050A400200000000035
:102C880050A40020B8A4002020A5002000000000C7
:102C9800000000000000000000000000000000002C
:102CA800000000000000000000000000000000001C
:102CB800000000000000000000000000000000000C
:0C2CC80000000000000000001C000020C4
:040000050800093DA9
:00000001FF
