:020000040800F2
:1000000000400220E10D0008CD0A0008D30A0008D4
:1000100000000000000000000000000000000000E0
:10002000000000000000000000000000D90A0008E5
:100030000000000000000000E30A0008ED0A0008CC
:10004000310E0008310E0008310E0008310E000894
:10005000310E0008310E0008310E0008310E000884
:10006000310E0008310E0008310E0008310E000874
:10007000310E0008310E0008310E0008310E000864
:10008000310E0008310E0008310E0008310E000854
:10009000310E0008FD0A0008310E0008310E00087C
:1000A000310E0008310E0008310E0008310E000834
:0C00B000310E0008150B0008310E00088E
:1000C00010B5064C2378002B07D1054B002B02D02E
:1000D000044800E000BF0123237010BDF40000209D
:1000E00000000000E0650008044B10B5002B03D0B1
:1000F0000349044800E000BF10BDC04600000000F6
:10010000F8000020E0650008002243088B4274D309
:1001100003098B425FD3030A8B4244D3030B8B4208
:1001200028D3030C8B420DD3FF22090212BA030C11
:100130008B4202D31212090265D0030B8B4219D3F2
:1001400000E0090AC30B8B4201D3CB03C01A524112
:10015000830B8B4201D38B03C01A5241430B8B425A
:1001600001D34B03C01A5241030B8B4201D30B0343
:10017000C01A5241C30A8B4201D3CB02C01A52416A
:10018000830A8B4201D38B02C01A5241430A8B422D
:1001900001D34B02C01A5241030A8B4201D30B0216
:1001A000C01A5241CDD2C3098B4201D3CB01C01A30
:1001B000524183098B4201D38B01C01A524143093A
:1001C0008B4201D34B01C01A524103098B4201D328
:1001D0000B01C01A5241C3088B4201D3CB00C01A95
:1001E000524183088B4201D38B00C01A524143080D
:1001F0008B4201D34B00C01A5241411A00D2014632
:10020000524110467047FFE701B5002000F0F0F8BA
:1002100002BDC0460029F7D076E7704703460B437E
:100220007FD4002243088B4274D303098B425FD3EF
:10023000030A8B4244D3030B8B4228D3030C8B421B
:100240000DD3FF22090212BA030C8B4202D3121201
:10025000090265D0030B8B4219D300E0090AC30BD6
:100260008B4201D3CB03C01A5241830B8B4201D383
:100270008B03C01A5241430B8B4201D34B03C01A6C
:100280005241030B8B4201D30B03C01A5241C30AE4
:100290008B4201D3CB02C01A5241830A8B4201D355
:1002A0008B02C01A5241430A8B4201D34B02C01A3F
:1002B0005241030A8B4201D30B02C01A5241CDD2E4
:1002C000C3098B4201D3CB01C01A524183098B422F
:1002D00001D38B01C01A524143098B4201D34B0118
:1002E000C01A524103098B4201D30B01C01A52417B
:1002F000C3088B4201D3CB00C01A524183088B4202
:1003000001D38B00C01A524143088B4201D34B00EA
:10031000C01A5241411A00D201465241104670475C
:100320005DE0CA0F00D04942031000D34042534061
:1003300000229C4603098B422DD3030A8B4212D321
:10034000FC22890112BA030A8B420CD38901921153
:100350008B4208D3890192118B4204D389013AD090
:10036000921100E08909C3098B4201D3CB01C01A65
:10037000524183098B4201D38B01C01A5241430978
:100380008B4201D34B01C01A524103098B4201D366
:100390000B01C01A5241C3088B4201D3CB00C01AD3
:1003A000524183088B4201D38B00C01A5241D9D2EB
:1003B00043088B4201D34B00C01A5241411A00D26C
:1003C0000146634652415B10104601D34042002B68
:1003D00000D54942704763465B1000D3404201B5E7
:1003E000002000F005F802BD0029F8D016E770479C
:1003F0007047C046002B11D1002A0FD1002900D12F
:10040000002802D00021C943080007B4024802A115
:100410004018029003BDC046D9FFFFFF03B46846F1
:1004200001B5029800F006F8019B9E4602B00CBC94
:100430007047C046F0B557464E464546DE46E0B5E5
:1004400004000D009246994683B08B4230D82DD0DF
:100450004946504600F0BAF829000600200000F096
:10046000B5F8331A9846203B34D49B4653465A4637
:10047000934042461F00534693401E00AF423BD874
:10048000AF4200D179E05B46A41BBD41002B00DAEE
:1004900076E0002200230092019301235A46934004
:1004A0000193012342469340009329E08242CFD931
:1004B00000220023009201930C9B002B01D01C60B2
:1004C0005D600098019903B0F0BCBB46B246A946F6
:1004D000A046F0BD42469B4620239B1A5246DA4076
:1004E000414613004A468A40170042461F4353467E
:1004F00093401E00AF42C3D9002200230092019313
:100500004346002BD8D0FB0772081A4346467B08A7
:100510000EE0AB4201D1A2420CD8A41A9D410120A9
:1005200024196D410021013E24184D41002E06D0B2
:10053000AB42EED9013E24196D41002EF8D100984E
:1005400001995B4600196941002B24DB2B005A46B8
:100550004446D3402A00E2401C005B461500002BB5
:100560002ADB26009E40330026004746BE4032006C
:10057000801A9941009001919EE7A342BCD882E77E
:100580004246202300219B1A002200910192012261
:10059000DA40019285E7424620239B1A2A0046460C
:1005A0009A402300F340444613432A00E2401C00D3
:1005B0005B461500002BD4DA42462F00202326008C
:1005C00097409B1ADE403B003343CDE710B500292E
:1005D00003D100F007F8203002E0080000F002F834
:1005E00010BDC0461C2101231B04984201D3000CFE
:1005F00010391B0A984201D3000A08391B09984296
:1006000001D30009043902A2105C40187047C046AB
:1006100004030202010101010000000000000000CB
:1006200080B500AF204B214A1A601F4B00225A6050
:100630001D4BC02292009A601B4B0022DA601A4BBD
:1006400001221A74184B00225A74174B00229A7414
:10065000154B08225A61144B03229A61124B0C224B
:10066000DA61114B03221A620F4B02225A620E4BBF
:1006700003229A620C4B0C22DA620B4B03221A63A0
:10068000094B01225A63084B00229A63064B002251
:10069000DA63054B180000F033FE031E01D000F0B2
:1006A000E7F9C046BD4680BD280100200064004037
:1006B00090B59DB000AF78605C23FB181800142340
:1006C0001A00002105F0B0FC10243B1918004C233F
:1006D0001A00002105F0A8FC7B681B68264A93429B
:1006E00046D13B19802292041A603B1900229A6479
:1006F0003B19180003F054F8031E01D000F0B8F9BC
:100700001E4BDA6B1D4B802149010A43DA631B4BF8
:10071000DA6B80235B011340FB60FB68174B5A6B5D
:10072000164B08210A435A63144B5B6B0822134093
:10073000BB60BB685C217B1803221A607B18022215
:100740005A607B1800229A607B180022DA607B18BE
:1007500003221A617B180A4A1900100002F040F9BE
:1007600000220121152000F0D1FC152000F0E3FC4F
:10077000C046BD461DB090BD006400400010024060
:10078000000C005090B58BB000AF14243B1918003A
:1007900014231A00002105F047FC414B5A6B404BD3
:1007A00020210A435A633E4B5B6B202213403B617E
:1007B0003B693B4B5A6B3A4B01210A435A63384B16
:1007C0005B6B01221340FB60FB68354B5A6B344B6B
:1007D00002210A435A63324B5B6B02221340BB6017
:1007E000BB682F4B5A6B2E4B04210A435A632C4B88
:1007F0005B6B042213407B607B68294B5A6B284B50
:1008000008210A435A63264B5B6B082213403B6066
:100810003B682449A023DB050022180002F04CFAB3
:10082000214B00228021180002F046FA3B191D4A94
:100830001A603B1901225A603B1900229A603B1949
:100840000022DA603A19A023DB051100180002F03B
:10085000C7F83B1940221A603B1900225A603B1925
:1008600001229A603B19104A1900100002F0B8F8F2
:1008700021007B1880221A607B1801225A607B18A5
:1008800000229A607B180022DA607B18064A190061
:10089000100002F0A5F8C046BD460BB090BDC046A2
:1008A00000100240038200000008005080B582B0B2
:1008B00000AF786001235B42391D0448012203F038
:1008C00001FA7B681800BD4602B080BD900100208F
:1008D00080B582B000AF00F0ADFA00F06BF8FFF722
:1008E00051FFFFF79DFE00F0C3F92C4B180005F0F7
:1008F0009FFA04F0C5FD2A4B1B78012BFBD1294B35
:100900001B78012BF7D1284B180005F091FA254BE5
:1009100000221A7004F064FE244B1A68FB1D1A7042
:10092000FB1D1B78922B29D02ADC822B2AD027DCB6
:10093000732B29D024DC632B28D021DC442B1AD044
:100940001EDC212B08DC002B1ADB212B18D89A0087
:10095000174BD3181B689F46312B09D010E004F0C9
:1009600023FF14E004F04EFF11E004F063FF0EE0FB
:1009700004F0FAFF0BE005F077F808E0C04606E067
:10098000C04604E0C04602E0C04600E0C046044B5A
:1009900000221A70034B01221A70ACE708660008A7
:1009A0004502002044020020106600086C0200206E
:1009B0004066000890B595B000AF14243B191800AC
:1009C0003C231A00002105F02FFB3B1D18001023CB
:1009D0001A00002105F028FB80239B00180002F07C
:1009E00089F93B1902221A603B1980225200DA6011
:1009F00021007B1800221A617B1840225A617B1863
:100A000002221A627B1802225A627B1800229A6222
:100A10007B180822DA627B18802292021A637B1804
:100A2000802292045A637B18802292059A637B1875
:100A3000180002F0ABF9031E01D000F019F83B1DBD
:100A400007221A603B1D02225A603B1D00229A6059
:100A50003B1D0022DA603B1D0221180002F0F6FC6B
:100A6000031E01D000F004F8C046BD4615B090BD8D
:100A700080B500AF72B6C046FEE7000080B582B018
:100A800000AF114B1A6C104B01210A431A640E4B34
:100A90001B6C012213407B607B680B4BDA6B0A4BAB
:100AA000802149050A43DA63074BDA6B80235B0533
:100AB00013403B603B68C023DB00180000F064FA81
:100AC000C046BD4602B080BD0010024080B500AFF8
:100AD000FEE780B500AFFEE780B500AFC046BD467B
:100AE00080BD80B500AFC046BD4680BD80B500AFBB
:100AF00000F00AFAC046BD4680BD000080B500AFD8
:100B0000034B180001F05EF8C046BD4680BDC046EC
:100B10002801002080B500AF034B180003F076F9E0
:100B2000C046BD4680BDC0469001002080B586B05D
:100B300000AFF860B9607A6000237B610AE000E0F2
:100B400000BF0100BB685A1CBA60CAB21A707B6948
:100B500001337B617A697B689A42F0DB7B6818001D
:100B6000BD4606B080BD80B586B000AFF860B96004
:100B70007A6000237B6109E0BB685A1CBA601B786D
:100B80001800FFF793FE7B6901337B617A697B680C
:100B90009A42F1DB7B681800BD4606B080BD80B587
:100BA00082B000AF786001235B421800BD4602B0FE
:100BB00080BD80B582B000AF786039603B6880222C
:100BC00092015A6000231800BD4602B080BD80B576
:100BD00082B000AF786001231800BD4602B080BD2E
:100BE00080B584B000AFF860B9607A600023180067
:100BF000BD4604B080BD000080B586B000AF78600F
:100C0000144A154BD31A7B617B693B61134B1B68FC
:100C1000002B02D1114B124A1A60104B1A687B68E4
:100C2000D3183A699A4207D205F054FA03000C220D
:100C30001A6001235B4209E0084B1B68FB60074B0D
:100C40001A687B68D218054B1A60FB681800BD460D
:100C500006B080BD00400220000400008C0100208E
:100C6000B0A6002080B500AFC046BD4680BD0000E4
:100C700080B500AF234B244A1A60224BE122520276
:100C80005A60204B00229A601E4B0022DA601D4BF6
:100C900000221A611B4B0C225A611A4B00229A61E6
:100CA000184B0022DA61174B00221A62154B002202
:100CB0005A62144B00229A62124B180002F0ACFFE9
:100CC000031E01D0FFF7D4FE0E4B0021180004F0E4
:100CD000FFF9031E01D0FFF7CBFE0A4B00211800DD
:100CE00004F036FA031E01D0FFF7C2FE054B1800D0
:100CF00004F0B4F9031E01D0FFF7BAFEC046BD46AA
:100D000080BDC046900100200048004090B59DB0D5
:100D100000AF78605C23FB18180014231A00002130
:100D200005F082F910243B1918004C231A00002109
:100D300005F07AF97B681B68264A934246D13B1935
:100D400004221A603B190022DA603B19180002F0F5
:100D500027FD031E01D0FFF78BFE1F4BDA6B1E4BE6
:100D60008021C9020A43DA631B4BDA6B8023DB0262
:100D70001340FB60FB68184B5A6B174B02210A4368
:100D80005A63154B5B6B02221340BB60BB685C214E
:100D90007B18C02212011A607B1802225A607B184D
:100DA00000229A607B180022DA607B1804221A6104
:100DB0007B180A4A1900100001F012FE00220221DD
:100DC0001D2000F0A3F91D2000F0B5F9C046BD4676
:100DD0001DB090BD004800400010024000040050CB
:100DE0000D488546FFF73EFF0C480D490D4A00238C
:100DF00002E0D458C4500433C4188C42F9D30A4AD0
:100E00000A4C002301E013600432A242FBD305F038
:100E100067F9FFF75DFDFEE70040022000000020BB
:100E2000F400002070670008F4000020ACA6002049
:100E3000FEE7000080B582B000AFFB1D00221A70F3
:100E40000B4B1A680A4B802149000A431A600320A1
:100E500000F010F8031E03D0FB1D01221A7001E000
:100E6000FFF70CFEFB1D1B781800BD4602B080BDCD
:100E70000020024090B585B000AF78600F23FB18CA
:100E800000221A701D4B1B78002B2BD01C4B1C68AA
:100E90001A4B1B781900FA239800FFF735F9030065
:100EA00019002000FFF730F90300180000F053F993
:100EB000031E12D17B68032B0AD8796801235B4299
:100EC0000022180000F022F90E4B7A681A600DE03B
:100ED0000F23FB1801221A7008E00F23FB180122D0
:100EE0001A7003E00F23FB1801221A700F23FB185E
:100EF0001B781800BD4605B090BDC0460800002014
:100F0000000000200400002080B500AF054B1B78D6
:100F10001A00054B1B68D218034B1A60C046BD4629
:100F200080BDC046080000202402002080B500AF2C
:100F3000024B1B681800BD4680BDC046240200203D
:100F400080B584B000AF7860FFF7F0FF0300BB60AE
:100F50007B68FB60FB68013305D00A4B1B781A00E5
:100F6000FB689B18FB60C046FFF7E0FF0200BB6810
:100F7000D31AFA689A42F7D8C046C046BD4604B0B4
:100F800080BDC0460800002080B582B000AF786008
:100F9000064B1B68064A13401900044B7A680A4343
:100FA0001A60C046BD4602B080BDC0460000014088
:100FB000FFF9FFFF80B582B000AF0200FB1D1A7081
:100FC000FB1D1B787F2B09D8FB1D1B781A001F23E4
:100FD0001A40044B012191400A001A60C046BD46E8
:100FE00002B080BD00E100E090B583B000AF020028
:100FF0003960FB1D1A70FB1D1B787F2B28D82F4AE8
:10100000FB1D1B785BB29B08C0339B009B58FA1DED
:101010001278110003220A40D200FF2191400A00F9
:10102000D2431A4011003B689B01FF221A40FB1D6E
:101030001B78180003230340DB009A401F48FB1D68
:101040001B785BB29B080A43C0339B001A5031E007
:101050001B4AFB1D1B7819000F230B40083B9B0804
:1010600006339B00D31804331B68FA1D1278110055
:1010700003220A40D200FF2191400A00D2431A40C5
:1010800011003B689B01FF221A40FB1D1B781800D2
:1010900003230340DB009A400948FB1D1B781C001A
:1010A0000F232340083B9B080A4306339B00C318C9
:1010B00004331A60C046BD4603B090BD00E100E0B5
:1010C00000ED00E080B582B000AF78607B685A1E0A
:1010D00080235B049A4201D3012310E00A4B7A6813
:1010E000013A5A6001235B4203211800FFF77CFF9D
:1010F000054B00229A60044B07221A600023180057
:10110000BD4602B080BDC04610E000E080B584B0AE
:1011100000AFB9607A600F217B18021C1A70BA68A0
:101120007B181B785BB211001800FFF75DFFC0460B
:10113000BD4604B080BD80B582B000AF0200FB1D8B
:101140001A70FB1D1B785BB21800FFF733FFC04617
:10115000BD4602B080BD80B582B000AF78607B68CC
:101160001800FFF7AFFF03001800BD4602B080BDB6
:1011700080B582B000AF78607B68002B01D101237D
:101180004FE07B6825229B5CDBB2022B08D07B689A
:101190000422DA637B68242200219954012340E071
:1011A0007B681B681A687B681B680E218A431A607B
:1011B0007B689B6C1A687B689B6C1C490A401A60B0
:1011C0007B681B681A687B681B6801218A431A6068
:1011D0007B685B6C1C221A407B681B6C0121914070
:1011E0000A005A607B68DB6C7A68126D5A607B6813
:1011F0005B6D002B0CD07B685B6D1A687B685B6D48
:101200000A490A401A607B689B6D7A68D26D5A6001
:101210007B682522012199547B682422002199545E
:1012200000231800BD4602B080BDC046FFFEFFFF90
:1012300080B584B000AF78600F217B1800221A704F
:101240007B6825229B5CDBB2022B06D07B680422E4
:10125000DA637B1801221A7048E07B681B681A6801
:101260007B681B680E218A431A607B681B681A68BA
:101270007B681B6801218A431A607B689B6C1A6833
:101280007B689B6C1D490A401A607B685B6C1C2262
:101290001A407B681B6C012191400A005A607B68F0
:1012A000DB6C7A68126D5A607B685B6D002B0CD02A
:1012B0007B685B6D1A687B685B6D10490A401A6039
:1012C0007B689B6D7A68D26D5A607B68252201210C
:1012D00099547B682422002199547B689B6B002BD6
:1012E00004D07B689B6B7A68100098470F23FB182B
:1012F0001B781800BD4604B080BDC046FFFEFFFF4E
:1013000080B584B000AF78607B68002B01D10123E9
:101310004EE17B685C229B5CDBB2002B07D17B68D3
:101320005D22002199547B681800FFF7C1F97B68A2
:101330001B689A697B681B6810218A439A61FFF7D2
:10134000F5FD0300FB6012E0FFF7F0FD0200FB6813
:10135000D31A0A2B0BD97B681B6E01221A437B68B8
:101360001A667B685C2203219954012320E17B6883
:101370001B689B6908221340082BE5D07B681B681B
:101380009A697B681B6801210A439A61FFF7CEFDC9
:101390000300FB6012E0FFF7C9FD0200FB68D31AEF
:1013A0000A2B0BD97B681B6E01221A437B681A66D5
:1013B0007B685C22032199540123F9E07B681B6858
:1013C0009B6901221340E6D07B681B689A697B68A1
:1013D0001B6802210A439A617B681B68764A934224
:1013E00003D1764A7B685B6813607B681B7C012BAA
:1013F00008D17B681B689A697B681B6840218A4317
:101400009A6107E07B681B689A697B681B684021CA
:101410000A439A617B685B7C012B09D17B681B685E
:101420009A697B681B688021C9010A439A6107E0B9
:101430007B681B689A697B681B6861490A409A61EE
:101440007B689B7C012B08D17B681B689A697B6851
:101450001B685C490A409A6108E07B681B689A69CE
:101460007B681B68802149010A439A617B681B687D
:101470009B69554A134019007B689A687B681B6812
:101480000A439A617B681B689A697B681B68A42180
:101490008A439A617B681B681A697B681B68102104
:1014A0008A431A617B68DB68012B08D17B681B6863
:1014B0009A697B681B6804210A439A612CE07B6867
:1014C000DB68002B28D07B68DB68022B1CD07B6894
:1014D0001B689A697B681B6880210A439A617B6854
:1014E0001B681A697B681B6810210A431A617B68B4
:1014F000DB68032B10D17B681B689A697B681B68CB
:1015000020210A439A6107E07B681B689A697B681F
:101510001B6820210A439A617B689B69013B5A063C
:101520007B68DB69013B1B021A437B681B6A013B3A
:101530001A4311007B685B69013B1A047B681B68D6
:101540000A43DA617B689A68C0239B009A4215D1EE
:101550007B689B6A5A1E7B68DB6A013B1B021A434D
:101560007B681B6B013B1B011A4311007B685B6AA4
:10157000013B1A047B681B680A43DA607B681B68BE
:10158000C02299587B68DA6B7B681B680A43C021CC
:101590005A507B68180000F09FFC7B6800229A6517
:1015A0007B6800221A667B685C2201219954002323
:1015B0001800BD4604B080BD0064004000650040D6
:1015C000FFBFFFFFFFEFFFFFFFFCFFFF80B586B00F
:1015D00000AF7860396017203B187A685C21525C54
:1015E0001A700200BB181B78012B03D0BB181B78A4
:1015F000022B3DD13B681B68002B19D13B689B68CF
:101600009A073B68DB68DB061A433B681B691B04CF
:101610001A433B685B6913433B617B681A6C3B6808
:101620005B689B00D318BB60BB683A691A601DE019
:101630003B68DB685A073B681B6913433B613B68A7
:101640009B689A073B685B691343FB607B685A6C35
:101650003B685B68DB00D318BB60BB683A691A6003
:10166000BB680433BB60BB68FA681A60002306E0FD
:101670007B681B6E02221A437B681A6601231800DE
:10168000BD4606B080BD80B584B000AFF860B960DB
:101690007A60FB685C229B5CDBB2012B08D1BB68E3
:1016A0001902FB681B687A680A439A64002306E003
:1016B000FB681B6E04221A43FB681A66012318009C
:1016C000BD4604B080BD80B582B000AF78607B6855
:1016D0005C229B5CDBB2012B0AD17B681B68DA6859
:1016E0007B681B68802109040A43DA60002306E056
:1016F0007B681B6E04221A437B681A66012318005C
:10170000BD4602B080BD80B582B000AF78607B6816
:101710005C229B5CDBB2012B10D17B685C22022136
:1017200099547B681B689A697B681B6801218A430E
:101730009A617B6800221A66002306E07B681B6EB4
:1017400004221A437B681A6601231800BD4602B0C2
:1017500080BD80B586B000AFF860B9607A60FB6884
:101760005C229B5CDBB2022B2DD1FB681B68C42280
:101770009A5880239B03134008D0FB681B6E80227D
:1017800092001A43FB681A66012323E0FB681B687A
:10179000C4229B581B0C032213407B617B697A682F
:1017A000B968F86800F004FCFB681B6801217A69DD
:1017B00091400A00CC215A5001227B699A40FB6873
:1017C0009A65002306E0FB681B6E08221A43FB683B
:1017D0001A6601231800BD4606B080BD80B58AB0E8
:1017E00000AFF860B9607A603B600023FB611B20AA
:1017F0003B18FA685C21525C1A703B181B78022B6C
:1018000000D0ECE0BB68402B37D1FB681B6890220E
:101810009B580F22134008D1FB681B6E8022520098
:101820001A43FB681A660123E0E0FB681B689022FC
:101830009B581B0E01221340012B0AD1FB681B6829
:1018400080229B585B0A01221340012B01D1012306
:10185000FB61FB681B6890229B581B0A0322134004
:10186000FA69D318FB61FB68996CFA691300DB0015
:101870009B18DB00CB187B6236E0FB681B68982264
:101880009B580F22134008D1FB681B6E8022520028
:101890001A43FB681A660123A8E0FB681B689822BC
:1018A0009B581B0E01221340012B0AD1FB681B68B9
:1018B00080229B581B0A01221340012B01D10123D6
:1018C000FB61FB681B6898229B581B0A032213408C
:1018D000FA69D318FB61FB68D96CFA691300DB0065
:1018E0009B18DB00CB187B627B6A1A688023DB05C0
:1018F0001A407B685A607B685B68002B07D17B6A63
:101900001B689B0C5B055A0D7B681A6005E07B6ABF
:101910001B68DB00DA087B681A607B6A1A68802320
:101920009B051A407B689A607B6A1B68DB0FDA07AD
:101930007B681A617B6A04337B627B6A1B681B04C9
:101940001A0C7B68DA617B6A1B681B0C0F221A4039
:101950007B68DA607B6A1A6880235B031A407B68C5
:101960005A617B6A1A6880239B031A407B689A61DC
:101970007B6A1B681B0E7F221A407B681A627B6A97
:101980001B68DA0F7B685A627B6A04337B627B6A6E
:101990007B6100233B620AE07A693B6AD2183968AE
:1019A0003B6ACB1812781A703B6A01333B627B6842
:1019B000DB68104AD35C1A003B6A9342ECD3BB68E5
:1019C000402B05D1FB681B689421FA695A5004E04A
:1019D000FB681B689C21FA695A50002306E0FB68EB
:1019E0001B6E08221A43FB681A6601231800BD46C5
:1019F0000AB080BD2867000880B584B000AF786069
:101A00007B681B68C4229B5807221340FB60FB685D
:101A10001800BD4604B080BD80B586B000AFF86048
:101A2000B9607A6017203B18FA685C21525C1A7022
:101A30000200BB181B78012B04D0BB181B78022BAB
:101A400000D0B4E0FB681B689B6D3B61BB6807225C
:101A5000134003D03B690122134034D0BB683822C5
:101A6000134003D03B69022213402CD0BA68E02314
:101A70005B00134003D03B690422134023D0BA68B3
:101A8000F0235B01134003D03B69082213401AD0B6
:101A9000BA68E0231B02134003D03B6910221340B5
:101AA00011D0BA68C0239B02134003D03B692022A7
:101AB000134008D0BA68FC231B0413400BD03B69C9
:101AC0004022134007D1FB681B68DA6DFB681B6876
:101AD00001210A43DA65BB680722134003D03B6942
:101AE0000122134034D1BB683822134003D03B6934
:101AF000022213402CD1BA68E0235B00134003D0CC
:101B00003B690422134023D1BA68F0235B011340E0
:101B100003D03B69082213401AD1BA68E0231B02A4
:101B2000134003D03B691022134011D1BA68C0237F
:101B30009B02134003D03B692022134008D1BA68AE
:101B4000FC231B0413400BD03B694022134007D0F9
:101B5000FB681B68DA6DFB681B6802210A43DA65C3
:101B6000BB688022134009D0FB681B68DC229958AF
:101B7000FB681B687A680A43DC215A50BA688023E4
:101B80005B00134009D0FB681B68E0229958FB6892
:101B90001B687A680A43E0215A50FB681B68596D3C
:101BA000FB681B68BA680A435A65002306E0FB68B5
:101BB0001B6E02221A43FB681A6601231800BD46F9
:101BC00006B080BD80B58CB000AF78607B681B68C4
:101BD0001A6DE0235B011340FB627B681B685A6D42
:101BE000FB6A1340FB627B681B681B6D0722134076
:101BF000BB627B681B685A6DBB6A1340BB627B6823
:101C00001B681B6D382213407B627B681B685A6D12
:101C10007B6A13407B627B681B681A6DF1231B048F
:101C200013403B627B681B685A6D3B6A13403B6202
:101C30007B681B681A6DE0231B031340FB617B6804
:101C40001B685A6DFB691340FB617B681B685B6D09
:101C5000BB617B681B681B6D7B617B694022134005
:101C60000BD0BB694022134007D07B681B68402221
:101C70001A657B68180000F016F97A6980235B000A
:101C800013401BD0BA6980235B00134016D07B68D9
:101C90001B68D8229B583B617B681B68E0229A58DE
:101CA0003B6913403B617B681B68802252001A65C8
:101CB0003A697B681100180000F0DCF8FB6A002B21
:101CC00009D07B681B68FA6A1A65FA6A7B6811009A
:101CD000180000F0ACF8BB6A002B09D07B681B68C9
:101CE000BA6A1A65BA6A7B681100180003F0BCFC76
:101CF0007B6A002B09D07B681B687A6A1A657A6A4E
:101D00007B681100180000F09BF87A6980239B0023
:101D100013400DD0BA6980239B00134008D07B6824
:101D20001B68802292001A657B68180000F091F809
:101D30007B698022134019D0BB698022134015D0E3
:101D40007B681B68D4229B58FB607B681B68DC2285
:101D50009A58FB681340FB607B681B6880221A65F9
:101D6000FA687B681100180000F07BF87A6980231C
:101D70009B0113400DD0BA6980239B01134008D00A
:101D80007B681B68802292011A657B68180000F04E
:101D90007AF87A6980231B0213400DD0BA69802338
:101DA0001B02134008D07B681B68802212021A6550
:101DB0007B68180000F06FF87A698023DB0113401C
:101DC0000FD0BA698023DB0113400AD07B681B68FF
:101DD0008022D2011A657B681B6E80221A437B68C1
:101DE0001A66FB69002B09D07B681B68FA691A65C3
:101DF000FA697B681100180000F065F83B6A002B57
:101E000009D07B681B683A6A1A657B681A6E3B6A60
:101E10001A437B681A667B681B6E002B03D07B68B5
:101E2000180000F048F8C046BD460CB080BD80B533
:101E300082B000AF78603960C046BD4602B080BD58
:101E400080B582B000AF78603960C046BD4602B050
:101E500080BD80B582B000AF7860C046BD4602B09C
:101E600080BD80B582B000AF78603960C046BD46A5
:101E700002B080BD80B582B000AF78603960C046E6
:101E8000BD4602B080BD80B582B000AF7860C0466C
:101E9000BD4602B080BD80B582B000AF7860C0465C
:101EA000BD4602B080BD80B582B000AF7860C0464C
:101EB000BD4602B080BD80B582B000AF7860C0463C
:101EC000BD4602B080BD80B582B000AF7860396099
:101ED000C046BD4602B080BD80B584B000AF78601A
:101EE0002F4BBB607B681B682E4A934205D1BB68B1
:101EF000D422920094466344BB607B68BA681A643B
:101F00007B681B6880229B58274A134019007B6816
:101F10005B6B1A047B681B680A4380215A50BB68BC
:101F200070331A007B685A647B681B6880229B5858
:101F30001E4A134019007B689B6B1A067B681B685E
:101F40000A4380215A50BB68B0331A007B689A64F8
:101F5000BB688933FF331A007B68DA64BB68982258
:101F600092009A187B681A65BB689E2292009A18A4
:101F70007B685A65BB68FB6005E0FB6800221A605D
:101F8000FB680433FB60BB68D42292009446634430
:101F9000FA689A42F1D3C046C046BD4604B080BD3F
:101FA00000B4004000680040FFFFE0FFFFFFFFF0CB
:101FB00080B588B000AFF860B9607A603B60BB68FC
:101FC0005B68002B0AD1BB681A69BB689B681A431F
:101FD000BB681B689B041343FB610BE0BB681A6979
:101FE000BB689B681A43BB681B6813438022D205F9
:101FF0001343FB61BB681B6A1A06BB68DB691A43A3
:10200000BB689B691A43BB685B691A43BB68DB68A2
:102010001B0413433B61FB68596D3A681300DB00F6
:102020009B18DB00CB18BB61BB69FA691A60BB69FE
:102030000433BB61BB693A691A60BB690433BB6195
:1020400000237B6120E07B6903337A68D3181B7817
:102050001A067B6902337968CB181B781B041A4374
:102060007B6901337968CB181B781B0213437968AD
:102070007A698A1812781A43BB691A60BB690433FB
:10208000BB617B6904337B61BB68DB68054AD35C59
:102090001A007B699342D6D3C046C046BD4608B0FD
:1020A00080BDC04628670008B0B586B000AFF860B4
:1020B000B9603A607B60214B1B78012B01D1022370
:1020C00038E01E4B01221A701C4B00225A60172563
:1020D0007C19FA239B00180000F07AF803002370A3
:1020E0007B191B78002B1FD1FB68012B06D13A68A6
:1020F0007B68B968080000F0B9F805E03A68BB6889
:102100001100180004F078FA1723FC18FA239B003A
:10211000180000F05DF803002370094B5A69FB6852
:10212000D943074B0A405A61044B00221A70172307
:10213000FB181B781800BD4606B0B0BD2802002071
:102140000020024080B582B000AFFB1D00221A7053
:102150000B4B5B69002B0CDA094B0A4A9A60084B5F
:10216000094A9A60064B5B69002B02DAFB1D0122CB
:102170001A70FB1D1B781800BD4602B080BDC0461A
:102180000020024023016745AB89EFCD80B582B0C6
:1021900000AFFB1D01221A70FA239B00180000F00B
:1021A00017F80A4B5A69094B802109060A435A61FC
:1021B000064B5B69002B02DAFB1D00221A70FB1D27
:1021C0001B781800BD4602B080BDC046002002400A
:1021D00080B584B000AF7860FEF7A8FE0300FB6016
:1021E000C0239B02BB600CE07B68013309D0FEF783
:1021F0009DFE0200FB68D31A7A689A4201D8032335
:1022000028E0164B1B69BA681340EDD1134B1B69CC
:10221000134A1340BB60114B124A1A61BB68002B72
:1022200011D0114BBA685A60012313E07B68013367
:1022300009D0FEF77BFE0200FB68D31A7A689A4247
:1022400001D8032306E0054B1A698023DB02134003
:10225000ECD100231800BD4604B080BD0020024030
:10226000FAC30000FBC3080028020020B0B584B008
:1022700000AFF8603A607B600B4B5A690A4B012152
:102280000A435A61FB683A681A60BFF36F8FC04611
:102290007B681C0000231D00FB68043322001A60C9
:1022A000C046BD4604B0B0BD00200240B0B584B009
:1022B00000AF78603960334B1B78012B01D10223CA
:1022C0005CE0304B01221A702E4B00225A600F2521
:1022D0007C19FA239B001800FFF77AFF0300237094
:1022E0002C003B191B78002B42D17B681B68042B08
:1022F0000DD17B685B68180000F0AAF83C19FA233E
:102300009B001800FFF764FF0300237030E03B6878
:10231000012252421A607B689B68BB601AE07B68AE
:102320005B68BA681100180000F0A6F80F257C1948
:10233000FA239B001800FFF74BFF030023707B1963
:102340001B78002B03D03B68BA681A600AE0BB68B0
:102350000133BB607B689A687B68DB68D318BA6816
:102360009A42DCD3084B5A69074B02218A435A61CF
:10237000044B00221A700F23FB181B781800BD466F
:1023800004B0B0BD280200200020024080B582B019
:1023900000AF78607B681F221A607B6858687B6892
:1023A000083319007B680C331A0000F091F800F034
:1023B000DBF802007B681A6100F0EEF802007B682F
:1023C0009A617B68214A5A617B681C3318007B68DC
:1023D000203319007B6824331A0000F0EFF87B6883
:1023E00028331A007B682C331900100000F07AF9AA
:1023F0007B68DB6903221A437B68DA617B683033D0
:102400001A007B6834331900100000F0EFF97B6884
:1024100038331A007B683C331900100000F052FA80
:102420007B68DB690C221A437B68DA617B68403386
:1024300018007B68443319007B6848331A0000F0A9
:10244000ADFAC046BD4602B080BDC04600FF7F3F2A
:1024500080B582B000AF7860064B5A697B681A433A
:10246000044B802149020A435A61C046BD4602B06E
:1024700080BDC0460020024080B584B000AF7860C7
:1024800039600F4B5B690F4A1340FB607B68042B7C
:1024900005D0FB68802292011343FB6003E0FB68D8
:1024A000094A1340FB603B68DA00FB681A43044B9F
:1024B00006490A435A61C046BD4604B080BDC046C5
:1024C0000020024007E0FFFFFFDFFFFF02000100E6
:1024D00080B584B000AFF860B9607A60FB68012B0A
:1024E0000DD1204BDB6A7F221A40BB681A601D4B5E
:1024F000DB6A1B0C7F221A407B681A602EE0FB68A7
:10250000042B0DD1174BDB6C7F221A40BB681A607D
:10251000144BDB6C1B0C7F221A407B681A601DE099
:10252000FB68082B0DD10F4B1B6D7F221A40BB6837
:102530001A600C4B1B6D1B0C7F221A407B681A60C3
:102540000CE0084B1B6B7F221A40BB681A60054BDE
:102550001B6B1B0C7F221A407B681A60C046BD466D
:1025600004B080BD0020024080B582B000AF094BAE
:102570001B6AFF2213407B607B68AA2B04D07B6818
:10258000CC2B01D0BB2300E07B681800BD4602B015
:1025900080BDC0460020024080B582B000AF054B30
:1025A0001B6A054A13407B607B681800BD4602B079
:1025B00080BDC0460020024000FF7F3F80B586B04E
:1025C00000AFF860B9607A603E4B1A6A80235B0303
:1025D0001A4080235B039A423FD03B4B1A68C023CA
:1025E0009B04134039D0384B1A68C0239B041A400F
:1025F00080235B049A4205D1344B1A6880239B03E5
:1026000013402AD0304B1A68C0239B0413400ED0CD
:102610002D4B1A68C0239B041A4080235B049A4206
:102620000FD12A4B1A6880239B03134009D1284BF2
:102630001B689B02274A134080221205944663447C
:1026400009E0234B1B689B025B08234A134080224E
:102650001205944663447B6102E080231B057B6185
:10266000184B5B6ADB05DB0D3B613B695A02BB68BB
:102670001A60BB681A687B69D218BB681A60114B74
:102680009B6A3B613B695B02144A1A407B681A6093
:102690007B681A687B69D318114A9A187B681A609C
:1026A000FB681B685B005A08FB681A60FB681A68C5
:1026B0003B69DB0FDB071A43FB681A60C046BD4667
:1026C00006B080BD002002400075FF1F20200240A0
:1026D000E075FF1F00FC0F0000FE070000FE030076
:1026E000FF01000080B584B000AF78603960384BDE
:1026F0001A6A80235B031A4080235B039A423FD00F
:10270000344B1A68C0239B04134039D0314B1A68EC
:10271000C0239B041A4080235B049A4205D12E4BB0
:102720001A6880239B0313402AD02A4B1A68C023BF
:102730009B0413400ED0274B1A68C0239B041A40F9
:1027400080235B049A420FD1234B1A6880239B039A
:10275000134009D1214B1B689B02214A1340802260
:1027600012059446634409E01C4B1B689B025B08FE
:102770001C4A13408022120594466344FB6002E029
:1027800080231B05FB60124B5B6BDB05DB0DBB6025
:10279000BB685A027B681A607B681A68FB68D218AB
:1027A0007B681A600A4B9B6BDB05DB0DBB60BB686B
:1027B0005A023B681A603B681A68FB68D3180A4AD9
:1027C0009A183B681A60C046BD4604B080BDC0463A
:1027D000002002400075FF1F20200240E075FF1F0F
:1027E00000FC0F0000FE0700FF01000080B584B070
:1027F00000AF786039602C4B1A6A80235B0313406A
:102800002AD02A4B1A68C0239B0413400ED0274BB2
:102810001A68C0239B041A4080235B049A420FD19C
:10282000234B1A6880239B03134009D1214B1B685B
:102830009B02214A1340802212059446634409E01A
:102840001C4B1B689B025B081C4A1340802212052C
:1028500094466344FB6002E080231B05FB60124B3F
:102860005B6CDB05DB0DBB60BB685A027B681A60E2
:102870007B681A68FB68D2187B681A600A4B9B6CED
:10288000DB05DB0DBB60BB685A023B681A603B6826
:102890001A68FB68D3180A4A9A183B681A60C0463F
:1028A000BD4604B080BDC046002002400075FF1F39
:1028B00020200240E075FF1F00FC0F0000FE070013
:1028C000FF01000080B584B000AF786039602C4B08
:1028D0001A6A80235B0313402AD02A4B1A68C0234C
:1028E0009B0413400ED0274B1A68C0239B041A4048
:1028F00080235B049A420FD1234B1A6880239B03E9
:10290000134009D1214B1B689B02214A13408022AE
:1029100012059446634409E01C4B1B689B025B084C
:102920001C4A13408022120594466344FB6002E077
:1029300080231B05FB60124B5B6DDB05DB0DBB6071
:10294000BB685A027B681A607B681A68FB68D218F9
:102950007B681A600A4B9B6DDB05DB0DBB60BB68B7
:102960005A023B681A603B681A68FB68D3180A4A27
:102970009A183B681A60C046BD4604B080BDC04688
:10298000002002400075FF1F20200240E075FF1F5D
:1029900000FC0F0000FE0700FF01000080B586B0BC
:1029A00000AFF860B9607A600C4A8023D3587B612D
:1029B0007A6980235B021A40FB681A607B69FF22F8
:1029C0001A40BB681A607B691B0DFF221A407B68A6
:1029D0001A60C046BD4606B080BDC0460020024019
:1029E00080B586B000AF7860396000237B614DE12F
:1029F0003B681B6801217A6991400A001340FB6023
:102A0000FB68002B00D13EE13B685B68032213406A
:102A1000012B05D03B685B6803221340022B30D1A9
:102A20007B689B683B617B695B0003229A401300D3
:102A3000DA433B6913403B613B68DA687B695B00C2
:102A40009A4013003A6913433B617B683A699A6084
:102A50007B685B683B6101227B699A401300DA4323
:102A60003B6913403B613B685B681B0901221A40CC
:102A70007B699A4013003A6913433B617B683A696A
:102A80005A603B685B6803221340032B17D07B68B6
:102A9000DB683B617B695B0003229A401300DA43E9
:102AA0003B6913403B613B689A687B695B009A40D5
:102AB00013003A6913433B617B683A69DA603B680B
:102AC0005B6803221340022B23D17B69DA087B6801
:102AD00008329200D3583B617B69072213409B0068
:102AE0000F229A401300DA433B6913403B613B6875
:102AF0001A697B6907210B409B009A4013003A69D1
:102B000013433B617B69DA087B68083292003969BC
:102B1000D1507B681B683B617B695B0003229A4054
:102B20001300DA433B6913403B613B685B68032257
:102B30001A407B695B009A4013003A6913433B617A
:102B40007B683A691A603B685A68C0239B0213404D
:102B500000D198E0534A7B699B0818339B009B582F
:102B60003B617B6903221340DB000F229A40130074
:102B7000DA433B6913403B617A68A023DB059A4244
:102B800019D07B68484A934213D07B68474A9342E6
:102B90000DD07B68464A934207D07B68454A9342F2
:102BA00001D1042308E0052306E0032304E0022307
:102BB00002E0012300E000237A6903210A40D200E9
:102BC00093403A6913433B6136497B699B0818334C
:102BD0009B003A695A50334B1B683B61FB68DA43F0
:102BE0003B6913403B613B685A6880235B03134099
:102BF00003D03A69FB6813433B612A4B3A691A6078
:102C0000284B5B683B61FB68DA433B6913403B61DF
:102C10003B685A6880239B03134003D03A69FB68E2
:102C200013433B611F4B3A695A601E4A8423D358B1
:102C30003B61FB68DA433B6913403B613B685A6880
:102C400080239B02134003D03A69FB6813433B6126
:102C5000144984223B698B50124A8023D3583B612C
:102C6000FB68DA433B6913403B613B685A68802349
:102C70005B02134003D03A69FB6813433B61094987
:102C800080223B698B507B6901337B613B681A680A
:102C90007B69DA40131E00D0AAE6C046C046BD4696
:102CA00006B080BD0018024000040050000800502B
:102CB000000C00500010005080B582B000AF78606A
:102CC00008001100BB1C021C1A807B1C0A1C1A7015
:102CD0007B1C1B78002B04D0BB1C1A887B689A6174
:102CE00003E0BB1C1A887B689A62C046BD4602B0EE
:102CF00080BD000080B584B000AF7860194B1B68C0
:102D0000194A13401900174B7A680A431A607A6807
:102D100080239B009A421FD1144B1A6813005B005A
:102D20009B185B0012491800FDF7EEF90300013310
:102D3000FB6008E0FB68002B03D0FB68013BFB60F5
:102D400001E0032309E0074B5A698023DB001A40A6
:102D50008023DB009A42EDD000231800BD4604B06A
:102D600080BDC04600700040FFF9FFFF000000205A
:102D700040420F0080B500AF034B9A68E023DB01AF
:102D800013401800BD4680BD0010024080B588B0D9
:102D900000AF78607B68002B02D1012300F050FB6C
:102DA0007B681B680122134000D17CE0C34B9B6809
:102DB00038221340BB61C14BDB68032213407B61A7
:102DC000BB69102B02D17B69032B02D0BB69082B96
:102DD0000BD1BA4B1A6880239B02134062D07B68E8
:102DE0005B68002B5ED101232AE37B685A6880234D
:102DF0005B029A4207D1B14B1A68B04B802149025D
:102E00000A431A6020E07B685A68A023DB029A42DA
:102E10000ED1AA4B1A68A94B8021C9020A431A6035
:102E2000A64B1A68A54B802149020A431A600BE0A1
:102E3000A24B1A68A14BA2490A401A609F4B1A681C
:102E40009E4BA0490A401A607B685B68002B14D037
:102E5000FEF76CF803003B6108E0FEF767F802003C
:102E60003B69D31A642B01D90323E9E2934B1A6817
:102E700080239B021340F0D015E0FEF757F80300C3
:102E80003B6108E0FEF752F802003B69D31A642B5D
:102E900001D90323D4E2894B1A6880239B02134093
:102EA000F0D100E0C0467B681B680222134000D1CD
:102EB00099E0824B9B6838221340BB617F4BDB68F3
:102EC000032213407B61BB69102B02D17B69022B6B
:102ED00002D0BB69002B35D1784B1A688023DB0008
:102EE000134005D07B68DB68002B01D10123A7E2EA
:102EF000724B5B68744A134019007B685B691A0265
:102F00006E4B0A435A60BB69002B12D16B4B1B6896
:102F10006E4A134019007B681A69684B0A431A60AD
:102F2000664B1B68DB0A07221340694ADA40694B8B
:102F30001A60694B1B681800FDF79CFF031E51D0F7
:102F400001237DE27B68DB68002B30D05B4B1B6884
:102F50005E4A134019007B681A69584B0A431A608D
:102F6000564B1A68554B802149000A431A60FDF7F9
:102F7000DDFF03003B6108E0FDF7D8FF02003B697D
:102F8000D31A022B01D903235AE24C4B1A6880232F
:102F9000DB001340F0D0494B5B684B4A13401900EB
:102FA0007B685B691A02454B0A435A601BE0434B3E
:102FB0001A68424B49490A401A60FDF7B7FF0300FF
:102FC0003B6108E0FDF7B2FF02003B69D31A022B18
:102FD00001D9032334E2394B1A688023DB00134004
:102FE000F0D100E0C0467B681B680822134047D040
:102FF000324B9B6838221340182B0AD12F4B1B6E83
:10300000022213403CD07B689B69002B38D10123FE
:1030100016E27B689B69002B19D0284B1A6E274B50
:1030200001210A431A66FDF781FF03003B6108E0B6
:10303000FDF77CFF02003B69D31A022B01D9032361
:10304000FEE11E4B1B6E02221340F1D018E01B4B19
:103050001A6E1A4B01218A431A66FDF767FF0300B7
:103060003B6108E0FDF762FF02003B69D31A022BC7
:1030700001D90323E4E1114B1B6E02221340F1D16D
:103080007B681B680422134000D1C7E01F23FB1894
:1030900000221A70094B9B6838221340202B1FD145
:1030A000064BDB6D0222134000D1B7E07B689B68C2
:1030B000002B00D0B2E00123C2E1C0460010024064
:1030C000FFFFFEFFFFFFFBFFFF80FFFFFFC7FFFFCC
:1030D0000024F4000000002004000020FFFEFFFF99
:1030E000B54BDA6B80235B05134001D1012300E06F
:1030F0000023002B11D0B04BDA6BAF4B8021490578
:103100000A43DA63AC4BDA6B80235B051340FB6048
:10311000FB681F23FB1801221A70A84B1A68802332
:103120005B0013401AD1A54B1A68A44B80214900BB
:103130000A431A60FDF7FAFE03003B6108E0FDF761
:10314000F5FE02003B69D31A022B01D9032377E174
:103150009A4B1A6880235B001340F0D07B689B6811
:10316000012B06D1944BDA6D934B01210A43DA65AA
:103170001CE07B689B68052B0CD18F4BDA6D8E4B66
:1031800004210A43DA658C4BDA6D8B4B01210A432B
:10319000DA650BE0884BDA6D874B01218A43DA65EB
:1031A000854BDA6D844B04218A43DA657B689B6822
:1031B000002B14D0FDF7BAFE03003B6109E0FDF7D8
:1031C000B5FE02003B69D31A7D4A934201D903231D
:1031D00036E1794BDB6D02221340F0D013E0FDF7AE
:1031E000A5FE03003B6109E0FDF7A0FE02003B697C
:1031F000D31A734A934201D9032321E16E4BDB6D4D
:1032000002221340F0D11F23FB181B78012B05D19C
:10321000694BDA6B684B6B490A40DA637B681B6861
:103220002022134039D07B68DB69002B1BD0624B16
:103230001A68614B8021C9030A431A60FDF776FEC4
:1032400003003B6108E0FDF771FE02003B69D31A01
:10325000022B01D90323F3E0574B1A6880231B0488
:103260001340F0D019E0544B1A68534B56490A40AA
:103270001A60FDF75BFE03003B6108E0FDF756FEB8
:1032800002003B69D31A022B01D90323D8E04A4B31
:103290001A6880231B041340F0D17B681B6A002B43
:1032A00000D1CCE0444B9B6838221340102B00D156
:1032B0007BE07B681B6A022B56D13F4B1A683E4B62
:1032C00042490A401A60FDF731FE03003B6108E005
:1032D000FDF72CFE02003B69D31A022B01D9032310
:1032E000AEE0354B1A6880239B041340F0D1324B7B
:1032F000DB68374A134019007B685A6A7B689B6A0F
:103300001A437B68DB6A1B021A437B681B6B1A43F8
:103310007B685B6B1A437B689B6B1A43264B0A43A3
:10332000DA60254B1A68244B802149040A431A604D
:10333000214BDA68204B802149050A43DA60FDF70A
:10334000F5FD03003B6108E0FDF7F0FD02003B697D
:10335000D31A022B01D9032372E0174B1A6880237A
:103360009B041340F0D06AE0134B1A68124B1749C4
:103370000A401A60FDF7DAFD03003B6108E0FDF743
:10338000D5FD02003B69D31A022B01D9032357E074
:10339000094B1A6880239B041340F0D1064BDA686E
:1033A000054B0C490A40DA6049E07B681B6A012B37
:1033B00012D1012344E0C0460010024000700040DA
:1033C00088130000FFFFFFEFFFFFBFFFFFFFFFFEBF
:1033D0008C80C111FCFFFEEE1B4BDB687B617B69BF
:1033E00003221A407B685B6A9A4226D17B6970226D
:1033F0001A407B689B6A9A421FD17A69FE23DB01DF
:103400001A407B68DB6A1B029A4216D17A69F8235C
:103410009B031A407B681B6B9A420ED17A69E023AA
:103420001B051A407B685B6B9A4206D17B695B0F78
:103430005A077B689B6B9A4201D0012300E000236E
:103440001800BD4608B080BD0010024080B584B0B1
:1034500000AF786039607B68002B01D10123E9E07F
:10346000764B1B68072213403A689A421ED9734B69
:103470001B68072293431900704B3A680A431A608D
:10348000FDF754FD0300FB6009E0FDF74FFD02006E
:10349000FB68D31A6A4A934201D90323CAE0674BF7
:1034A0001B68072213403A689A42EED17B681B687A
:1034B0000222134015D07B681B680422134006D0FB
:1034C000604B9A685F4BE021C9010A439A605D4BEB
:1034D0009B685D4A134019007B689A68594B0A4300
:1034E0009A607B681B680122134057D07B685B6839
:1034F000012B07D1534B1A6880239B0213402BD119
:10350000012397E07B685B68022B07D14D4B1A685B
:1035100080239B0413401FD101238BE07B685B68F1
:10352000002B07D1474B1A688023DB00134013D1CF
:1035300001237FE07B685B68032B06D1414B1B6E48
:103540000222134008D1012374E03E4BDB6D0222BE
:10355000134001D101236DE03A4B9B68072293434E
:1035600019007B685A68374B0A439A60FDF7DEFC06
:103570000300FB6009E0FDF7D9FC0200FB68D31AE9
:103580002F4A934201D9032354E02E4B9B683822E3
:103590001A407B685B68DB009A42ECD1274B1B68C2
:1035A000072213403A689A421ED2244B1B68072216
:1035B00093431900214B3A680A431A60FDF7B6FCA1
:1035C0000300FB6009E0FDF7B1FC0200FB68D31AC1
:1035D0001B4A934201D903232CE0184B1B68072296
:1035E00013403A689A42EED17B681B68042213406C
:1035F00009D0144B9B68154A134019007B68DA68A0
:10360000104B0A439A6000F029F801000D4B9B68AB
:103610001B0A0F221A400E4B9200D3581F22134050
:103620000A00DA400B4B1A600B4B1B681800FDF7C1
:1036300021FC03001800BD4604B080BD00200240FC
:103640008813000000100240FFF0FFFFFF8FFFFF14
:10365000C8660008000000200400002080B586B085
:1036600000AF3C4B9B68382213400FD1394B1B688D
:10367000DB0A0722134001229A4013003B6039689D
:103680003548FCF741FD03003B615DE0314B9B6831
:1036900038221340082B02D1304B3B6154E02D4BB4
:1036A0009B6838221340102B38D12A4BDB68032249
:1036B0001340FB60274BDB681B09072213400133D3
:1036C000BB60FB68032B0DD1B9682448FCF71CFDD7
:1036D000030019001F4BDB681B0A7F2213404B437A
:1036E0007B610DE0B9681C48FCF70EFD0300190072
:1036F000184BDB681B0A7F2213404B437B61C0469B
:10370000144BDB685B0F0722134001337B60796841
:103710007869FCF7F9FC03003B6115E00D4B9B68F1
:1037200038221340202B03D180231B023B610BE086
:10373000084B9B6838221340182B03D1FA23DB0176
:103740003B6101E000233B613B691800BD4606B0C8
:1037500080BDC046001002400024F40000127A0030
:1037600080B500AF024B1B681800BD4680BDC04647
:1037700000000020B0B500AFFFF7F2FF0400FFF734
:10378000F9FA03001A0B054B9200D3581F2213407D
:10379000DC4023001800BD46B0BDC04608670008E5
:1037A00080B586B000AF78601323FB1800221A7032
:1037B0001223FB1800221A707B681A6880239B0270
:1037C000134000D1ADE011203B1800221A70474B86
:1037D000DA6B80235B05134010D1444BDA6B434B0B
:1037E000802149050A43DA63404BDA6B80235B058D
:1037F0001340BB60BB683B1801221A703C4B1A682F
:103800003B4B802149000A431A60FDF78FFB030000
:10381000FB600BE0FDF78AFB0200FB68D31A022B6A
:1038200004D91323FB1803221A7005E0304B1A68E1
:1038300080235B001340EDD01323FB181B78002B73
:103840005ED12A4BDA6DC0239B0013407B617B69FC
:10385000002B19D07B681B6C7A699A4214D0234BD9
:10386000DB6D244A13407B61204BDA6D1F4B8021B6
:1038700049020A43DA651D4BDA6D1C4B1E490A40AA
:10388000DA651A4B7A69DA657B690122134016D032
:10389000FDF74CFB0300FB600CE0FDF747FB02006B
:1038A000FB68D31A154A934204D91323FB18032249
:1038B0001A7004E00D4BDB6D02221340EDD0132390
:1038C000FB181B78002B0AD1084BDB6D094A13400B
:1038D00019007B681A6C054B0A43DA6516E012235F
:1038E000FB181322BA1812781A700FE00010024069
:1038F00000700040FFFCFFFFFFFFFEFF8813000089
:103900001223FB181322BA1812781A701123FB180D
:103910001B78012B05D1B64BDA6BB54BB5490A4084
:10392000DA637B681B680122134009D0B04B5B6DE2
:103930000322934319007B685A68AD4B0A435A65CA
:103940007B681B680222134009D0A94B5B6D0C22D7
:10395000934319007B689A68A54B0A435A657B68B4
:103960001B680422134009D0A14B5B6D30229343A6
:1039700019007B68DA689E4B0A435A657B681B68AE
:103980001022134009D09A4B5B6D9B4A13401900DB
:103990007B681A69964B0A435A657B681A688023CC
:1039A0005B01134009D0924B5B6D944A13401900A0
:1039B0007B685A698E4B0A435A657B681A68802374
:1039C0009B00134009D08A4B5B6D8D4A1340190050
:1039D0007B689A6A864B0A435A657B681A6880231B
:1039E000DB00134009D0824B5B6D864A13401900FF
:1039F0007B68DA6A7E4B0A435A657B681B68202223
:103A0000134009D07A4B5B6D7F4A134019007B68E5
:103A10009A69774B0A435A657B681B6840221340BA
:103A200009D0734B5B6D794A134019007B68DA69E2
:103A30006F4B0A435A657B681A688023DB01134089
:103A400015D06B4B5B6D9B0099087B681A6B684BBC
:103A50000A435A657B681A6B8023DB059A4206D1BC
:103A6000634BDA68624B802149020A43DA607B6863
:103A70001A6880231B03134009D05D4B5B6D402205
:103A8000934319007B685A6B594B0A435A657B680C
:103A90001A6880239B03134016D0554B5B6D5C4A1C
:103AA000134019007B689A6B514B0A435A657B6837
:103AB0009A6B8023DB039A4206D14D4BDA684C4B5C
:103AC000802149040A43DA607B681A688023DB039B
:103AD000134016D0464B5B6D4E4A134019007B686D
:103AE000DA6B434B0A435A657B68DA6B80235B04CD
:103AF0009A4206D13E4BDA683D4B802149040A4385
:103B0000DA607B681A6880231B01134014D0384B9D
:103B10009B6D0322934319007B681A6A344B0A4356
:103B20009A657B681B6A012B06D1314BDA68304BF2
:103B3000802149020A43DA607B681A6880239B016E
:103B4000134014D02A4B9B6D0C22934319007B68C1
:103B50005A6A274B0A439A657B685B6A042B06D135
:103B6000234BDA68224B802149020A43DA607B68E2
:103B70001A6880235B04134016D01D4B9B6D224AAC
:103B8000134019007B685A6C194B0A439A657B688D
:103B90005A6C80239B019A4206D1154BDA68144B6C
:103BA000802149040A43DA607B681A6880239B04F9
:103BB000134016D00E4B9B6D104A134019007B68C2
:103BC0009A6C0B4B0A439A657B689A6C80235B0066
:103BD0009A4206D1064BDA68054B802149040A4314
:103BE000DA601223FB181B781800BD4606B080BDB2
:103BF00000100240FFFFFFEFFFF3FFFFFFFCFFFF9E
:103C0000FFFFF3FFFFFFCFFFFFCFFFFFFF3FFFFFF0
:103C1000FFFFBFFFFFFFFFFE80B582B000AF7860FF
:103C20007B68002B01D1012346E07B6888229B58EA
:103C3000002B07D17B688422002199547B681800EF
:103C4000FDF764F87B688822242199507B681B6803
:103C50001A687B681B6801218A431A607B689B6A2B
:103C6000002B03D07B68180000F068FF7B68180009
:103C700000F00EFC0300012B01D101231CE07B6846
:103C80001B685A687B681B680D490A405A607B684C
:103C90001B689A687B681B682A218A439A607B6844
:103CA0001B681A687B681B6801210A431A607B68DD
:103CB000180000F0F7FF03001800BD4602B080BDF9
:103CC000FFB7FFFF80B58AB002AFF860B9603B6014
:103CD000BB1D1A80FB6888229B58202B00D090E0E7
:103CE000BB68002B03D0BB1D1B88002B01D1012317
:103CF00088E0FB689A6880235B019A4209D1FB68DF
:103D00001B69002B05D1BB680122134001D00123A0
:103D100078E0FB68902200219950FB6888222121DD
:103D20009950FDF703F903007B61FB68BA1D54212C
:103D300012885A52FB68BA1D562112885A52FB68E3
:103D40009A6880235B019A4208D1FB681B69002BAB
:103D500004D10023FB61BB68BB6103E0BB68FB616E
:103D60000023BB6130E07A69F8683B680093130078
:103D70000022802101F040F8031E05D0FB68882254
:103D80002021995003233DE0FB69002B0BD1BB6937
:103D90001B881A00FB681B68D205D20D9A62BB69AA
:103DA0000233BB6107E0FB691A78FB681B689A6203
:103DB000FB690133FB61FB6856229B5A9BB2013BB6
:103DC00099B2FB6856229952FB6856229B5A9BB2C5
:103DD000002BC8D17A69F8683B6800931300002271
:103DE000402101F009F8031E05D0FB68882220213C
:103DF0009950032306E0FB68882220219950002374
:103E000000E002231800BD4608B080BDB0B5AAB0DE
:103E100000AF78607B681B68DB69A422B9180B606F
:103E20007B681B681B68A02039180B607B681B68C7
:103E30009B689C2439190B601100BB181B68A24AAF
:103E400013409822BD182B60BB181B68002B1AD199
:103E50007B181B682022134015D03B181B682022BA
:103E6000134005D13B191A6880235B0513400AD023
:103E70007B685B6F002B00D1DCE27B685B6F7A684C
:103E800010009847D6E29823FB181B68002B00D13E
:103E900022E19C23FB181B688C4A134006D1A02307
:103EA000FB181B688A4A134000D115E1A423FB18B4
:103EB0001B680122134012D0A023FB181A6880232C
:103EC0005B0013400BD07B681B6801221A627B6881
:103ED00090229B5801221A437B6890215A50A423B8
:103EE000FB181B680222134011D09C23FB181B688F
:103EF000012213400BD07B681B6802221A627B6888
:103F000090229B5804221A437B6890215A50A42384
:103F1000FB181B680422134011D09C23FB181B685C
:103F2000012213400BD07B681B6804221A627B6855
:103F300090229B5802221A437B6890215A50A42356
:103F4000FB181B680822134017D0A023FB181B681E
:103F50002022134005D19C23FB181B685B4A1340A9
:103F60000BD07B681B6808221A627B6890229B58E2
:103F700008221A437B6890215A50A423FB181A6820
:103F800080231B01134013D0A023FB181A68802341
:103F9000DB0413400CD07B681B68802212011A627C
:103FA0007B6890229B5820221A437B6890215A50AC
:103FB0007B6890229B58002B00D13DE2A423FB1884
:103FC0001B682022134015D0A023FB181B68202259
:103FD000134006D19C23FB181A6880235B0513400D
:103FE00008D07B685B6F002B04D07B685B6F7A68BE
:103FF000100098477B6890229B5894217A18136090
:104000007B681B689B6840221340402B04D07B18C0
:104010001B68282213404CD07B68180000F05CFF1E
:104020007B681B689B6840221340402B3CD1EFF318
:1040300010833B663B6E90203A18136001237B6629
:104040007B6E83F31088C0467B681B689A687B6828
:104050001B6840218A439A603B181B68BB66BB6E95
:1040600083F31088C0467B6880229B58002B16D0B3
:104070007B6880229B58174A9A637B6880229B58F2
:104080001800FDF7D5F8031E1CD07B6880229B58D2
:104090009B6B7A68802152581000984712E07B6829
:1040A000180000F0E1F90DE07B68180000F0DCF981
:1040B00008E07B68180000F0D7F97B6890220021A7
:1040C0009950B9E1C046B7E10F08000001000010A7
:1040D00020010004A54F00087B68DB6E012B00D097
:1040E0003EE1A423FB181B681022134000D137E1E6
:1040F000A023FB181B681022134000D130E17B681D
:104100001B6810221A627B681B689B684022134060
:10411000402B00D0A4E07B6880229B581B685A6823
:104120007E217B181A807B181B88002B00D185E12B
:104130007B685C229B5A7A1812889A4200D37DE1F0
:104140007B687A185E2112885A527B6880229B58BD
:104150001B681B682022134070D1EFF310833B6370
:104160003B6BBB6701237B637B6B83F31088C0468B
:104170007B681B681A687B681B68B4490A401A6030
:10418000BB6FBB63BB6B83F31088C046EFF3108338
:10419000FB63FB6B7B6701233B643B6C83F3108801
:1041A000C0467B681B689A687B681B6801218A434C
:1041B0009A607B6F7B647B6C83F31088C046EFF35F
:1041C0001083BB64BB6C3B670123FB64FB6C83F314
:1041D0001088C0467B681B689A687B681B68402112
:1041E0008A439A603B6F3B653B6D83F31088C04602
:1041F0007B688C22202199507B680022DA66EFF3DD
:1042000010837B657B6DFB660123BB65BB6D83F310
:104210001088C0467B681B681A687B681B68102181
:104220008A431A60FB6EFB65FB6D83F31088C04602
:104230007B6880229B581800FCF79AFF7B6802225B
:104240001A677B685C229A5A7B685E215B5A9BB234
:10425000D31A9AB27B681100180000F00DF9EDE056
:104260007B685C22995A7B685E229B5A9AB28E20A8
:104270003B188A1A1A807B685E229B5A9BB2002BDD
:1042800000D1DDE03B181B88002B00D1D8E0EFF314
:104290001083FB60FB6888243A19136001233B619B
:1042A0003B6983F31088C0467B681B681A687B688B
:1042B0001B6867490A401A603B191B687B617B6970
:1042C00083F31088C046EFF31083BB61BB6984247D
:1042D0003A1913600123FB61FB6983F31088C04620
:1042E0007B681B689A687B681B685A490A409A6019
:1042F0003B191B683B623B6A83F31088C0467B68AE
:104300008C22202199507B680022DA667B6800228B
:104310005A67EFF310837B627B6A80243A1913603B
:104320000123BB62BB6A83F31088C0467B681B68AD
:104330001A687B681B6810218A431A603B191B6846
:10434000FB62FB6A83F31088C0467B6802221A670F
:104350003B181A887B681100180000F08DF86FE098
:10436000A423FB181A6880235B03134010D09C23FE
:10437000FB181A688023DB03134009D07B681B6895
:10438000802252031A627B68180000F04EFE5AE049
:10439000A423FB181B688022134016D0A023FB180F
:1043A0001B688022134006D19C23FB181A688023C7
:1043B0001B04134009D07B689B6F002B42D07B68A5
:1043C0009B6F7A68100098473CE0A423FB181B6899
:1043D000402213400AD0A023FB181B684022134040
:1043E00004D07B68180000F0F4FD2CE0A423FB1837
:1043F0001A6880231B0413400BD0A023FB181A68F3
:104400008023DB05134004D07B68180000F01DFEFC
:1044100019E0A423FB181A6880235B04134012D010
:10442000A023FB181B68002B0DDA7B68180000F036
:1044300004FE08E0C04606E0C04604E0C04602E0D4
:10444000C04600E0C046BD462AB0B0BDFFFEFFFF3B
:10445000DFFEFFFFFEFFFFEF80B582B000AF7860A8
:10446000C046BD4602B080BD80B582B000AF786066
:10447000C046BD4602B080BD80B582B000AF786056
:104480000A00BB1C1A80C046BD4602B080BD0000B9
:10449000B0B590B000AF78621A2320229B18DB19C8
:1044A00000221A707B6A9A687B6A1B691A437B6ACE
:1044B0005B691A437B6ADB691343FB637B6A1B6896
:1044C0001B68C14A134019007B6A1A68FB6B0B43D7
:1044D00013607B6A1B685B68BC4A134018007B6AE8
:1044E000D9687B6A1A6803000B4353607B6A9B6937
:1044F000FB637B6A1B68B64A934209D07B6A1B68E0
:10450000B44A934204D07B6A1B6AFA6B1343FB6381
:104510007B6A1B689B68B04A134019007B6A1A6863
:10452000FB6B0B4393607B6A1B68DB6A0F22934330
:1045300018007B6A596A7B6A1A6803000B43D362CE
:104540007B6A1B68A54A934231D1A54B5B6D032260
:104550001340032B1DD023D8022B0CD020D8002BC6
:1045600002D0012B0ED01BE01B2320229B18DB194D
:1045700000221A7054E11B2320229B18DB1902220F
:104580001A704DE11B2320229B18DB1904221A709C
:1045900046E11B2320229B18DB1908221A703FE1F9
:1045A0001B2320229B18DB1910221A7038E17B6A2A
:1045B0001B688C4A934231D1894B5B6D0C221340AE
:1045C0000C2B1DD023D8082B0CD020D8002B02D0C8
:1045D000042B0ED01BE01B2320229B18DB1900228A
:1045E0001A701DE11B2320229B18DB1902221A706E
:1045F00016E11B2320229B18DB1904221A700FE1FD
:104600001B2320229B18DB1908221A7008E11B23A8
:1046100020229B18DB1910221A7001E17B6A1B68AB
:10462000714A934231D16E4B5B6D30221340302B77
:104630001DD023D8202B0CD020D8002B02D0102B3B
:104640000ED01BE01B2320229B18DB1900221A70BE
:10465000E6E01B2320229B18DB1902221A70DFE000
:104660001B2320229B18DB1904221A70D8E01B237D
:1046700020229B18DB1908221A70D1E01B2320226C
:104680009B18DB1910221A70CAE07B6A1B68574A14
:10469000934206D11B2320229B18DB1900221A709B
:1046A000BEE07B6A1B68524A934206D11B2320223C
:1046B0009B18DB1900221A70B2E07B6A1B684D4A16
:1046C000934206D11B2320229B18DB1900221A706B
:1046D000A6E07B6A1B683E4A93423ED1404B5A6D2E
:1046E000C0231B011340C0221201934227D0C022D5
:1046F000120193422AD880221201934211D08022C3
:104700001201934222D8002B04D08022D20093427F
:104710000ED01BE01B2320229B18DB1900221A70ED
:104720007EE01B2320229B18DB1902221A7077E0FF
:104730001B2320229B18DB1904221A7070E01B2314
:1047400020229B18DB1908221A7069E01B23202203
:104750009B18DB1910221A7062E07B6A1B681D4AE5
:10476000934257D11E4B5A6DC0239B001340C02269
:104770009200934240D0C0229200934243D88022BC
:104780009200934211D08022920093423BD8002B9A
:1047900004D08022520093420ED034E01B2320220A
:1047A0009B18DB1900221A703AE01B2320229B1869
:1047B000DB1902221A7033E01B2320229B18DB191D
:1047C00004221A702CE0C046F369FFCFFFCFFFFF31
:1047D0000080004000840040FFF4FF1100380140D9
:1047E000001002400044004000480040004C0040DF
:1047F00000500040003C01401B2320229B18DB1985
:1048000008221A700CE01B2320229B18DB191022AF
:104810001A7005E01B2320229B18DB1910221A7046
:104820007B6A1B68C14A934205D07B6A1B68C04AF9
:10483000934200D093E01B2320229B18DB191B78A6
:10484000082B15D018DC042B0DD015DC002B02D062
:10485000022B05D010E0FEF78DFF03007B6314E010
:10486000B44B7B6311E0FEF7F9FE03007B630CE0C1
:1048700080231B027B6308E000237B631A23202232
:104880009B18DB1901221A70C0467B6B002B00D1EC
:1048900035E17B6A5A6AA84B5200D35A1900786BEB
:1048A000FBF732FC0300BB627B6A5A6813005B00B3
:1048B0009B18BA6A9A4205D37B6A5B681B03BA6A83
:1048C0009A4206D91A2320229B18DB1901221A705A
:1048D00044E07B6BBB610023FB617B6A5A6A964BA9
:1048E0005200D35A3B6100237B613A697B69B86906
:1048F000F969FBF77FFD02000B00110E1D020D434D
:1049000014027B6A5B685B08BB600023FB60B868CD
:10491000F968001969417B6A5B683B6000237B6032
:104920003A687B68FBF766FD02000B0013003B63EF
:104930003A6BC0239B009A4209D33A6B80235B03F6
:104940009A4204D27B6A1B683A6BDA6006E01A234B
:1049500020229B18DB1901221A70D0E0CFE07B6A7D
:10496000DA6980231B029A4200D070E01B232022C8
:104970009B18DB191B78082B15D018DC042B0DD0E5
:1049800015DC002B02D0022B05D010E0FEF7F2FE62
:1049900003007B6314E0674B7B6311E0FEF75EFE70
:1049A00003007B630CE080231B027B6308E0002391
:1049B0007B631A2320229B18DB1901221A70C04640
:1049C0007B6B002B00D19AE07B6A5A6A5A4B5200EB
:1049D000D35A1900786BFBF797FB03005A007B6AE8
:1049E0005B685B08D2187B6A5B6819001000FBF7F4
:1049F0008BFB03003B633B6B0F2B21D93A6B80236E
:104A00005B029A421CD23B6B9AB20E2020240319FF
:104A1000DB190F218A431A803B6B5B089BB207228C
:104A2000134099B20319DB190219D21912880A43EB
:104A30001A807B6A1B680219D2191288DA605EE05C
:104A40001A2320229B18DB1901221A7057E01B231E
:104A500020229B18DB191B78082B15D018DC042B9F
:104A60000DD015DC002B02D0022B05D010E0FEF794
:104A700081FE03007B6314E02E4B7B6311E0FEF7A5
:104A8000EDFD03007B630CE080231B027B6308E0E9
:104A900000237B631A2320229B18DB1901221A7042
:104AA000C0467B6B002B2AD07B6A5A6A224B52008D
:104AB000D35A1900786BFBF727FB03001A007B6AB7
:104AC0005B685B08D2187B6A5B6819001000FBF713
:104AD0001BFB03003B633B6B0F2B0AD93A6B802314
:104AE0005B029A4205D23B6B9AB27B6A1B68DA6022
:104AF00005E01A2320229B18DB1901221A707B6A19
:104B00006A22012199527B6A6822012199527B6AAB
:104B100000225A677B6A00229A671A2320229B1878
:104B2000DB191B781800BD4610B0B0BD00800040F6
:104B3000008400400024F4003867000880B582B08B
:104B400000AF78607B689B6A082213400BD07B68BB
:104B50001B685B684A4A134019007B689A6B7B6844
:104B60001B680A435A607B689B6A012213400BD082
:104B70007B681B685B68434A134019007B68DA6AEC
:104B80007B681B680A435A607B689B6A0222134059
:104B90000BD07B681B685B683B4A134019007B683D
:104BA0001A6B7B681B680A435A607B689B6A042205
:104BB00013400BD07B681B685B68344A13401900B4
:104BC0007B685A6B7B681B680A435A607B689B6AE8
:104BD000102213400BD07B681B689B682C4A134043
:104BE00019007B68DA6B7B681B680A439A607B68F4
:104BF0009B6A202213400BD07B681B689B68254A68
:104C0000134019007B681A6C7B681B680A439A6022
:104C10007B689B6A402213401DD07B681B685B68E1
:104C20001D4A134019007B685A6C7B681B680A4355
:104C30005A607B685A6C80235B039A420BD17B6875
:104C40001B685B68154A134019007B689A6C7B6887
:104C50001B680A435A607B689B6A802213400BD012
:104C60007B681B685B680E4A134019007B68DA6C2E
:104C70007B681B680A435A60C046BD4602B080BDCF
:104C8000FF7FFFFFFFFFFDFFFFFFFEFFFFFFFBFFBB
:104C9000FFEFFFFFFFDFFFFFFFFFEFFFFFFF9FFFC4
:104CA000FFFFF7FF80B592B002AF78607B6890227B
:104CB00000219950FCF73AF90300FB637B681B68FD
:104CC0001B6808221340082B2DD1FB6B8022910317
:104CD0007868474A0092002200F08EF8031E22D026
:104CE000EFF310837B627B6ABB630123BB62BB6A09
:104CF00083F31088C0467B681B681A687B681B6852
:104D000080218A431A60BB6BFB62FB6A83F31088C5
:104D1000C0467B688822202199507B68842200212C
:104D20009954032360E07B681B681B6804221340CE
:104D3000042B46D1FB6B8022D10378682C4A009269
:104D4000002200F059F8031E3BD0EFF31083FB6004
:104D5000FB687B6301233B613B6983F31088C0469A
:104D60007B681B681A687B681B6822490A401A60C6
:104D70007B6B7B617B6983F31088C046EFF3108304
:104D8000BB61BB693B630123FB61FB6983F3108853
:104D9000C0467B681B689A687B681B6801218A4350
:104DA0009A603B6B3B623B6A83F31088C0467B682A
:104DB0008C22202199507B6884220021995403235E
:104DC00012E07B688822202199507B688C22202168
:104DD00099507B680022DA667B6800221A677B683C
:104DE00084220021995400231800BD4610B080BDD4
:104DF000FFFFFF01DFFEFFFF80B584B000AFF8606A
:104E0000B9603B60FB1D1A7051E0BB6901334ED0A5
:104E1000FCF78CF802003B68D31ABA699A4202D3B5
:104E2000BB69002B01D1032351E0FB681B681B68A1
:104E3000042213403BD0BB68802B38D0BB68402B8A
:104E400035D0FB681B68DB6908221340082B11D1A1
:104E5000FB681B6808221A62FB68180000F03CF827
:104E6000FB68902208219950FB6884220021995404
:104E700001232CE0FB681B68DA6980231B011A40C0
:104E800080231B019A4212D1FB681B688022120109
:104E90001A62FB68180000F01FF8FB6890222021BE
:104EA0009950FB6884220021995403230FE0FB688A
:104EB0001B68DB69BA681340BA68D31A5A42534177
:104EC000DBB21A00FB1D1B789A429ED0002318000B
:104ED000BD4604B080BD000080B58EB000AF7860E4
:104EE000EFF310837B617B697B630123BB61BB694B
:104EF00083F31088C0467B681B681A687B681B6850
:104F000026490A401A607B6BFB61FB6983F31088BA
:104F1000C046EFF310833B623B6A3B6301237B6235
:104F20007B6A83F31088C0467B681B689A687B683D
:104F30001B681B490A409A603B6BBB62BB6A83F3E8
:104F40001088C0467B68DB6E012B18D1EFF310830D
:104F5000BB60BB68FB620123FB60FB6883F31088C6
:104F6000C0467B681B681A687B681B6810218A43EF
:104F70001A60FB6A3B613B6983F31088C0467B681B
:104F80008C22202199507B680022DA667B680022FF
:104F90005A67C046BD460EB080BDC046DFFEFFFF6B
:104FA000FEFFFFEF80B584B000AF78607B689B6A3E
:104FB000FB60FB685E2200219952FB6856220021AB
:104FC0009952FB681800FFF74FFAC046BD4604B07F
:104FD00080BD80B586B000AF7860EFF31083BB6012
:104FE000BB687B610123FB60FB6883F31088C046CC
:104FF0007B681B681A687B681B6840218A431A60BB
:105000007B693B613B6983F31088C0467B688822DB
:10501000202199507B6800229A677B681800FFF76F
:105020001BFAC046BD4606B080BD80B582B000AF59
:105030007860C046BD4602B080BD80B582B000AF8A
:105040007860C046BD4602B080BD80B582B000AF7A
:105050007860C046BD4602B080BD000080B584B017
:1050600000AF78607B6884229B5C012B01D1022316
:1050700027E07B688422012199547B6888222421BF
:1050800099507B681B681B68FB607B681B681A680B
:105090007B681B6801218A431A60FB680B4A134036
:1050A000FB607B6800225A667B681B68FA681A609E
:1050B0007B688822202199507B68842200219954A2
:1050C00000231800BD4604B080BDC046FFFFFFDFCF
:1050D00080B584B000AF786039607B6884229B5CC7
:1050E000012B01D102232EE07B68842201219954F7
:1050F0007B688822242199507B681B681B68FB60B1
:105100007B681B681A687B681B6801218A431A60E8
:105110007B681B689B68DB00D9087B681B683A6862
:105120000A439A607B68180000F054F87B681B689B
:10513000FA681A607B688822202199507B68842253
:105140000021995400231800BD4604B080BD000022
:1051500080B584B000AF786039607B6884229B5C46
:10516000012B01D102232FE07B6884220121995475
:105170007B688822242199507B681B681B68FB6030
:105180007B681B681A687B681B6801218A431A6068
:105190007B681B689B680E4A134019007B681B687C
:1051A0003A680A439A607B68180000F013F87B683D
:1051B0001B68FA681A607B688822202199507B68F6
:1051C00084220021995400231800BD4604B080BDFC
:1051D000FFFFFFF1F0B585B000AF78607B685B6ED4
:1051E000002B08D17B686A22012199527B686822D2
:1051F0000121995243E00F26BB1908221A700E2094
:105200003B1808221A707B681B689B685B0EDAB239
:105210000D243B1907210A401A707B681B689B68A4
:105220005B0FDAB20C257B1907210A401A703B1874
:105230001B787A19127814498A5C5A4310007B193A
:105240001B78124AD35C1900FAF7E8FF030099B201
:105250007B686A229952BB191B783A1912780A495D
:105260008A5C5A4310003B191B78084AD35C19002A
:10527000FAF7D4FF030099B27B6868229952C046BE
:10528000BD4605B0F0BDC04650670008586700082D
:1052900080B500AF084B012280211800FDF70CFDFE
:1052A00080231902A023DB0501221800FDF704FD6D
:1052B000C046BD4680BDC0460008005080B582B0E3
:1052C00000AF00F010F80300AA2B03D0FB1D012251
:1052D0001A7002E0FB1D00221A70FB1D1B781800DB
:1052E000BD4602B080BD80B594B000AF3B1D180034
:1052F000FDF74CF83B1D1B691800BD4614B080BD7E
:1053000080B582B000AF78607B681B781800BD461E
:1053100002B080BD80B586B000AFF860B9607A6039
:1053200000233B617B687B61FCF70CFF0F4B802205
:1053300012061A6100233B610DE0FA683B69D1183F
:10534000BA683B69D3181A685B680120FCF7ACFEA9
:105350003B6908333B613A697B699A42EDD3FCF7BC
:1053600015FFC046BD4606B080BDC04600200240C5
:1053700080B58AB000AF7860396000233B620023BB
:105380007B620023FB61FCF7DDFE1C4B80221206D2
:105390001A617B681B887B627B6802337B600C210F
:1053A0007B1802221A607B1804225A607B180122A3
:1053B000DA6000233B6212E07B681B881A000C2134
:1053C0007B189A601C23FA187B1811001800FCF750
:1053D0006DFF7B6802337B603B6A01333B623A6A54
:1053E0007B6A9A4203D23A6A3B689A42E4D3FCF75A
:1053F000CDFEC046BD460AB080BDC046002002407A
:1054000080B500AF1B4B00221A601A4B00225A6075
:10541000184B02229A60174B0122DA60154B1222B8
:10542000FF321A61134B144A5A61124A134B11008E
:105430001800FCF7CBF8031E01D0FBF719FB0F4B4C
:105440005A6A0E4BDB6A534319000C4B00221800BA
:10545000FCF719F9031E01D0FBF70AFB074B1800F4
:10546000FCF731F9031E01D0FBF702FBC046BD4635
:1054700080BDC04610010020FF0700002801002069
:1054800080B500AFFFF7BCFFFFF702FF0520FBF779
:1054900057FD1B4B002201211800FCF7BDFA031E2B
:1054A00001D0FBF7E5FA164B1800FCF72CF9031EA8
:1054B00001D0FBF7DDFA134B01221A70124B1222B6
:1054C000FF321A60104B00225A600F4B00229A6084
:1054D0000D4B0F22DA600C4B00221A610A4B80221E
:1054E00052035A61084B802292039A61064B0022B4
:1054F000DA61054B00221A62C046BD4680BDC04637
:1055000028010020440200204802002080B582B01B
:1055100000AF0200FB1D1A70154B0122DA60C04675
:10552000144B1800FCF768FA031EF9D0FA1D104955
:10553000104B1800FCF70DF9C0460E4B1B681A6D96
:1055400080239B001A4080239B009A42F5D1094B8F
:105550001B68196D074B1B68802292000A401A6570
:105560000120FBF7EDFCC046BD4602B080BDC04641
:10557000480200202801002080B582B000AF78608A
:105580003960154B3A68DA60C046144B1800FCF7D6
:1055900033FA031EF9D07A680F49104B1800FCF754
:1055A000D8F8C0460D4B1B681A6D80239B001A402B
:1055B00080239B009A42F5D1084B1B68196D074B5D
:1055C0001B68802292000A401A650120FBF7B8FC94
:1055D000C046BD4602B080BD480200202801002020
:1055E00080B59CB000AF3B1D180000F0ADF8030083
:1055F000FB66FB6E002B06D00120FBF7A1FC3B1DD8
:1056000028229B5C03E0044B180000F011FC1800FA
:10561000BD461CB080BDC0462466000890B59FB052
:1056200000AF786039600C243B19180000F08CF84A
:1056300003007B677B6F002B0BD07A683B1910004F
:1056400028334022190000F072FD0120FBF778FC9E
:1056500003E0044B180000F0EBFBC046BD461FB052
:1056600090BDC0462466000880B582B000AF786067
:1056700039603B680122134010D00A4B1B78012B84
:1056800002D1094B01221A70084B094A09484021EE
:10569000FCF7A4F8064B180000F022F8C046BD46FF
:1056A00002B080BD44020020450200209402002088
:1056B0006C0200202801002080B582B000AF786025
:1056C0007B685A1C054B1B689A4202D07B680133E9
:1056D00000E000231800BD4602B080BD0C00002091
:1056E00080B584B000AF78600123FB60124B1A686C
:1056F000124B1B689A4218DA114B1B68114A682139
:105700004B437968D3186822180000F010FD0C4B49
:105710001B681800FFF7D0FF0200094B1A60064B08
:105720001B685A1C044B1A6001E00023FB60FB68F5
:105730001800BD4604B080BD54A500200C00002018
:105740005CA50020D402002080B584B000AF786052
:105750000123FB60114B1B68002B18DD104B1B68ED
:105760007868104A68214B43D3186822190000F06A
:10577000DEFC0B4B1B681800FFF79EFF0200084B76
:105780001A60064B1B685A1E044B1A6001E0002386
:10579000FB60FB681800BD4604B080BD54A5002026
:1057A00058A50020D402002080B584B000AF3B0093
:1057B000134A03CA03C31188198092789A7079201A
:1057C000FFF7A4FE0B20FFF7A1FE0120FFF79EFECE
:1057D0000023FB6009E03A00FB68D3181B7818002F
:1057E000FFF794FEFB680133FB60FB680A2BF2D9DC
:1057F0007920FFF78BFEC046BD4604B080BDC04691
:105800003466000880B590B000AF7920FFF77EFEC7
:105810003B0004221A703B0067225A703B000221B1
:105820001800FFF7A9FE7920FFF770FEC046BD46BD
:1058300010B080BDB0B596B000AFFFF73FFD031EBE
:1058400003D01F20FFF762FE87E04023FB181800FB
:1058500000F09CF903001F2B03D11F20FFF756FE19
:105860007BE07920FFF752FE3E4B2C229B5C0133FC
:10587000BB64BB6C9B093B65BB6C3F2213407B64E4
:1058800027E04F23FB1800221A7040237B6515E0A8
:105890003A6C4F257B191C781000FFF731FD03008F
:1058A0001A003B001A557B191A787B1901321A70BD
:1058B0003B6C01333B647B6D013B7B657B6D002B57
:1058C000E6D13B000F211800FFF756FE3B6D013B70
:1058D0003B653B6D002BD4D17B6C002B3AD04F2322
:1058E000FB1800221A707B6C7B6515E03A6C4F2523
:1058F0007B191C781000FFF703FD03001A003B0022
:105900001A557B191A787B1901321A703B6C0133D6
:105910003B647B6D013B7B657B6D002BE6D17B6C33
:105920004022D31A7B650DE04F203B181B783A00CC
:10593000FF21D1543B181A783B1801321A707B6D45
:10594000013B7B657B6D002BEED13B000F211800E6
:10595000FFF712FE7920FFF7D9FDC046BD4616B00D
:10596000B0BDC0466C02002090B5C7B000AFFFF7D5
:10597000A5FC031E03D01F20FFF7C8FD6DE07B1DB3
:10598000FF33180000F002F903001F2B03D11F2082
:10599000FFF7BCFD61E07920FFF7B8FD314B2C2209
:1059A0009B5C013388225200B9180B60BB181B683E
:1059B0009B098624640039190B60BB181B683F22C1
:1059C000134084225200BA1813601823FF33FB18C7
:1059D00000221A700F20FBF7B3FA3B191B68002B4B
:1059E0001AD00FE01824FF343B191B789B013A1D95
:1059F000D3180F211800FFF711FE3B191A783B1935
:105A000001321A701823FF33FB181B7886225200CC
:105A1000BA1812689A42E5D1842149007B181B68A4
:105A2000002B0CD088235B00FB181A687B181B68BE
:105A3000D31A3A1DD3180F211800FFF7EFFD7B1D75
:105A4000FF331B6888225200BA181268391D1800EB
:105A5000FFF760FC7920FFF759FDC046BD4647B00F
:105A600090BDC0466C02002090B599B000AF5B239A
:105A7000FB1879221A70FFF721FC031E03D01F20A8
:105A8000FFF744FD7AE07920FFF740FD3D4B2822E7
:105A90009B5C9AB258203B1812021A80394B29227B
:105AA0009B5C99B23B183A1812880A431A803B183B
:105AB0001B88D9B2334B282299543B181B881B0AE8
:105AC0009BB2D9B22F4B292299542E4B28229A5C93
:105AD0003B1D1A702B4B29229A5C3B1D5A70040007
