:020000040800F2
:1000000000400220D108000831070008330700082B
:1000100000000000000000000000000000000000E0
:10002000000000000000000000000000350700088C
:100030000000000000000000370700083907000832
:1000400021090008210900082109000821090008E8
:1000500021090008210900082109000821090008D8
:1000600021090008210900082109000821090008C8
:1000700021090008210900082109000821090008B8
:1000800021090008210900082109000821090008A8
:10009000210900084107000821090008210900087A
:1000A0002109000821090008210900082109000888
:0C00B000210900082109000821090008AE
:1000C00010B5064C2378002B07D1054B002B02D02E
:1000D000044800E000BF0123237010BDA4000020ED
:1000E00000000000A82C0008044B10B5002B03D022
:1000F0000349044800E000BF10BDC04600000000F6
:10010000A8000020A82C0008002243088B4274D3CA
:1001100003098B425FD3030A8B4244D3030B8B4208
:1001200028D3030C8B420DD3FF22090212BA030C11
:100130008B4202D31212090265D0030B8B4219D3F2
:1001400000E0090AC30B8B4201D3CB03C01A524112
:10015000830B8B4201D38B03C01A5241430B8B425A
:1001600001D34B03C01A5241030B8B4201D30B0343
:10017000C01A5241C30A8B4201D3CB02C01A52416A
:10018000830A8B4201D38B02C01A5241430A8B422D
:1001900001D34B02C01A5241030A8B4201D30B0216
:1001A000C01A5241CDD2C3098B4201D3CB01C01A30
:1001B000524183098B4201D38B01C01A524143093A
:1001C0008B4201D34B01C01A524103098B4201D328
:1001D0000B01C01A5241C3088B4201D3CB00C01A95
:1001E000524183088B4201D38B00C01A524143080D
:1001F0008B4201D34B00C01A5241411A00D2014632
:10020000524110467047FFE701B5002000F0F0F8BA
:1002100002BDC0460029F7D076E7704703460B437E
:100220007FD4002243088B4274D303098B425FD3EF
:10023000030A8B4244D3030B8B4228D3030C8B421B
:100240000DD3FF22090212BA030C8B4202D3121201
:10025000090265D0030B8B4219D300E0090AC30BD6
:100260008B4201D3CB03C01A5241830B8B4201D383
:100270008B03C01A5241430B8B4201D34B03C01A6C
:100280005241030B8B4201D30B03C01A5241C30AE4
:100290008B4201D3CB02C01A5241830A8B4201D355
:1002A0008B02C01A5241430A8B4201D34B02C01A3F
:1002B0005241030A8B4201D30B02C01A5241CDD2E4
:1002C000C3098B4201D3CB01C01A524183098B422F
:1002D00001D38B01C01A524143098B4201D34B0118
:1002E000C01A524103098B4201D30B01C01A52417B
:1002F000C3088B4201D3CB00C01A524183088B4202
:1003000001D38B00C01A524143088B4201D34B00EA
:10031000C01A5241411A00D201465241104670475C
:100320005DE0CA0F00D04942031000D34042534061
:1003300000229C4603098B422DD3030A8B4212D321
:10034000FC22890112BA030A8B420CD38901921153
:100350008B4208D3890192118B4204D389013AD090
:10036000921100E08909C3098B4201D3CB01C01A65
:10037000524183098B4201D38B01C01A5241430978
:100380008B4201D34B01C01A524103098B4201D366
:100390000B01C01A5241C3088B4201D3CB00C01AD3
:1003A000524183088B4201D38B00C01A5241D9D2EB
:1003B00043088B4201D34B00C01A5241411A00D26C
:1003C0000146634652415B10104601D34042002B68
:1003D00000D54942704763465B1000D3404201B5E7
:1003E000002000F005F802BD0029F8D016E770479C
:1003F0007047C046C0221148114B920070B50121D0
:10040000826008220C2402250360002342610182DD
:10041000053A4360C36083748261C46102624562CD
:100420008262C462026341638363C36300F04AFB78
:10043000002801D000F060F970BDC046C000002067
:100440000064004010B504009AB01422002102A8F4
:1004500002F04EF94C22002107A802F049F91B4B8B
:1004600022689A422FD1802307A89B04079301F0AA
:100470002BF9002801D000F03FF98021144B4901ED
:10048000DA6B00240A43DA63DA6B12480A40082167
:100490000092009A5A6B0A435A635B6B02220B402C
:1004A0000193019B032302A90293039206930494F0
:1004B000059400F0ABFE15202200012100F0B2FAF5
:1004C000152000F0D9FA1AB010BDC04600640040F3
:1004D00000100240000C0050F0B58BB01422002137
:1004E00005A802F005F920210125284BA0275A6B09
:1004F000274C0A435A635A6B264E0A400092009AD0
:100500005A6B1E392A435A635A6BFF052A400192DF
:10051000019A5A6B38000A435A635A6B0A40029296
:10052000029A5A6B02310A435A635A6B0A40039289
:10053000039A5A6B04310A435A635B6B00220B40E7
:1005400004932100049B00F0A7FE002230008021CC
:1005500000F0A2FE05940024380005A90695079432
:10056000089400F053FE4023300005A9059306943B
:10057000079500F04BFE8023300005A905930695F2
:100580000794089400F042FE0BB0F0BD001002404A
:100590000382000000080050012307B55B42019070
:1005A0000122034801A901F0F1F901980EBDC046EE
:1005B0004001002010B594B03C22002105A802F0B3
:1005C00097F81022002101A802F092F88020800004
:1005D00000F068FE80235B000893002309930F93CB
:1005E0000833109380239B02119380239B04129362
:1005F0008023022440229B0505A805940A920D94AD
:100600000E94139300F0D4FE002801D072B6FEE7DA
:10061000072303900490210001A80193029400F0A5
:1006200091FF002801D072B6FEE714B010BD0000A3
:10063000F8B500F0B3F9FFF7BDFFFFF74DFFFFF787
:10064000D9FE00F0CDF8264801F056FF01F0DCFBA2
:1006500000F0C4F9FA2704003F01224E3378012B41
:1006600034D1214D2B78012B30D100F0B7F90400A3
:100670001E4801F041FF00232B7001F0C9FC1C4B08
:100680001B68DBB2212B1BD00AD8022B12D0112BF6
:1006900013D0002B0BD00023337001332B70DCE719
:1006A000312B10D0442BF6D101F012FDF3E701F00D
:1006B000DBFCF0E701F0F8FCEDE701F05BFDEAE7B9
:1006C00001F0E8FDE7E701F0A7FDE4E700F086F9B7
:1006D000001BB842C1D9074801F04AFBBDE7C0463C
:1006E000DB2C000805A5002004A50020E22C000852
:1006F0009CA400200030000872B6FEE707B5012177
:100700000A4BC0201A6CC0000A431A641A6C0A40D3
:1007100080210092009ADA6B49050A43DA63DB6BA9
:100720000B400193019B00F071F907BD00100240DE
:10073000FEE7FEE77047704710B500F043F910BDC3
:1007400010B5024800F054FC10BDC046C0000020A7
:1007500070B50E0014000025A54201DB200070BD1D
:1007600000E000BF70550135F6E770B50E001400CB
:100770000025A54201DB200070BD705DFFF70CFF76
:100780000135F6E701204042704780239B0100209D
:100790004B60704701207047002070470B490C4A9E
:1007A0000300521A0B4910B50868002801D10A4805
:1007B00008600868C318934206D901F0EFFF0C23C4
:1007C00003600120404210BD0B60FCE70004000004
:1007D000004002203C01002060A60020704700007D
:1007E00010B5184B184C0C222360E1235B026360A8
:1007F00000232000A360E36023616261A361E361E1
:1008000023626362A36201F091F9002801D0FFF72F
:1008100073FF0021200001F003FA002801D0FFF748
:100820006BFF0021200001F01BFA002801D0FFF728
:1008300063FF200001F0D6F9002801D0FFF75CFF2C
:1008400010BDC046004800404001002010B5040023
:100850009AB01422002102A801F04AFF4C22002184
:1008600007A801F045FF174B22689A4227D10423BD
:1008700007A8079300F028FF002801D0FFF73CFFEE
:100880008021114BC902DA6B10480A43DA63DA6B34
:100890000A400092009A0222596B114359635B6B24
:1008A00002A913400193019BC0231B010293002363
:1008B0000493059304330392069300F0A7FC1AB047
:1008C00010BDC04600480040001002400004005027
:1008D0000D488546FFF782FF0C480D490D4A00235D
:1008E00002E0D458C4500433C4188C42F9D30A4AE5
:1008F0000A4C002301E013600432A242FBD301F052
:1009000053FFFFF795FEFEE70040022000000020A5
:10091000A4000020AC2D0008A40000205CA600204C
:10092000FEE77047012210B50024074B5242DA62FD
:10093000DC621A631C639A629C625A625C62FFF713
:10094000F0FF200010BDC0460010024070B5104BF3
:1009500005001978002901D1012070BDFA2080001E
:10096000FFF7D2FB0B4C01002068FFF7CDFB00F036
:100970008FF8041EF0D1032DEED8020001202900CB
:10098000404200F04FF8044B20001D60E5E7C046F0
:100990000400002000000020080000208023084AF6
:1009A0005B00116810B50B4303201360FFF7CEFF07
:1009B000041E03D1FFF7A2FE200010BD0124FBE7B7
:1009C00000200240034A044B11681B785B18136037
:1009D0007047C046D401002004000020014B186875
:1009E0007047C046D401002070B50400FFF7F6FF41
:1009F0000500631C02D0044B1B78E418FFF7EEFFE0
:100A0000401BA042FAD370BD04000020034A0449F1
:100A100013680B40034313607047C0460000014059
:100A2000FFF9FFFF30B5FF2503242A000440E4004E
:100A3000A24089012940D243A140C3B200280ADB69
:100A4000C0240B4B80088000C018A4000359134039
:100A50000B43035130BD0F200340083B05489B0862
:100A60009B001B18D86902400A43DA61F2E7C046CE
:100A700000E100E000ED00E0002805DB1F23184046
:100A80001E3B8340014A13607047C04600E100E00E
:100A90008022431E5204012093420DD2C021074AF6
:100AA00007485360036A09061B021B0A0B430362D3
:100AB00000200723906013607047C04610E000E0FC
:100AC00000ED00E070B504000120002C00D1A4E08E
:100AD00025005C352B78DAB2002B05D123005D337D
:100AE00020001A70FFF7AEFC102123689A698A4330
:100AF0009A61082299691142FCD101219A690A433D
:100B00009A619A690A42FCD0022299690A439A6161
:100B1000424A934202D16168414A116040219A6978
:100B200040488A439A619A693F490A409A61802203
:100B3000996952010A439A619A69A1680240A42006
:100B40000A439A619A6982439A611A699438824386
:100B50001A61E069A2690138013A000252060243B3
:100B6000206A013802436069013800040243DA61F7
:100B7000C022920091420ED1E26A216B013A013902
:100B8000090112020A43A16A01390A43616A013963
:100B900009040A43DA601900C0310A68E06B234E89
:100BA00002430A60224A9A18511E8A412149524240
:100BB0000A4021490433D86F5218616B3040090450
:100BC00001432264D96711007031D86F61641B4EF4
:100BD000A16B304009060143D9671300B033A36409
:100BE000D833E36498239B00D31823659E239B008E
:100BF000D3186365D4239B00D018111DD4238842D9
:100C000000D2D33B00219B009B1802C29A42FCD128
:100C100001230020A16521662B7070BD0064004097
:100C200000650040FFFCFFFFFFBFFFFFFFFFE0FF8D
:100C30000098FFBFB0FCFFFF50B70040FFFFFFF080
:100C40000300F0B55C331B780700013B012B1AD879
:100C50008C68CB680D694E69A40705C9002808D1C6
:100C6000DB062343396C33432D0492002B4353504E
:100C7000F0BD796CD2005B0752182B43344300203F
:100C800013605460F4E70223026E134303660120ED
:100C9000EEE703005C331B78012B05D103680020CD
:100CA00009021143996470470423026E13430366DB
:100CB0000120F8E703005C331B78012B07D1802368
:100CC00002680020D1681B040B43D36070470423E3
:100CD000026E134303660120F8E702005C321178CC
:100CE0000300C8B2012908D10131117019688A695D
:100CF000824300208A61186670470422196E012021
:100D00000A431A66F8E700000300F7B55C331B7866
:100D1000022B58D105682B00C4331C68A40206D5E9
:100D20008023026E9B0013430366012036E01C689B
:100D30000F69A403A30F4C6800938E680B68002C06
:100D40002DD137439B048E691F43CB69009C3343ED
:100D50004E6933430E6A36063343CE683604334356
:100D600048266643446DA446664473600823376092
:100D700037005B429E1B154B08370193CC68A44695
:100D80006346019CE35C9C46BB1963450CD301237D
:100D9000009ACC3593402B6083650020FEBD3B4319
:100DA00080273343FF05CEE7D3781B069C46644675
:100DB00093781B0423431478234354780432240289
:100DC000234308C7DAE70823026EACE7542D000876
:100DD000F7B5040001935C342478022C00D080E045
:100DE0000F26046840295BD1270090373D683542C3
:100DF00006D18023026E5B001343036601204EE0A0
:100E00000126B44663463D682D0E2E401D4203D098
:100E10000434E66F760A1E4048243D68AD05AD0FE8
:100E2000AD196C43866CA41980262768F6053740F7
:100E300057602668F600002F4AD1760D802716608D
:100E40002668BF053E408027966026687F03F60F20
:100E5000F60716616668244BB6B2D66166689C4692
:100E60003603360FD66066683E4080275661666856
:100E7000BF033E40966166687600760E166266682D
:100E80000834F60F566200266346D768DF5DB74226
:100E900020D80368402922D1943300201D60FEBD74
:100EA000250098352F683742A3D02E680127330ECE
:100EB0001E003E403B4203D00434E66F360A3E40FB
:100EC00048242D68AD05AD0FAD196C43C66CAAE77B
:100ED000F608B3E7A75D019B9F550136D4E79C3325
:100EE000DBE70823026E87E7542D00080368C4334C
:100EF0001868072318407047030070B55C331B78EF
:100F0000013B012B00D96DE007240D00006825404E
:100F1000836D214201D0DC0722D53824214201D043
:100F20009C071DD5E0246400214201D05C0717D541
:100F3000F0246401214201D01C0711D5E0242402D1
:100F4000214201D0DC060BD5C024A402214201D0ED
:100F50009C0605D5FC242404214205D05C0603D45C
:100F60000124C66D3443C465002D01D0DC0722D4B2
:100F70003824214201D09C071DD4E0246400214282
:100F800001D05C0717D4F0246401214201D01C0772
:100F900011D4E0242402214201D0DC060BD4C02469
:100FA000A402214201D09C0605D4FC242404214241
:100FB00005D05B0603D50223C46D2343C3650B062E
:100FC00004D50400DC34236813432360CB0504D527
:100FD0000400E034236813432360436D0B434365EF
:100FE000002070BD0223026E134303660120F8E760
:100FF000026810B5116D536D07240B401900214094
:10100000234202D0116500F0A7FF10BD0020054B60
:101010005A69824205DA044A9A60044A9A60586919
:10102000C00F70470020024023016745AB89EFCD18
:10103000F8B50400FFF7D2FCC0270600BF02144D2C
:101040002B693B4216D12A69124B110012481940F4
:1010500028611A4217D18027FF022B6918003840F7
:101060003B420FD0631CF8D0FFF7B8FC801BA042B6
:10107000F3D306E0631CE3D0FFF7B0FC801BA04273
:10108000DDD30320F8BD054B01205960FAE7C046C7
:1010900000200240FAC30000FBC30800D801002072
:1010A000F7B5174E0193337804000D00022000922B
:1010B000012B1ED00123FA203370002380007360BF
:1010C000FFF7B6FF002812D10E4F012C12D17B6919
:1010D00023437B61009B2B60BFF36F8F019B6B6091
:1010E000FA208000FFF7A4FF7B69A3437B61002304
:1010F0003370FEBD2800009901F0E2FDF0E7C04624
:10110000D801002000200240FA2010B58000FFF72F
:101110008FFF8022044B120659690A435A615869AD
:10112000C043C00F10BDC04600200240044B1B6AE4
:10113000DBB2AA2B02D0CC2B00D0BB2303617047BB
:1011400000200240084A536904280AD00748034097
:10115000802080010343C9001943054B0B435361B1
:10116000704704480340F6E70020024007E0FFFF15
:101170000200010007C0FFFFF7B5224F05003B78D2
:1011800002240191012B1BD00123FA203B70002384
:1011900080007B60FFF74CFF041E0FD12B68042BEF
:1011A00010D119496B684A69FA201A4380235B02FF
:1011B00013434B618000FFF73BFF040000233B70AB
:1011C0002000FEBD0123019A5B421360AE68AB684C
:1011D000EA689B18B3420CD968683100FFF7B2FF88
:1011E000FA208000FFF724FF002808D00400019BAC
:1011F0001E600221044A53698B435361DEE70136C6
:10120000E5E7C046D801002000200240F7B50022E3
:101210000B681C00D44000D1F7BD01249440A446C3
:10122000234237D003255600B5400324ED434B68D5
:1012300001951C40651E012D0FD88768019D1B0973
:101240002F40CD68B5403D43674685604568BD4346
:1012500001273B4093402B434360022C14D10727C6
:101260000F251740BF00BD40AC46D3089B00C318F4
:1012700000931B6A1D0063469D43AC460D6963469F
:10128000BD401D43009B1D62B4400368019D1D408D
:101290002C4304600132BBE7002A01D08161704712
:1012A0008162FCE710B5114C1149236802000B4024
:1012B00003432360802300209B009A420ED10D4BF4
:1012C0000D49186806235843FEF71EFF8022431C71
:1012D000D200616908001040114200D110BD002BFE
:1012E00001D0013BF5E70320F8E7C046007000405D
:1012F000FFF9FFFF0000002040420F0070B5FFF72C
:101300006DFB802380260500244C5B002268F600DC
:1013100013432360236833422BD08023DB016360B7
:10132000FFF75CFB002305003826A360A368334267
:1013300026D180235B0023602360FFF74FFB8026CC
:101340000500B60423681A00324033421FD18023BF
:101350005B01E36001235B42A2612362104A114BEF
:101360001A60114B1868FFF7F1FA431E9841C0B29A
:1013700005E0FFF733FB401B0228CBD9032070BDEB
:10138000FFF72CFB094B401B9842CFD9F6E7FFF73C
:1013900025FB401B0228D5D9F0E7C04600100240CB
:1013A0000024F40000000020080000208813000042
:1013B000036810B504009B0704D4226A002A28D1D0
:1013C000002007E0344B1A68520504D5C268002A91
:1013D00001D1012010BD59686269304812020140F4
:1013E0000A435A60002292420CD11A682C490A40E2
:1013F00021690A431A601B682A4A9B045B0FDA4082
:1014000029490A60294B1868FFF7A0FA0028D4D0B0
:10141000DFE73820204B99680140102938D080211F
:1014200023488904022A26D11A6802401A601A68E1
:101430000A42FCD1A06A626AD96802431D48014091
:101440000A43216B0A43616B0A43A16B0A43E16AB9
:1014500009020A43DA608022196852040A431A60BA
:101460008022D96852050A43DA6080229204196802
:101470001142FCD0A4E71A6802401A601A681000F2
:1014800008400A42FAD1DA680B490A40DA60A1E75B
:10149000012A9ED0DB6893E700100240FF80FFFF27
:1014A000FFC7FFFF0024F400000000200800002018
:1014B000FFFFFFFE8C80C111FCFFFEEE382370B5EC
:1014C0001D4CA2681A4205D123681C489B045B0F7F
:1014D000D84070BDA2681A40082A27D0A2681A40D6
:1014E000102A17D1E368E168DB43E5684906490F34
:1014F0006F322D0A013115409B0709D11048FEF7C4
:1015000003FEE1686843490F0131FEF7FDFDE0E7A6
:101510000A48F4E7A2681A40202A09D0A2680020ED
:101520001340182BD5D1FA20C001D2E70448D0E7E8
:1015300080200002CDE7C046001002400024F400E5
:1015400000127A00F7B504000D00002801D1012037
:10155000FEBD07274A4E33683B408B422AD32268A0
:1015600093073BD4D20748D4072733683B40AB42AC
:101570000AD93368BB432B433360FFF72FFA01903E
:1015800033683B40AB426BD123683E4D5B076FD461
:10159000FFF794FFAB683C491B051B0F9B005B5892
:1015A0001F210B40D840394A394B10601868FFF7AB
:1015B000CDF9CDE73368BB430B433360FFF70EFA39
:1015C000019033683B40AB42C9D0FFF707FA019B5B
:1015D000C01A304B9842F4D90320B9E72949530780
:1015E00004D5E0238868DB0103438B608B682A48BD
:1015F0000340A06803438B60B4E76268214F012A6F
:1016000019D13B689B03A2D50721BB688B431343C9
:10161000BB60FFF7E3F901903823BA681A406368AA
:10162000DB009A42A0D0FFF7D9F9019BC01A194BF1
:101630009842F1D9D0E7022A03D13B689B01E3D459
:1016400085E7002A03D13B685B05DDD47FE70223F1
:10165000032A03D1396E1942D6D178E7F96DFAE73A
:10166000FFF7BCF9019BC01A0A4B984288D9B3E72F
:10167000AB680A4A1340E2681343AB6088E7C04690
:101680000020024000100240F42C0008000000205E
:101690000800002088130000FFF0FFFFFF8FFFFF0E
:1016A000064B07499B68074A5B045B0F9B005B582E
:1016B0001F2110680B40D8407047C0460010024000
:1016C000342D000800000020026810B5530706D52D
:1016D00030240D494B6DA343C46823434B659201ED
:1016E0000FD5094A816C936D084803400B439365FD
:1016F00080235B00994204D18023D1685B040B43B3
:10170000D360002010BDC04600100240FFFCFFFF68
:1017100030B5EFF31084012282F310880168134D75
:101720000B682B400B6084F31088EFF3108182F379
:10173000108802680E4C93682340936081F31088F0
:10174000C36E012B0AD1EFF3108183F310881024AC
:1017500002681368A343136081F3108803002022FA
:101760008C331A600023C366436730BDDFFEFFFF82
:10177000FEFFFFEF70B50400036882680069196816
:10178000024360690243E06902431F4801400A4383
:101790001A605A681D490A40E1680A435A601C4AA7
:1017A000A169934204D01B4A934201D0226A11439B
:1017B0009A68194802400A430F219A60DA6A8A43FC
:1017C000616A0A43DA62FFF76BFF0022904214D08D
:1017D000626A124B5200D15AFEF796FC65686B089C
:1017E0002900C018FEF790FC0D49030010380122B3
:1017F000884202D82268D36000220A4B1000A366F8
:1018000000236367A36770BDF369FFCFFFCFFFFFBE
:101810000080004000840040FFF4FF11642D0008A8
:10182000EFFF000001000100836A30B51A0706D5FA
:101830000168284C4A682240846B22434A60DA07D8
:1018400006D50168244C4A682240C46A22434A6093
:101850009A0706D50168214C4A682240046B22434E
:101860004A605A0706D501681D4C4A682240446BFD
:1018700022434A60DA0606D501681A4C8A6822407B
:10188000C46B22438A609A0606D50168164C8A68A2
:101890002240046C22438A605A0610D50168134D19
:1018A0004A68446C2A4022434A6080225203944290
:1018B00005D14A680E4C2240846C22434A601B06C4
:1018C00006D502680B4953680B40C16C0B4353604B
:1018D00030BDC046FF7FFFFFFFFFFDFFFFFFFEFFA4
:1018E000FFFFFBFFFFEFFFFFFFDFFFFFFFFFEFFF4C
:1018F000FFFF9FFFFFFFF7FFF7B504000D00170084
:1019000000932268D3692B405B1B59424B41BB4279
:1019100001D0002027E0089B0133F3D0FFF75EF8E9
:10192000009BC01A089B98422ED8002B2CD0042173
:1019300023681A680A42E4D02A003C31403A8A43BC
:10194000DFD0DA69082611003140019132420BD014
:1019500020001E62FFF7DCFE230090331E60002390
:10196000012084342370FEBD8022D9691201114206
:10197000C7D01A622000FFF7CBFE2300202290334D
:101980001A60019B843423700320ECE7F0B5160045
:10199000020085B088320393136804000D00022012
:1019A000202B3AD10138002937D0002E35D08023A2
:1019B000A1685B01994204D12369002B01D1054242
:1019C0002BD1230000219033196021231360FFF7EE
:1019D00005F8230054331E8002331E8002938023B7
:1019E000A268070000265B019A4204D12369B34232
:1019F00001D12E001D00230056331B889AB2002B04
:101A00000DD1039B2000009340213B00FFF774FFA2
:101A100020238834236000280ED105B0F0BD039B3D
:101A20000022009380213B002000FFF765FF002883
:101A300004D02023883423600320EEE72268002DA1
:101A40000BD133880236DB05DB0D9362029B029AD1
:101A50001B88013B9BB21380CDE72B780135936245
:101A6000F4E70000030073B50026040090331E6005
:101A7000FEF7B4FF236805001B681B071FD58021F4
:101A8000284B32000093890303002000FFF734FF46
:101A9000B04214D0EFF31081012383F3108880202B
:101AA000226813688343136081F310882300202287
:101AB00088331A60032000238434237076BD260007
:101AC00023688C361B685B0723D58021154B0022C9
:101AD000009320002B00C903FFF70EFF002818D049
:101AE000EFF31080012282F3108821680E4D0B68FD
:101AF0002B400B6080F31088EFF3108082F3108886
:101B000021688B6893438B6080F3108820233360B7
:101B1000D0E723002022002088331A603260E0667C
:101B20002067C8E7FFFFFF01DFFEFFFF70B5041E5F
:101B300001D1012070BD050088352B68002B04D130
:101B4000020084321370FEF781FE242301212268F3
:101B50002B6013688B431360A36A002B02D0200014
:101B6000FFF762FE2000FFF705FE0128E1D02368A1
:101B700007495A6820000A402A215A609A688A4315
:101B80009A60012219680A431A60FFF76BFFD1E7D8
:101B9000FFB7FFFFF7B50700436E04006A37002B5D
:101BA00004D10120388068342080F7BD03680B4ED3
:101BB0009A689B680A4D5B0FF05CE95CC00001927B
:101BC000FEF72CFB019B38801B015B0FF05CE95C8E
:101BD000C000FEF723FB80B2E5E7C046842D000875
:101BE0007C2D000870B504008434227803000220A4
:101BF000012A11D01D002422012688352A601A6886
:101C000011681068B0431060044801400020586615
:101C1000202311602B60207070BDC046FFFFFFDFE6
:101C2000F8B5050084350B0029780222012915D06A
:101C30000600012104688836223232602768226853
:101C40008A432260A168C900C9081943A160FFF74F
:101C5000A1FF20230022276033602A701000F8BD06
:101C6000F8B5050084350A0029780223012915D02A
:101C70000600012104688836223333602768236810
:101C80008B432360A168064B19401143A160FFF705
:101C900081FF20232760336000232B701800F8BDDC
:101CA000FFFFFFF110B5012280210548FFF7F4FA8C
:101CB0008021A02001220902C005FFF7EDFA10BD26
:101CC0000008005000B595B001A8FFF72FFA05985D
:101CD00015B000BD10B5FFF7F5FFAA38431E9841B7
:101CE000C0B210BD00787047F8B5150006000F00AF
:101CF000FFF78CF980220024084B12061A61AC42CF
:101D000002D3FFF701FAF8BD3B19A11901201A68A7
:101D10005B68FFF7C5F90834F1E7C04600200240D0
:101D2000F0B5002587B004000E000195FFF76EF9AD
:101D300080220E4B12061A6102230293DB180393D2
:101D4000033B278805930234BD4201D2B54203D13B
:101D5000FFF7DAF907B0F0BD238801A902A80493C0
:101D60000234FFF709FA0135EEE7C04600200240D1
:101D70000B4A036810B51340802204009205934279
:101D80000CD1084800F0B8FBFFF7B8FAFEF7CAFD1F
:101D900072B66368226882F30888984710BDC0460F
:101DA00000B0FD2F8C2D00080023144910B50B60E6
:101DB0004B6002338B60013BCB601223104CFF332E
:101DC0000B61104B20004B61FEF73AFF002801D059
:101DD000FEF792FC636AE16A002220005943FEF795
:101DE00058FF002801D0FEF787FC2000FEF762FFB5
:101DF000002801D0FEF780FC10BDC0462401002061
:101E0000C0000020FF07000010B5FFF7CDFFFFF76F
:101E100049FF0520FEF7E8FD134C002201212000B8
:101E2000FFF76AF8002801D0FEF766FC2000FEF7F5
:101E300054FF002801D0FEF75FFC01220F210B4B5D
:101E40001A700B4B0B4AD96080211A60802249031B
:101E5000D205596180215A60002289039A601A6173
:101E60009961DA611A6210BDC000002004A500204B
:101E7000F401002011F1FF0073B56B46DE1D012354
:101E80000D4D3070EB600D4C2000FFF72FF800284F
:101E9000F9D0290032002000FEF736FF80212368A8
:101EA00089001A6D0A42FCD01A6D01200A401A6599
:101EB000FEF79AFD73BDC046F4010020C00000206B
:101EC00070B505000C4EF1600C4C2000FFF70EF8C9
:101ED0000028F9D031002A002000FEF715FF8021EC
:101EE000236889001A6D0A42FCD01A6D01200A404D
:101EF0001A65FEF779FD70BDF4010020C0000020D6
:101F0000034B01301B68984200D100207047C04647
:101F10000C000020F8B50C4D0C4B2C681B68010020
:101F200000209C420FDA68221300094E09483768E6
:101F300001347B43C01800F05EFC3800FFF7E0FF7F
:101F4000306001202C60F8BD0CA500200C000020A2
:101F500008A500201802002010B5C90726D5144C8A
:101F600040212300220028331248FEF731FF236866
:101F7000022219009143104A91420ED020221900EA
:101F800091430E4A914208D00D4A934205D00D4A22
:101F9000934202D00C4A934208D12000FFF7BAFFC7
:101FA0000A4B1B78012B01D1094A137010BDC046A2
:101FB0009CA40020C000002000FFFF0011FFFF00D4
:101FC00021FFFF0044FFFF0011F1FF0004A50020E6
:101FD00005A50020F8B500230A4D2C689C420FDDB2
:101FE00068221300084E09493768013C7B43C91831
:101FF00000F001FC3800FFF783FF012330602C6004
:102000001800F8BD0CA5002098A40020180200209C
:1020100000B59BB06846FFF7DDFF002806D0012021
:10202000FEF7E2FC0AAB18781BB000BD014800F0D7
:1020300063FAF9E7912D000810B59AB004006846DC
:10204000FFF7C8FF002809D0402220000AA900F0AD
:10205000D2FB0120FEF7C8FC1AB010BD014800F009
:102060004BFAF9E7912D000830B585B001AD0B2290
:102070000C49280000F0BFFB7920FFF7FDFE0B2084
:10208000FFF7FAFE0120FFF7F7FE0024285D013478
:10209000FFF7F2FE0B2CF9D17920FFF7EDFE05B02A
:1020A00030BDC046D02C000800B5792091B0FFF7B4
:1020B000E3FE6A46054B022168461380FFF700FFE6
:1020C0007920FFF7D9FE11B000BDC04604670000BB
:1020D00030B595B0FFF7FEFD002804D01F20FFF7B4
:1020E000CBFE15B030BD7920FFF7C6FE174A138D21
:1020F0005BBA13856A469CB213800F2322009A4371
:10210000134B9A42EDD00A20FEF76EFC6B4640213D
:10211000981CFFF791FF0223002C05D1684640214F
:10212000FFF7FEFD7920DAE76A466946D05C5A1C63
:1021300092B28D5C1100694401390D706946023319
:10214000013C88549BB2A4B2E6E7C0469CA40020A0
:10215000F0FF0000F822064B12069B6A1BBA0360D0
:102160009B18802279209202934200D95A387047F6
:102170009CA40020F0B593B0FFF7ACFD002804D07C
:102180001F20FFF779FE13B0F0BD01A8FFF7E2FFB3
:102190001F28F5D07920FFF76FFE1E4B2C331C78DB
:1021A0003F230134A7091C40002F20D1002C1CD054
:1021B000270002AD019E013F3000FFF793FD01367D
:1021C000287001960135002FF4D14023FF21E2B29F
:1021D0001B1B6846082400198154013B0132D2B20E
:1021E000002BF6D10F21FFF76BFE7920C9E7002500
:1021F000019E3000FFF776FD02AB585501360135E0
:102200000196402DF4D10F211800FFF759FE013F30
:10221000CAE7C0469CA40020F0B5C3B0FFF75AFD42
:10222000041E04D01F20FFF727FE43B0F0BD01A815
:10223000FFF790FF1F28F5D03F257920FFF71CFE00
:10224000134B0A202C331E7801363540FEF7CCFBA9
:102250003F2E0ED8002D05D0701B02AB0F21181891
:10226000FFF7EAFE0198320002A9FFF73DFD792051
:10227000D9E7B709BC42EDD002ABA00118180F2175
:10228000FFF7DAFE01340520FEF7AEFBE4B2F1E71A
:102290009CA4002007B5FFF71DFD002803D01F20D8
:1022A000FFF7EAFD07BD7920FFF7E6FD01A8FFF77C
:1022B00051FF1F28F3D07920FFF7DEFD0198FFF7CB
:1022C00057FDEFE7002310B504000360436083600F
:1022D00081814366C28103614361836119000822E1
:1022E0005C3000F005FA0B4B246263620A4BA36278
:1022F0000A4BE3620A4B23630A4B9C4205D00A4B0C
:102300009C4202D0094B9C4203D12000583000F07F
:102310006FFA10BD0D250008352500086D25000851
:102320009925000810A5002078A50020E0A5002030
:1023300010B5034A0349044800F06CF810BDC046CC
:1023400010000020192B00081C00002041680B4BD6
:1023500010B50400994201D000F0DEFBA168084BE3
:10236000994202D0200000F0D7FBE168054B99426A
:1023700002D0200000F0D0FB10BDC04610A5002008
:1023800078A50020E0A5002010B5094B094A0421DA
:102390001A6009480022FFF795FF0122092107482A
:1023A000FFF790FF022212210548FFF78BFF10BDB7
:1023B00048A600203123000810A5002078A50020A1
:1023C000E0A5002010B5024800F013FA10BDC04689
:1023D00051A6002010B5024800F00CFA10BDC0460E
:1023E00051A6002010B50400FFF7ECFF236A002B74
:1023F00002D0FFF7EFFF10BD044B2362044B1B68B4
:10240000002BF6D1FFF7C0FFF3E7C0464D230008CD
:1024100048A60020F7B51400002600900191A56899
:102420006768013F04D52468002CF8D13000FEBD58
:10243000AB89012B08D90E22AB5E013304D02900F1
:102440000098019B984706436835EAE7036A70B530
:1024500005000E008468002B01D1FFF7C3FF636EF7
:10246000DB0705D4A3899B0502D4A06D00F0C1F958
:10247000A3891B0702D52369002B1FD12100280047
:1024800000F0D2F8002819D001256D42636EDB07F9
:1024900005D4A3899B0502D4A06D00F0ABF92800F8
:1024A00070BD0136A360002B04DAA2699A4216DCE3
:1024B0000A2914D023685A1C22601970A368317845
:1024C000013B0029EDD1A360002B0FDA2800220088
:1024D0000A3100F067F80A250130D7D1D4E722008D
:1024E000280000F05FF80130E8D1CDE70A25236825
:1024F0005A1C22601D70C9E710B5034B0100186813
:10250000FFF7A4FF10BDC0466800002070B50C00A6
:102510000E25495F00F01AF9002803DB636D1B18D4
:10252000636570BDA389024A1340A381F9E7C046E1
:10253000FFEFFFFFF8B51F008B8905000C001600A8
:10254000DB0505D50E23C95E0022022300F0EAF860
:10255000A389054A28001340A38132000E23E15EBF
:102560003B0000F007F9F8BDFFEFFFFF70B50C006E
:102570000E25495F00F0D6F8A389421C03D1054A15
:102580001340A38170BD802252011343A381606573
:10259000F8E7C046FFEFFFFF10B50E23C95E00F05D
:1025A000AFF810BDF8B506000D001400002804D0E7
:1025B000036A002B01D1FFF715FFA369A360A3896C
:1025C0001B0728D52369002B25D023692068EFB28B
:1025D000C01A6369EDB2834205DC2100300000F0CF
:1025E0009BFA00281DD1A3680130013BA36023683A
:1025F0005A1C22601F706369834204D0A389DB07E1
:1026000007D50A2D05D12100300000F085FA0028F9
:1026100007D12800F8BD2100300000F005F800289F
:10262000D3D001256D42F4E7304B70B50500186832
:102630000C00002804D0036A002B01D1FFF7D2FE62
:102640000C23E25E93B2110723D4D90607D40923E1
:1026500001202B6037331343A381404270BD5B07D9
:1026600013D5616B002908D023004433994202D06E
:10267000280000F0C9F8002363632422A389934350
:10268000A38100236360236923600823A289134385
:10269000A3812369002B0BD1A0218022A38989006B
:1026A00092000B40934203D02100280000F088FAEA
:1026B0000C22A35E01201A0099B2024003420FD0FF
:1026C0000022A26062695242A26100202269824215
:1026D000C4D10906C2D540221343A3810138BDE706
:1026E000880700D46269A260EFE7C0466800002056
:1026F00003008218934200D1704719700133F9E743
:10270000002370B5064D040008002B60FEF73AF870
:10271000431C03D12B68002B00D0236070BDC04642
:102720004CA6002070B50400080011001A00002318
:10273000054D2B60FEF730F8431C03D12B68002BAE
:1027400000D0236070BDC0464CA6002070B50400C8
:10275000080011001A000023054D2B60FDF7F8FF5B
:10276000431C03D12B68002B00D0236070BDC046F2
:102770004CA6002070B50400080011001A000023C8
:10278000054D2B60FDF7F1FF431C03D12B68002B97
:1027900000D0236070BDC0464CA60020014B1868D5
:1027A0007047C0466800002070B500260C4C0D4DE7
:1027B000641BA410A64209D1002600F075FA0A4C49
:1027C0000A4D641BA410A64205D170BDB300EB589E
:1027D00098470136EEE7B300EB5898470136F2E729
:1027E000A42D0008A42D0008A82D0008A42D000881
:1027F000704770477047002310B59A4200D110BD52
:10280000CC5CC4540133F8E770B50500002910D042
:102810000C1F2368002B00DAE418280000F0E2F80F
:102820001D4A1368002B05D163601460280000F076
:10283000E1F870BDA34208D9206821188B42F3D17A
:1028400019685B6809182160EEE71A005B68002BC5
:1028500001D0A342F9D911685018A0420BD12068C9
:102860000918501811608342E0D118685B6841185C
:1028700011605360DAE7A04202D90C232B60D5E740
:10288000206821188B4203D119685B680918216000
:1028900063605460CAE7C04654A6002070B50F4E6E
:1028A0000D0031680400002902D100F0EBF930601E
:1028B0002900200000F0E6F9431C0AD00323C51CC0
:1028C0009D43A84207D0291A200000F0DBF901300F
:1028D00001D101256D42280070BDC04658A60020D8
:1028E000F7B50322CB1C9343083306001F000C2BC3
:1028F00038D20C27B94237D8300000F073F8384B83
:1029000000931B681C00002C33D139003000FFF706
:10291000C5FF0400431C5ED1009B1C682500002DF0
:102920004ED1002C51D023682900E31830000193C8
:1029300000F0A8F9019B834247D123683000FF1AB9
:102940003900FFF7ABFF01303FD02368DB1923606C
:10295000009B1B68002B40D05A68A24233D1002252
:102960005A6014E0002BC5DA0C23002533602800E0
:10297000FEBD2168C91B20D40B2918D9E219276094
:10298000A34212D1009B1A6063681160536030004B
:10299000250000F02FF807220B35231D9543EA1A76
:1029A0009D42E4D05B1BA350E1E75A60ECE762680C
:1029B000A342D5D1009B1A60E9E723006468A2E72F
:1029C0002C006D68ABE71300C4E70C2330003360C4
:1029D00000F010F8CBE72760D9E75B60FFDEC04668
:1029E00054A6002010B50248FFF703FF10BDC046F3
:1029F00050A6002010B50248FFF7FCFE10BDC046EF
:102A000050A60020F7B58B8905000C001A075CD48E
:102A10004A68002A04DC0A6C002A01DC0020FEBDA2
:102A2000E76A002FFAD0002280202E682A601A0060
:102A30004001216A0240034234D0606DA3895B07E4
:102A400006D56368C01A636B002B01D0236CC01AD3
:102A5000020000232800E76A216AB847A289431CC4
:102A600006D129681D292CD82A4B0B41DB0728D415
:102A70000023636023692360D20405D5431C02D17F
:102A80002B68002B00D16065616B2E600029C5D0DA
:102A900023004433994202D02800FFF7B5FE0020FE
:102AA0006063BCE701232800B847431CC6D12B68EC
:102AB000002BC3D01D2B01D0162B01D12E60ADE70A
:102AC000A28940231343A381A9E70E69002EA5D054
:102AD0000F680E60BA1B019200229B0700D14A6961
:102AE000A260019B002B99DDA36A32001F00280021
:102AF000019B216AB847002806DC40230120A289F7
:102B000040421343A3818AE7019B36181B1A0193A5
:102B1000E7E7C046FEFFBFDF0B6970B505000C009C
:102B2000002B02D10025280070BD002804D0036AC4
:102B3000002B01D1FFF756FC0C22A35E002BF1D035
:102B4000626ED20704D49B0502D4A06DFFF751FE3C
:102B500028002100FFF756FF636E0500DB07E2D473
:102B6000A3899B05DFD4A06DFFF744FEDBE70000DF
:102B700070B50E001D000E23C95E140096B000292A
:102B80000CDAB2898023110019401A4213D00021B7
:102B9000403B00202960236016B070BD6A4600F0FB
:102BA0004DF80028EDDBF02301991B021940034B7F
:102BB000C9184B4259418023DB00EAE700E0FFFFE0
:102BC000F7B502268B8905000C00334206D023009E
:102BD00047332360236101236361F7BD6A4601AB7C
:102BE000FFF7C6FF009907002800FFF779FE0028CD
:102BF00008D10C22A35E9A05EFD4032293431E430F
:102C0000A681E4E78023A28920601343A381009B6F
:102C100020616361019B002B0CD028000E23E15E34
:102C200000F01EF8002805D00323A2899A43023B36
:102C30001343A381A3893B43A381CEE7002370B54F
:102C4000064D0400080011002B60FDF79EFD431C9B
:102C500003D12B68002B00D0236070BD4CA6002050
:102C6000002370B5064D040008002B60FDF792FDAF
:102C7000431C03D12B68002B00D0236070BDC046DD
:102C80004CA60020002370B5064D040008002B6000
:102C9000FDF784FD431C03D12B68002B00D023607B
:102CA00070BDC0464CA60020F8B5C046F8BC08BCB4
:102CB0009E467047F8B5C046F8BC08BC9E467047B3
:102CC00001B40248844601BC604700BF6D0000208B
:102CD0000001021121314463738292646576696355
:102CE000650053656C65637420436F6D6D616E6440
:102CF0002049440000000000000000000000000027
:102D000000000000000000000000000000000000C3
:102D100000000000010000000200000003000000AD
:102D2000040000000600000007000000080000008A
:102D3000090000000000000000000000000000008A
:102D4000000000000100000002000000030000007D
:102D5000040000000001020304050607080C10141B
:102D600018203040010002000400060008000A009C
:102D70000C00100020004000800000010804020444
:102D80000801010101010103070100006A756D706E
:102D90000042756666657220697320456D707479AE
:042DA000000000002F
:042DA400E90000083A
:042DA800C10000085E
:102DAC000024F40001000000040000009001000069
:102DBC00000000000300000010A50020000000002F
:102DCC0010A5002078A50020E0A500200000000040
:102DDC0000000000000000000000000000000000E7
:102DEC0000000000000000000000000000000000D7
:102DFC0000000000000000000000000000000000C7
:102E0C0000000000000000001C00002080220C4B81
:102E1C0030B55C69D20222435A61EFF3108272B66C
:102E2C004C1CFF34401A0D6845500431A142FAD1B4
:102E3C00C021890218690842FCD182F3108830BD88
:042E4C000020024020
:04000005080008D116
:00000001FF
