:020000040800F2
:100000000040022035100008350C00083F0C0008A5
:1000100000000000000000000000000000000000E0
:10002000000000000000000000000000450C000877
:1000300000000000000000004F0C0008590C0008F0
:10004000851000088510000885100008851000083C
:10005000851000088510000885100008851000082C
:10006000851000088510000885100008851000081C
:10007000851000088510000885100008851000080C
:10008000690C00088510000885100008851000081C
:1000900085100008851000088510000885100008EC
:1000A00085100008810C00088510000885100008E4
:0C00B0008510000885100008851000086D
:1000C00010B5064C2378002B07D1054B002B02D02E
:1000D000044800E000BF0123237010BD040100208C
:1000E00000000000989E0008044B10B5002B03D0C0
:1000F0000349044800E000BF10BDC04600000000F6
:1001000008010020989E00080023C25C0133002AE9
:10011000FBD1581E7047000003B4714649084000E7
:100120004900095E49008E4403BC70470022430821
:100130008B4274D303098B425FD3030A8B4244D3AF
:10014000030B8B4228D3030C8B420DD3FF220902F1
:1001500012BA030C8B4202D31212090265D0030BB0
:100160008B4219D300E0090AC30B8B4201D3CB03A6
:10017000C01A5241830B8B4201D38B03C01A5241E8
:10018000430B8B4201D34B03C01A5241030B8B42EA
:1001900001D30B03C01A5241C30A8B4201D3CB02D5
:1001A000C01A5241830A8B4201D38B02C01A5241BA
:1001B000430A8B4201D34B02C01A5241030A8B42BD
:1001C00001D30B02C01A5241CDD2C3098B4201D3D5
:1001D000CB01C01A524183098B4201D38B01C01A53
:1001E000524143098B4201D34B01C01A52410309CA
:1001F0008B4201D30B01C01A5241C3088B4201D379
:10020000CB00C01A524183088B4201D38B00C01A25
:10021000524143088B4201D34B00C01A5241411A4C
:1002200000D20146524110467047FFE701B5002059
:1002300000F0F0F802BDC0460029F7D076E770471D
:1002400003460B437FD4002243088B4274D3030937
:100250008B425FD3030A8B4244D3030B8B4228D3D8
:10026000030C8B420DD3FF22090212BA030C8B42FE
:1002700002D31212090265D0030B8B4219D300E09E
:10028000090AC30B8B4201D3CB03C01A5241830B23
:100290008B4201D38B03C01A5241430B8B4201D3D3
:1002A0004B03C01A5241030B8B4201D30B03C01AFC
:1002B0005241C30A8B4201D3CB02C01A5241830A76
:1002C0008B4201D38B02C01A5241430A8B4201D3A5
:1002D0004B02C01A5241030A8B4201D30B02C01ACF
:1002E0005241CDD2C3098B4201D3CB01C01A524136
:1002F00083098B4201D38B01C01A524143098B42BF
:1003000001D34B01C01A524103098B4201D30B01A7
:10031000C01A5241C3088B4201D3CB00C01A5241CC
:1003200083088B4201D38B00C01A524143088B4291
:1003300001D34B00C01A5241411A00D2014652412A
:10034000104670475DE0CA0F00D04942031000D349
:100350004042534000229C4603098B422DD3030A9E
:100360008B4212D3FC22890112BA030A8B420CD3AE
:10037000890192118B4208D3890192118B4204D3D7
:1003800089013AD0921100E08909C3098B4201D357
:10039000CB01C01A524183098B4201D38B01C01A91
:1003A000524143098B4201D34B01C01A5241030908
:1003B0008B4201D30B01C01A5241C3088B4201D3B7
:1003C000CB00C01A524183088B4201D38B00C01A64
:1003D0005241D9D243088B4201D34B00C01A52413B
:1003E000411A00D20146634652415B10104601D3C8
:1003F0004042002B00D54942704763465B1000D352
:10040000404201B5002000F005F802BD0029F8D0F7
:1004100016E770477047C046002B11D1002A0FD154
:10042000002900D1002802D00021C943080007B4E8
:10043000024802A14018029003BDC046D9FFFFFF49
:1004400003B4684601B5029800F006F8019B9E4689
:1004500002B00CBC7047C046F0B557464E46454604
:10046000DE46E0B504000D009246994683B08B420B
:1004700030D82DD04946504600F0BAF82900060081
:10048000200000F0B5F8331A9846203B34D49B4640
:1004900053465A46934042461F00534693401E001F
:1004A000AF423BD8AF4200D179E05B46A41BBD41CF
:1004B000002B00DA76E00022002300920193012352
:1004C0005A4693400193012342469340009329E00A
:1004D0008242CFD900220023009201930C9B002B73
:1004E00001D01C605D600098019903B0F0BCBB4670
:1004F000B246A946A046F0BD42469B4620239B1A21
:100500005246DA40414613004A468A4017004246A6
:100510001F43534693401E00AF42C3D9002200231D
:10052000009201934346002BD8D0FB0772081A4370
:1005300046467B080EE0AB4201D1A2420CD8A41A79
:100540009D41012024196D410021013E24184D4197
:10055000002E06D0AB42EED9013E24196D41002E8B
:10056000F8D1009801995B4600196941002B24DB02
:100570002B005A464446D3402A00E2401C005B460A
:100580001500002B2ADB26009E403300260047463C
:10059000BE403200801A9941009001919EE7A3422B
:1005A000BCD882E74246202300219B1A00220091FA
:1005B00001920122DA40019285E7424620239B1AEC
:1005C0002A0046469A402300F340444613432A003B
:1005D000E2401C005B461500002BD4DA42462F0097
:1005E0002023260097409B1ADE403B003343CDE793
:1005F00010B5002903D100F007F8203002E0080010
:1006000000F002F810BDC0461C2101231B049842D3
:1006100001D3000C10391B0A984201D3000A083993
:100620001B09984201D30009043902A2105C40184A
:100630007047C046040302020101010100000000EE
:100640000000000090B589B000AF0C243B191800E1
:1006500014231A00002108F077F9364B5A6B354BFA
:1006600020210A435A63334B5B6B20221340BB604B
:10067000BB68304B5A6B2F4B01210A435A632D4BF9
:100680005B6B012213407B607B682A4B5A6B294BC2
:1006900002210A435A63274B5B6B022213403B60E3
:1006A0003B68A023DB0500221021180001F067FA47
:1006B000214B00223021180001F061FA3B19102271
:1006C0001A603B1901225A603B1900229A603B19BB
:1006D0000022DA603A19A023DB051100180001F0AE
:1006E000C5F821007B18802212021A600C003B1909
:1006F00000225A603B1901229A603B190E4A1900E8
:10070000100001F0B3F821007B1830221A607B182A
:1007100001225A607B1800229A607B180022DA605E
:100720007B18054A1900100001F0A0F8C046BD462C
:1007300009B090BD001002400004005080B500AF29
:10074000C82006F0C3FD06F0F3FDFEE7F0B5134C3C
:10075000A54400AF786039600023BB60104EBC191F
:1007600010490C257B190122180006F0F3F803004C
:100770002370BB191B78002B0AD10823FB183A6899
:100780007968781906F0EBFA7B19180006F0D3FCAB
:10079000BB681800BD46044B9D44F0BDBCEFFFFF95
:1007A0003F100000C09E00084410000080B586B0D5
:1007B00000AF78607B681B68124A1A4080239B0553
:1007C0009A421AD1104B180007F098FF00F032FD42
:1007D00001F05AFA00F078FC72B6C0467B68043328
:1007E0001B687B617B681B68FB60FB6883F3088880
:1007F000C0467B693B613B699847C046BD4606B031
:1008000080BDC04600B0FD2FD09E000880B582B0EC
:1008100000AF786001235B42391D0448012203F0D8
:10082000EBF87B681800BD4602B080BDD401002003
:10083000B0B5624CA54400AF00F026FC00F0DAF839
:10084000FFF700FF00F036F900F0C8FA00F044FBB3
:1008500004F01AF8031E01D000F026F9012006F07A
:1008600003FD574B180007F049FF07F05BF9031E23
:1008700000D195E0002006F0F7FCFA239B00180059
:1008800000F0B4FC322006F021FD06F051FD4D4988
:10089000B223DB00FB180122180006F00FF803005A
:1008A000494ABA181360494B180007F027FF802304
:1008B000DA00C8256D007B1911001800FFF746FF0C
:1008C0000300434C3A1913603B191A68414B11005D
:1008D000180007F0ADFE21007B181B68002B5AD0D2
:1008E00000233D4C3A1913603A007B1819687B19B4
:1008F000180006F0CFFE03003A1913603B191A687E
:10090000364B1100180007F093FE3B191B68002BB3
:100910003FD00023324ABA18136031E0274B314AE6
:100920009B18D9192E483B181A6813009B009B1876
:100930009B00CB1804331B78022B0FD139003B18D6
:100940001A6813009B009B189B00CB18180006F038
:100950006FFD0300244ABA18136004E001235B42D0
:10096000214ABA181360204BFB181B68002B01D0DA
:10097000FFF7E4FE1A4ABB181B680133BA1813606C
:10098000174BFB181A68144BFB181B689A42C5DBFF
:1009900001E0FFF7D3FE06F0DFFC012006F064FC67
:1009A00007F082F8114B180007F0A8FE104B180052
:1009B000FFF7FCFEFFF7C2FEFEE7C04628EAFFFF96
:1009C000D89E0008E09E0008CC150000E49E0008B8
:1009D000C8150000F09E0008C4150000FC9E000829
:1009E000D4150000D8150000D01500000C9F000899
:1009F00000F0000890B595B000AF14243B19180022
:100A00003C231A00002107F09FFF3B1D1800102314
:100A10001A00002107F098FF80239B00180001F0C6
:100A2000E7F83B1901221A603B19802252025A60F2
:100A300021007B1802221A627B1803225A627B185B
:100A400000229A627B181022DA627B1880229202BE
:100A50001A637B18802292045A637B1880229205C5
:100A60009A637B18180001F08BF9031E01D000F087
:100A70001BF83B1D07221A603B1D02225A603B1DDA
:100A800000229A603B1D0022DA603B1D0221180003
:100A900001F0D6FC031E01D000F006F801F07AFE4A
:100AA000C046BD4615B090BD80B500AF72B6C04619
:100AB000FEE7000080B500AF1F4B204A1A601E4BB6
:100AC000822252005A601C4B00229A601A4BE0228C
:100AD000D200DA60184B02221A61174B01225A61C8
:100AE000154B802292009A61134B0822DA61124B57
:100AF00000221A62104B00225A620F4B00229A62A7
:100B00000D4B0722DA620C4B00221A630A4B0022BB
:100B10005A63094B180002F0B1F8031E01D0FFF729
:100B2000C3FF054B1B681A68034B1B6840210A432F
:100B30001A60C046BD4680BD200100200030014043
:100B400090B58BB000AF786014243B1918001423C3
:100B50001A00002107F0F8FE7B681B681F4A9342C9
:100B600038D11F4B1A6C1E4B802149010A431A646D
:100B70001B4B1A6C80235B0113403B613B69184B94
:100B80005A6B174B01210A435A63154B5B6B0122C9
:100B90001340FB60FB6821007B18E0221A607B1881
:100BA00002225A607B1800229A607B180022DA60C9
:100BB0007B1800221A617A18A023DB0511001800A7
:100BC00000F054FE00220021192000F003FC19203F
:100BD00000F015FCC046BD460BB090BD0030014092
:100BE0000010024080B582B000AF114B1A6C104B60
:100BF00001210A431A640E4B1B6C012213407B60D7
:100C00007B680B4BDA6B0A4B802149050A43DA6398
:100C1000074BDA6B80235B0513403B603B68C023C6
:100C2000DB00180000F014FBC046BD4602B080BDDA
:100C30000010024080B500AF01F0BAFDFEE780B5BC
:100C400000AFFEE780B500AFC046BD4680BD80B5B1
:100C500000AFC046BD4680BD80B500AF00F0AAFA27
:100C6000C046BD4680BD000080B500AF034B1800F4
:100C700002F0ACFAC046BD4680BDC04688010020E7
:100C800080B500AF034B180002F0B0F8C046BD4677
:100C900080BDC0462001002080B586B000AFF8605E
:100CA000B9607A6000237B610AE000E000BF0100C8
:100CB000BB685A1CBA60CAB21A707B6901337B6187
:100CC0007A697B689A42F0DB7B681800BD4606B003
:100CD00080BD80B586B000AFF860B9607A6000234F
:100CE0007B6109E0BB685A1CBA601B781800FFF7EB
:100CF0008DFD7B6901337B617A697B689A42F1DB08
:100D00007B681800BD4606B080BD80B582B000AFDC
:100D1000786001235B421800BD4602B080BD80B5FB
:100D200082B000AF786039603B68802292015A60DF
:100D300000231800BD4602B080BD80B582B000AF70
:100D4000786001231800BD4602B080BD80B584B034
:100D500000AFF860B9607A6000231800BD4604B0A7
:100D600080BD000080B586B000AF7860144A154B96
:100D7000D31A7B617B693B61134B1B68002B02D14B
:100D8000114B124A1A60104B1A687B68D3183A69E3
:100D90009A4207D207F040FE03000C221A6001239A
:100DA0005B4209E0084B1B68FB60074B1A687B68D5
:100DB000D218054B1A60FB681800BD4606B080BD0E
:100DC00000400220002000008401002020040020B8
:100DD00080B500AFC046BD4680BD000080B588B07C
:100DE00000AF1023FB18180010231A00002107F091
:100DF000ABFD3B1D18000C231A00002107F0A4FDD9
:100E00001E4B1F4A1A601D4B1E4A5A601B4B002284
:100E10009A601A4B1C4ADA60184B00221A61174B71
:100E200000229A61154B180002F0E8F8031E01D069
:100E3000FFF73AFE10217B18802252011A607A18BF
:100E40000E4B1100180002F0C9FA031E01D0FFF783
:100E50002BFE3B1D00221A603B1D00229A603A1DAA
:100E6000064B1100180002F0E3FC031E01D0FFF74F
:100E70001BFEC046BD4608B080BDC04688010020AC
:100E800000040040FF180000CF07000080B584B0C8
:100E900000AF78607B681B680D4A934213D10D4BFD
:100EA000DA6B0C4B02210A43DA630A4BDB6B02223A
:100EB0001340FB60FB6800220021102000F08AFA3A
:100EC000102000F09CFAC046BD4604B080BDC0466C
:100ED000000400400010024080B500AF234B244ABC
:100EE0001A60224BE12252025A60204B00229A6083
:100EF0001E4B0022DA601D4B00221A611B4B0C2294
:100F00005A611A4B00229A61184B0022DA61174B82
:100F100000221A62154B00225A62144B00229A6278
:100F2000124B180002F012FD031E01D0FFF7BCFDAA
:100F30000E4B0021180003F0C7FB031E01D0FFF782
:100F4000B3FD0A4B0021180003F0FEFB031E01D085
:100F5000FFF7AAFD054B180003F07CFB031E01D030
:100F6000FFF7A2FDC046BD4680BDC046D4010020AB
:100F70000044004090B59DB000AF78605C23FB1842
:100F8000180014231A00002107F0DEFC10243B197E
:100F900018004C231A00002107F0D6FC7B681B6860
:100FA000224A93423ED13B1902221A603B19002289
:100FB0009A603B19180001F025FC031E01D0FFF7D1
:100FC00073FD1B4BDA6B1A4B802189020A43DA63EB
:100FD000174BDA6B80239B021340FB60FB68144BBA
:100FE0005A6B134B01210A435A63114B5B6B01226D
:100FF0001340BB60BB685C217B180C221A607B1815
:1010000002225A607B1800229A607B180022DA6064
:101010007B1801221A617A18A023DB051100180041
:1010200000F024FCC046BD461DB090BD0044004009
:10103000001002400D488546FFF7CAFE0C480D49D6
:101040000D4A002302E0D458C4500433C4188C4223
:10105000F9D30A4A0A4C002301E013600432A24289
:10106000FBD307F0DFFCFFF7E3FBFEE700400220C5
:101070000000002004010020F4A200080401002068
:101080001C040020FEE7000080B582B000AFFB1D0D
:1010900000221A700B4B1A680A4B802149000A4340
:1010A0001A60032000F03CF8031E03D0FB1D012250
:1010B0001A7001E0FFF796FDFB1D1B781800BD4676
:1010C00002B080BD0020024080B500AF104B01226D
:1010D0005242DA620E4B0022DA620D4B012252427A
:1010E0001A630B4B00221A63094B012252429A6287
:1010F000074B00229A62064B012252425A62044B6D
:1011000000225A6200F006F800231800BD4680BD98
:101110000010024080B500AFC046BD4680BD000053
:1011200090B585B000AF78600F23FB1800221A70CD
:101130001D4B1B78002B2BD01C4B1C681A4B1B78AB
:101140001900FA239800FEF7F1FF030019002000B0
:10115000FEF7ECFF0300180000F061F9031E12D146
:101160007B68032B0AD8796801235B4200221800B0
:1011700000F030F90E4B7A681A600DE00F23FB186F
:1011800001221A7008E00F23FB1801221A7003E0F5
:101190000F23FB1801221A700F23FB181B7818006D
:1011A000BD4605B090BDC0460800002000000020EC
:1011B0000400002080B500AF054B1B781A00054BDA
:1011C0001B68D218034B1A60C046BD4680BDC0469E
:1011D000080000206802002080B500AF024B1B68A9
:1011E0001800BD4680BDC0466802002080B584B0AE
:1011F00000AF7860FFF7F0FF0300BB607B68FB6027
:10120000FB68013305D00A4B1B781A00FB689B185A
:10121000FB60C046FFF7E0FF0200BB68D31AFA6824
:101220009A42F7D8C046C046BD4604B080BDC0460D
:101230000800002080B500AF044B1A68034B022160
:101240008A431A60C046BD4680BDC04610E000E03B
:1012500080B582B000AF7860064B1B68064A134029
:101260001900044B7A680A431A60C046BD4602B0B2
:1012700080BDC04600000140FFF9FFFF80B582B08D
:1012800000AF0200FB1D1A70FB1D1B787F2B09D8D5
:10129000FB1D1B781A001F231A40044B01219140AB
:1012A0000A001A60C046BD4602B080BD00E100E001
:1012B00090B583B000AF02003960FB1D1A70FB1DB2
:1012C0001B787F2B28D82F4AFB1D1B785BB29B080D
:1012D000C0339B009B58FA1D1278110003220A406C
:1012E000D200FF2191400A00D2431A4011003B680E
:1012F0009B01FF221A40FB1D1B78180003230340AB
:10130000DB009A401F48FB1D1B785BB29B080A4319
:10131000C0339B001A5031E01B4AFB1D1B7819009B
:101320000F230B40083B9B0806339B00D318043364
:101330001B68FA1D1278110003220A40D200FF2117
:1013400091400A00D2431A4011003B689B01FF22E2
:101350001A40FB1D1B78180003230340DB009A4052
:101360000948FB1D1B781C000F232340083B9B08EA
:101370000A4306339B00C31804331A60C046BD46B7
:1013800003B090BD00E100E000ED00E080B582B068
:1013900000AF78607B685A1E80235B049A4201D3B9
:1013A000012310E00A4B7A68013A5A6001235B423C
:1013B00003211800FFF77CFF054B00229A60044BC5
:1013C00007221A6000231800BD4602B080BDC04647
:1013D00010E000E080B584B000AFB9607A600F2102
:1013E0007B18021C1A70BA687B181B785BB211005C
:1013F0001800FFF75DFFC046BD4604B080BD80B554
:1014000082B000AF0200FB1D1A70FB1D1B785BB29F
:101410001800FFF733FFC046BD4602B080BD80B55F
:1014200082B000AF78607B681800FFF7AFFF030061
:101430001800BD4602B080BD80B584B000AF7860B2
:101440000F217B1800221A707B6825229B5CDBB27F
:10145000022B06D07B680422DA637B1801221A7003
:1014600048E07B681B681A687B681B680E218A430A
:101470001A607B681B681A687B681B6801218A43B5
:101480001A607B689B6C1A687B689B6C1D490A40DC
:101490001A607B685B6C1C221A407B681B6C012104
:1014A00091400A005A607B68DB6C7A68126D5A6062
:1014B0007B685B6D002B0CD07B685B6D1A687B686A
:1014C0005B6D10490A401A607B689B6D7A68D26D2B
:1014D0005A607B682522012199547B6824220021CF
:1014E00099547B689B6B002B04D07B689B6B7A685C
:1014F000100098470F23FB181B781800BD4604B056
:1015000080BDC046FFFEFFFFB0B586B000AFF860FB
:10151000B9603A607B60214B1B78012B01D102231B
:1015200038E01E4B01221A701C4B00225A6017250E
:101530007C19FA239B00180000F07AF8030023704E
:101540007B191B78002B1FD1FB68012B06D13A6851
:101550007B68B968080000F0B9F805E03A68BB6834
:101560001100180008F0A4FC1723FC18FA239B00B4
:10157000180000F05DF803002370094B5A69FB68FE
:10158000D943074B0A405A61044B00221A701723B3
:10159000FB181B781800BD4606B0B0BD6C020020D9
:1015A0000020024080B582B000AFFB1D00221A70FF
:1015B0000B4B5B69002B0CDA094B0A4A9A60084B0B
:1015C000094A9A60064B5B69002B02DAFB1D012277
:1015D0001A70FB1D1B781800BD4602B080BDC046C6
:1015E0000020024023016745AB89EFCD80B582B072
:1015F00000AFFB1D01221A70FA239B00180000F0B7
:1016000017F80A4B5A69094B802109060A435A61A7
:10161000064B5B69002B02DAFB1D00221A70FB1DD2
:101620001B781800BD4602B080BDC04600200240B5
:1016300080B584B000AF7860FFF7CEFD0300FB609B
:10164000C0239B02BB600CE07B68013309D0FFF72D
:10165000C3FD0200FB68D31A7A689A4201D80323BB
:1016600028E0164B1B69BA681340EDD1134B1B6978
:10167000134A1340BB60114B124A1A61BB68002B1E
:1016800011D0114BBA685A60012313E07B68013313
:1016900009D0FFF7A1FD0200FB68D31A7A689A42CD
:1016A00001D8032306E0054B1A698023DB021340AF
:1016B000ECD100231800BD4604B080BD00200240DC
:1016C000FAC30000FBC308006C020020B0B584B070
:1016D00000AFF8603A607B600B4B5A690A4B0121FE
:1016E0000A435A61FB683A681A60BFF36F8FC046BD
:1016F0007B681C0000231D00FB68043322001A6075
:10170000C046BD4604B0B0BD00200240B0B584B0B4
:1017100000AF78603960334B1B78012B01D1022375
:101720005CE0304B01221A702E4B00225A600F25CC
:101730007C19FA239B001800FFF77AFF030023703F
:101740002C003B191B78002B42D17B681B68042BB3
:101750000DD17B685B68180000F048F83C19FA234B
:101760009B001800FFF764FF0300237030E03B6824
:10177000012252421A607B689B68BB601AE07B685A
:101780005B68BA681100180000F044F80F257C1956
:10179000FA239B001800FFF74BFF030023707B190F
:1017A0001B78002B03D03B68BA681A600AE0BB685C
:1017B0000133BB607B689A687B68DB68D318BA68C2
:1017C0009A42DCD3084B5A69074B02218A435A617B
:1017D000044B00221A700F23FB181B781800BD461B
:1017E00004B0B0BD6C0200200020024080B582B081
:1017F00000AF7860064B5A697B681A43044B80211E
:1018000049020A435A61C046BD4602B080BDC04687
:101810000020024080B584B000AF786039600F4B83
:101820005B690F4A1340FB607B68042B05D0FB68A3
:10183000802292011343FB6003E0FB68094A1340D6
:10184000FB603B68DA00FB681A43044B06490A4315
:101850005A61C046BD4604B080BDC046002002406B
:1018600007E0FFFFFFDFFFFF0200010080B586B049
:1018700000AF7860396000237B614DE13B681B68F5
:1018800001217A6991400A001340FB60FB68002B3C
:1018900000D13EE13B685B6803221340012B05D079
:1018A0003B685B6803221340022B30D17B689B6846
:1018B0003B617B695B0003229A401300DA433B697A
:1018C00013403B613B68DA687B695B009A40130018
:1018D0003A6913433B617B683A699A607B685B684D
:1018E0003B6101227B699A401300DA433B69134054
:1018F0003B613B685B681B0901221A407B699A4087
:1019000013003A6913433B617B683A695A603B684C
:101910005B6803221340032B17D07B68DB683B61B5
:101920007B695B0003229A401300DA433B69134052
:101930003B613B689A687B695B009A4013003A6997
:1019400013433B617B683A69DA603B685B6803225A
:101950001340022B23D17B69DA087B68083292009E
:10196000D3583B617B69072213409B000F229A40AA
:101970001300DA433B6913403B613B681A697B699A
:1019800007210B409B009A4013003A6913433B61C7
:101990007B69DA087B68083292003969D1507B682C
:1019A0001B683B617B695B0003229A401300DA43AA
:1019B0003B6913403B613B685B6803221A407B69CB
:1019C0005B009A4013003A6913433B617B683A69B4
:1019D0001A603B685A68C0239B02134000D198E00C
:1019E000534A7B699B0818339B009B583B617B697A
:1019F00003221340DB000F229A401300DA433B69B5
:101A000013403B617A68A023DB059A4219D07B68BA
:101A1000484A934213D07B68474A93420DD07B6873
:101A2000464A934207D07B68454A934201D104233A
:101A300008E0052306E0032304E0022302E001237B
:101A400000E000237A6903210A40D20093403A69FA
:101A500013433B6136497B699B0818339B003A6905
:101A60005A50334B1B683B61FB68DA433B691340B8
:101A70003B613B685A6880235B03134003D03A699B
:101A8000FB6813433B612A4B3A691A60284B5B6839
:101A90003B61FB68DA433B6913403B613B685A6832
:101AA00080239B03134003D03A69FB6813433B61D7
:101AB0001F4B3A695A601E4A8423D3583B61FB6826
:101AC000DA433B6913403B613B685A6880239B02C1
:101AD000134003D03A69FB6813433B6114498422E5
:101AE0003B698B50124A8023D3583B61FB68DA4331
:101AF0003B6913403B613B685A6880235B0213409B
:101B000003D03A69FB6813433B61094980223B6972
:101B10008B507B6901337B613B681A687B69DA40D3
:101B2000131E00D0AAE6C046C046BD4606B080BD22
:101B3000001802400004005000080050000C005043
:101B40000010005080B584B000AF78600A00BB1C64
:101B50001A807B681B69BA1C1288134004D00F23BB
:101B6000FB1801221A7003E00F23FB1800221A70E1
:101B70000F23FB181B781800BD4604B080BD80B54C
:101B800082B000AF786008001100BB1C021C1A80F4
:101B90007B1C0A1C1A707B1C1B78002B04D0BB1CFE
:101BA0001A887B689A6103E0BB1C1A887B689A627A
:101BB000C046BD4602B080BD80B584B000AF78603D
:101BC0000A00BB1C1A807B685B69FB60BB1C1B881E
:101BD000FA6813401A04FB68DB43B91C09880B4000
:101BE0001A437B689A61C046BD4604B080BD0000C0
:101BF00080B584B000AF7860194B1B68194A134058
:101C00001900174B7A680A431A607A6880239B0090
:101C10009A421FD1144B1A6813005B009B185B009B
:101C200012491800FEF782FA03000133FB6008E056
:101C3000FB68002B03D0FB68013BFB6001E0032342
:101C400009E0074B5A698023DB001A408023DB0040
:101C50009A42EDD000231800BD4604B080BDC046B6
:101C600000700040FFF9FFFF0000002040420F001D
:101C700080B500AF034B9A68E023DB0113401800E6
:101C8000BD4680BD0010024080B582B000AFFFF7B6
:101C9000A3FA03007B60354B1A68344B802149005E
:101CA0000A431A6008E0FFF797FA02007B68D31A2C
:101CB000022B01D9032354E02C4B1A688023DB004C
:101CC0001340F0D0294B8022D2015A60FFF784FAEA
:101CD00003007B60254B00229A6009E0FFF77CFA45
:101CE00002007B68D31A224A934201D9032338E0C9
:101CF0001E4B9B6838221340F0D11C4B80225200AF
:101D00001A601A4B802252001A60FFF765FA03002E
:101D10007B6008E0FFF760FA02007B68D31A022BB1
:101D200001D903231DE0114B1A6880239B04134043
:101D3000F0D10E4B80225201DA600C4B00229A61E6
:101D40000A4B012252421A620A4B0B4A1A600B4B91
:101D50001B681800FFF7E4F9031E01D0012300E01F
:101D600000231800BD4602B080BDC04600100240EE
:101D700088130000000000200024F400040000206C
:101D800080B588B000AF78607B68002B02D101235A
:101D900000F050FB7B681B680122134000D17CE0FF
:101DA000C34B9B6838221340BB61C14BDB680322E5
:101DB00013407B61BB69102B02D17B69032B02D0DE
:101DC000BB69082B0BD1BA4B1A6880239B021340C6
:101DD00062D07B685B68002B5ED101232AE37B68BD
:101DE0005A6880235B029A4207D1B14B1A68B04B04
:101DF000802149020A431A6020E07B685A68A023C8
:101E0000DB029A420ED1AA4B1A68A94B8021C90263
:101E10000A431A60A64B1A68A54B802149020A435F
:101E20001A600BE0A24B1A68A14BA2490A401A6043
:101E30009F4B1A689E4BA0490A401A607B685B68FA
:101E4000002B14D0FFF7C8F903003B6108E0FFF74F
:101E5000C3F902003B69D31A642B01D90323E9E2D9
:101E6000934B1A6880239B021340F0D015E0FFF7D4
:101E7000B3F903003B6108E0FFF7AEF902003B69EC
:101E8000D31A642B01D90323D4E2894B1A68802327
:101E90009B021340F0D100E0C0467B681B68022221
:101EA000134000D199E0824B9B6838221340BB61FC
:101EB0007F4BDB68032213407B61BB69102B02D18F
:101EC0007B69022B02D0BB69002B35D1784B1A6895
:101ED0008023DB00134005D07B68DB68002B01D139
:101EE0000123A7E2724B5B68744A134019007B68B8
:101EF0005B691A026E4B0A435A60BB69002B12D110
:101F00006B4B1B686E4A134019007B681A69684B5B
:101F10000A431A60664B1B68DB0A07221340694AB2
:101F2000DA40694B1A60694B1B681800FFF7F8F834
:101F3000031E51D001237DE27B68DB68002B30D08B
:101F40005B4B1B685E4A134019007B681A69584B4B
:101F50000A431A60564B1A68554B802149000A43C0
:101F60001A60FFF739F903003B6108E0FFF734F925
:101F700002003B69D31A022B01D903235AE24C4BCE
:101F80001A688023DB001340F0D0494B5B684B4A52
:101F9000134019007B685B691A02454B0A435A607B
:101FA0001BE0434B1A68424B49490A401A60FFF74D
:101FB00013F903003B6108E0FFF70EF902003B69EB
:101FC000D31A022B01D9032334E2394B1A68802338
:101FD000DB001340F0D100E0C0467B681B6808229C
:101FE000134047D0324B9B6838221340182B0AD13C
:101FF0002F4B1B6E022213403CD07B689B69002B49
:1020000038D1012316E27B689B69002B19D0284B3D
:102010001A6E274B01210A431A66FFF7DDF8030009
:102020003B6108E0FFF7D8F802003B69D31A022BA6
:1020300001D90323FEE11E4B1B6E02221340F1D097
:1020400018E01B4B1A6E1A4B01218A431A66FFF7E0
:10205000C3F803003B6108E0FFF7BEF802003B69EC
:10206000D31A022B01D90323E4E1114B1B6E022288
:102070001340F1D17B681B680422134000D1C7E0F4
:102080001F23FB1800221A70094B9B68382213404B
:10209000202B1FD1064BDB6D0222134000D1B7E08D
:1020A0007B689B68002B00D0B2E00123C2E1C046F0
:1020B00000100240FFFFFEFFFFFFFBFFFF80FFFF5E
:1020C000FFC7FFFF0024F4000000002004000020F0
:1020D000FFFEFFFFB54BDA6B80235B05134001D198
:1020E000012300E00023002B11D0B04BDA6BAF4B83
:1020F000802149050A43DA63AC4BDA6B80235B0528
:102100001340FB60FB681F23FB1801221A70A84BC9
:102110001A6880235B0013401AD1A54B1A68A44BA0
:10212000802149000A431A60FFF756F803003B611B
:1021300008E0FFF751F802003B69D31A022B01D9DE
:10214000032377E19A4B1A6880235B001340F0D099
:102150007B689B68012B06D1944BDA6D934B012170
:102160000A43DA651CE07B689B68052B0CD18F4B1A
:10217000DA6D8E4B04210A43DA658C4BDA6D8B4B9A
:1021800001210A43DA650BE0884BDA6D874B0121A8
:102190008A43DA65854BDA6D844B04218A43DA651C
:1021A0007B689B68002B14D0FFF716F803003B6197
:1021B00009E0FFF711F802003B69D31A7D4A934208
:1021C00001D9032336E1794BDB6D02221340F0D0B5
:1021D00013E0FFF701F803003B6109E0FEF7FCFFA5
:1021E00002003B69D31A734A934201D9032321E1C8
:1021F0006E4BDB6D02221340F0D11F23FB181B78BE
:10220000012B05D1694BDA6B684B6B490A40DA63E5
:102210007B681B682022134039D07B68DB69002B68
:102220001BD0624B1A68614B8021C9030A431A60B4
:10223000FEF7D2FF03003B6108E0FEF7CDFF02008E
:102240003B69D31A022B01D90323F3E0574B1A68D9
:1022500080231B041340F0D019E0544B1A68534BF1
:1022600056490A401A60FEF7B7FF03003B6108E0D9
:10227000FEF7B2FF02003B69D31A022B01D90323F8
:10228000D8E04A4B1A6880231B041340F0D17B68C6
:102290001B6A002B00D1CCE0444B9B6838221340D2
:1022A000102B00D17BE07B681B6A022B56D13F4B81
:1022B0001A683E4B42490A401A60FEF78DFF030040
:1022C0003B6108E0FEF788FF02003B69D31A022B4E
:1022D00001D90323AEE0354B1A6880239B041340D9
:1022E000F0D1324BDB68374A134019007B685A6AD9
:1022F0007B689B6A1A437B68DB6A1B021A437B6814
:102300001B6B1A437B685B6B1A437B689B6B1A439E
:10231000264B0A43DA60254B1A68244B8021490476
:102320000A431A60214BDA68204B802149050A4391
:10233000DA60FEF751FF03003B6108E0FEF74CFF57
:1023400002003B69D31A022B01D9032372E0174B19
:102350001A6880239B041340F0D06AE0134B1A687C
:10236000124B17490A401A60FEF736FF03003B6123
:1023700008E0FEF731FF02003B69D31A022B01D9B6
:10238000032357E0094B1A6880239B041340F0D1C4
:10239000064BDA68054B0C490A40DA6049E07B6875
:1023A0001B6A012B12D1012344E0C04600100240F9
:1023B0000070004088130000FFFFFFEFFFFFBFFF2A
:1023C000FFFFFFFE8C80C111FCFFFEEE1B4BDB68A4
:1023D0007B617B6903221A407B685B6A9A4226D143
:1023E0007B6970221A407B689B6A9A421FD17A6986
:1023F000FE23DB011A407B68DB6A1B029A4216D17E
:102400007A69F8239B031A407B681B6B9A420ED1B2
:102410007A69E0231B051A407B685B6B9A4206D100
:102420007B695B0F5A077B689B6B9A4201D0012343
:1024300000E000231800BD4608B080BD0010024037
:1024400080B584B000AF786039607B68002B01D123
:102450000123E9E0764B1B68072213403A689A4251
:102460001ED9734B1B68072293431900704B3A68BF
:102470000A431A60FEF7B0FE0300FB6009E0FEF7B6
:10248000ABFE0200FB68D31A6A4A934201D90323C8
:10249000CAE0674B1B68072213403A689A42EED1A4
:1024A0007B681B680222134015D07B681B680422DE
:1024B000134006D0604B9A685F4BE021C9010A4384
:1024C0009A605D4B9B685D4A134019007B689A686F
:1024D000594B0A439A607B681B680122134057D00E
:1024E0007B685B68012B07D1534B1A6880239B02E2
:1024F00013402BD1012397E07B685B68022B07D147
:102500004D4B1A6880239B0413401FD101238BE09D
:102510007B685B68002B07D1474B1A688023DB0080
:10252000134013D101237FE07B685B68032B06D146
:10253000414B1B6E0222134008D1012374E03E4B35
:10254000DB6D0222134001D101236DE03A4B9B6801
:102550000722934319007B685A68374B0A439A60F5
:10256000FEF73AFE0300FB6009E0FEF735FE0200CD
:10257000FB68D31A2F4A934201D9032354E02E4B10
:102580009B6838221A407B685B68DB009A42ECD17A
:10259000274B1B68072213403A689A421ED2244BED
:1025A0001B68072293431900214B3A680A431A60BB
:1025B000FEF712FE0300FB6009E0FEF70DFE0200CD
:1025C000FB68D31A1B4A934201D903232CE0184B12
:1025D0001B68072213403A689A42EED17B681B6859
:1025E0000422134009D0144B9B68154A134019006C
:1025F0007B68DA68104B0A439A6000F029F8010002
:102600000D4B9B681B0A0F221A400E4B9200D358A9
:102610001F2213400A00DA400B4B1A600B4B1B6859
:102620001800FEF77DFD03001800BD4604B080BD14
:10263000002002408813000000100240FFF0FFFF5E
:10264000FF8FFFFF8CA00008000000200400002086
:1026500080B586B000AF3C4B9B68382213400FD149
:10266000394B1B68DB0A0722134001229A401300F2
:102670003B6039683548FDF759FD03003B615DE07B
:10268000314B9B6838221340082B02D1304B3B6101
:1026900054E02D4B9B6838221340102B38D12A4B25
:1026A000DB6803221340FB60274BDB681B09072212
:1026B00013400133BB60FB68032B0DD1B96824487C
:1026C000FDF734FD030019001F4BDB681B0A7F2256
:1026D00013404B437B610DE0B9681C48FDF726FDB4
:1026E00003001900184BDB681B0A7F2213404B4381
:1026F0007B61C046144BDB685B0F0722134001333C
:102700007B6079687869FDF711FD03003B6115E096
:102710000D4B9B6838221340202B03D180231B02D2
:102720003B610BE0084B9B6838221340182B03D108
:10273000FA23DB013B6101E000233B613B691800A8
:10274000BD4606B080BDC046001002400024F40023
:1027500000127A0080B500AF024B1B681800BD461E
:1027600080BDC04600000020B0B500AFFFF7F2FF0B
:102770000400FFF77DFA03001A0B054B9200D358B3
:102780001F221340DC4023001800BD46B0BDC046E8
:10279000CCA0000880B500AF044B1A68034B802121
:1027A00009030A431A60C046BD4680BD00100240BE
:1027B00080B582B000AF0D4BDB697B600B4B796855
:1027C000C02292000A401A627A6880235B0013409C
:1027D00001D000F00DF87A6880239B00134001D0EF
:1027E00000F00BF8C046BD4602B080BD00100240AC
:1027F00080B500AFC046BD4680BD80B500AFC046C5
:10280000BD4680BD80B586B000AF78601323FB184D
:1028100000221A701223FB1800221A707B681A68B3
:1028200080239B02134000D1ADE011203B18002211
:102830001A70474BDA6B80235B05134010D1444B71
:10284000DA6B434B802149050A43DA63404BDA6B6C
:1028500080235B051340BB60BB683B1801221A70E4
:102860003C4B1A683B4B802149000A431A60FEF733
:10287000B3FC0300FB600BE0FEF7AEFC0200FB685C
:10288000D31A022B04D91323FB1803221A7005E074
:10289000304B1A6880235B001340EDD01323FB18E4
:1028A0001B78002B5ED12A4BDA6DC0239B001340AE
:1028B0007B617B69002B19D07B681B6C7A699A421B
:1028C00014D0234BDB6D244A13407B61204BDA6D1F
:1028D0001F4B802149020A43DA651D4BDA6D1C4B00
:1028E0001E490A40DA651A4B7A69DA657B6901226A
:1028F000134016D0FEF770FC0300FB600CE0FEF7FF
:102900006BFC0200FB68D31A154A934204D91323C7
:10291000FB1803221A7004E00D4BDB6D02221340FA
:10292000EDD01323FB181B78002B0AD1084BDB6D6D
:10293000094A134019007B681A6C054B0A43DA6593
:1029400016E01223FB181322BA1812781A700FE03F
:102950000010024000700040FFFCFFFFFFFFFEFF81
:10296000881300001223FB181322BA1812781A7069
:102970001123FB181B78012B05D1B64BDA6BB54B35
:10298000B5490A40DA637B681B680122134009D00D
:10299000B04B5B6D0322934319007B685A68AD4BC3
:1029A0000A435A657B681B680222134009D0A94B71
:1029B0005B6D0C22934319007B689A68A54B0A4310
:1029C0005A657B681B680422134009D0A14B5B6DDC
:1029D0003022934319007B68DA689E4B0A435A659C
:1029E0007B681B681022134009D09A4B5B6D9B4A91
:1029F000134019007B681A69964B0A435A657B6835
:102A00001A6880235B01134009D0924B5B6D944A96
:102A1000134019007B685A698E4B0A435A657B68DC
:102A20001A6880239B00134009D08A4B5B6D8D4A46
:102A3000134019007B689A6A864B0A435A657B6883
:102A40001A688023DB00134009D0824B5B6D864AF5
:102A5000134019007B68DA6A7E4B0A435A657B682B
:102A60001B682022134009D07A4B5B6D7F4A1340CC
:102A700019007B689A69774B0A435A657B681B6823
:102A80004022134009D0734B5B6D794A1340190003
:102A90007B68DA696F4B0A435A657B681A68802342
:102AA000DB01134015D06B4B5B6D9B0099087B6875
:102AB0001A6B684B0A435A657B681A6B8023DB05E7
:102AC0009A4206D1634BDA68624B802149020A437D
:102AD000DA607B681A6880231B03134009D05D4BC2
:102AE0005B6D4022934319007B685A6B594B0A4334
:102AF0005A657B681A6880239B03134016D0554B98
:102B00005B6D5C4A134019007B689A6B514B0A431A
:102B10005A657B689A6B8023DB039A4206D14D4B42
:102B2000DA684C4B802149040A43DA607B681A68F2
:102B30008023DB03134016D0464B5B6D4E4A134097
:102B400019007B68DA6B434B0A435A657B68DA6B82
:102B500080235B049A4206D13E4BDA683D4B8021CC
:102B600049040A43DA607B681A6880231B0113401A
:102B700014D0384B9B6D0322934319007B681A6A6B
:102B8000344B0A439A657B681B6A012B06D1314B93
:102B9000DA68304B802149020A43DA607B681A68A0
:102BA00080239B01134014D02A4B9B6D0C2293432E
:102BB00019007B685A6A274B0A439A657B685B6AEF
:102BC000042B06D1234BDA68224B802149020A43A9
:102BD000DA607B681A6880235B04134016D01D4BB3
:102BE0009B6D224A134019007B685A6C194B0A43AB
:102BF0009A657B685A6C80239B019A4206D1154BDB
:102C0000DA68144B802149040A43DA607B681A6849
:102C100080239B04134016D00E4B9B6D104A13402B
:102C200019007B689A6C0B4B0A439A657B689A6C17
:102C300080235B009A4206D1064BDA68054B80215F
:102C400049040A43DA601223FB181B781800BD46BA
:102C500006B080BD00100240FFFFFFEFFFF3FFFF53
:102C6000FFFCFFFFFFFFF3FFFFFFCFFFFFCFFFFFE3
:102C7000FF3FFFFFFFFFBFFFFFFFFFFE80B584B0F8
:102C800000AF78607B68002B01D10123A8E07B684E
:102C90005B6A002B09D17B685A6882235B009A42E9
:102CA00009D07B680022DA6105E07B6800221A61A6
:102CB0007B6800225A617B6800229A627B685D22F1
:102CC0009B5CDBB2002B07D17B685C22002199540E
:102CD0007B681800FDF734FF7B685D220221995460
:102CE0007B681B681A687B681B6840218A431A60EE
:102CF0007B68DA68E023DB009A4202D90023FB609C
:102D000002E080235B01FB607B68DA68F0231B0133
:102D10009A4208D07B68DA68E023DB009A4202D04E
:102D20007B6800229A627B685A6882235B001A40A3
:102D30007B68996884231B020B401A437B681B69DC
:102D400002210B401A437B685B6901210B401A4347
:102D50007B68996980239B000B401A437B68DB6981
:102D600038210B401A437B681B6A80210B401A43B1
:102D700011007B689A6A80239B011A407B681B685C
:102D80000A431A607B689B691B0C04221A407B680B
:102D90005B6A10210B401A437B685B6B08210B4078
:102DA0001A437B68D968F0231B010B401A431100BA
:102DB000FA6880235B011A407B681B680A435A60EB
:102DC0007B681B68DA697B681B6807490A40DA611F
:102DD0007B6800221A667B685D22012199540023DA
:102DE0001800BD4604B080BDFFF7FFFF80B588B076
:102DF00000AF78607B681B685B68FB617B681B6861
:102E00009B68BB61BB69402213400DD1BB690122A5
:102E1000134009D0FB694022134005D07B68DB6C6E
:102E20007A6810009847C5E0BB690222134009D0B8
:102E3000FB698022134005D07B681B6D7A68100007
:102E40009847B7E0BB692022134009D1BB694022F3
:102E5000134005D1BA6980235B00134000D1A9E07B
:102E6000FB692022134000D1A4E0BB69402213403B
:102E700023D07B685D229B5CDBB2032B11D07B6887
:102E80001B6E04221A437B681A6600237B617B68F1
:102E90001B68DB687B617B681B689B687B617B6967
:102EA0000BE000233B617B681B68DB683B617B6850
:102EB0001B689B683B613B697CE0BB692022134037
:102EC00014D07B681B6E01221A437B681A660023AC
:102ED000FB607B681B689B68FB607B681B681A68EB
:102EE0007B681B6840218A431A60FB68BA698023AB
:102EF0005B0013400CD07B681B6E08221A437B6872
:102F00001A660023BB607B681B689B68BB60BB685C
:102F10007B681B6E002B4CD07B681B685A687B68F3
:102F20001B68E0218A435A607B685D220121995425
:102F3000FB690222134003D1FB690122134032D006
:102F40007B681B685A687B681B6803218A435A6048
:102F50007B689B6D002B10D07B689B6D174A9A6332
:102F60007B689B6D1800FEF767FA031E05D07B682F
:102F70001B6E40221A437B681A667B685B6D002BD0
:102F800016D07B685B6D0D4A9A637B685B6D180099
:102F9000FEF752FA031E0BD07B681B6E40221A43C9
:102FA0007B681A6604E07B68180000F009F800E00E
:102FB000C046C046BD4608B080BDC046D12F0008FF
:102FC00080B582B000AF7860C046BD4602B080BD1B
:102FD00080B584B000AF78607B689B6AFB60FB685B
:102FE000462200219952FB680022DA87FB6818000C
:102FF000FFF7E6FFC046BD4604B080BD80B582B095
:1030000000AF78607B68002B01D101234AE07B6828
:103010003D229B5CDBB2002B07D17B683C22002168
:1030200099547B681800FDF731FF7B683D2202212F
:1030300099547B681A687B6804331900100000F00B
:10304000C3FA7B684822012199547B683E22012102
:1030500099547B683F22012199547B6840220121C9
:1030600099547B684122012199547B6842220121B5
:1030700099547B684322012199547B6844220121A1
:1030800099547B684522012199547B68462201218D
:1030900099547B684722012199547B683D22012184
:1030A000995400231800BD4602B080BD80B584B09D
:1030B00000AF78607B683D229B5CDBB2012B01D0C6
:1030C000012347E07B683D22022199547B681B68FD
:1030D000DA687B681B6801210A43DA607B681B6839
:1030E0001E4A934214D07B681A688023DB059A42FB
:1030F0000ED07B681B681A4A934209D07B681B6814
:10310000184A934204D07B681B68174A934216D131
:103110007B681B689B68154A1340FB60FB68062BA5
:1031200016D0FA6880235B029A4211D07B681B6834
:103130001A687B681B6801210A431A6008E07B68F3
:103140001B681A687B681B6801210A431A6000E04B
:10315000C04600231800BD4604B080BD002C0140CD
:10316000000400400008004000400140070001004A
:1031700080B582B000AF78607B681B68DA687B68D6
:103180001B6801218A43DA607B681B681B6A0D4A51
:1031900013400DD17B681B681B6A0B4A134007D193
:1031A0007B681B681A687B681B6801218A431A6068
:1031B0007B683D220121995400231800BD4602B0CE
:1031C00080BDC046111100004404000080B584B0E9
:1031D00000AF78607B681B68DB68FB607B681B68FE
:1031E0001B69BB60BB680222134021D0FB6802222E
:1031F00013401DD07B681B68032252421A617B6812
:1032000001221A777B681B689B690322134004D054
:103210007B68180000F0C0F907E07B68180000F038
:10322000B3F97B68180000F0BFF97B6800221A77B9
:10323000BB680422134022D0FB68042213401ED036
:103240007B681B68052252421A617B6802221A774A
:103250007B681B689A69C0239B00134004D07B687D
:10326000180000F099F907E07B68180000F08CF96D
:103270007B68180000F098F97B6800221A77BB6819
:103280000822134021D0FB68082213401DD07B6820
:103290001B68092252421A617B6804221A777B68F4
:1032A0001B68DB690322134004D07B68180000F020
:1032B00073F907E07B68180000F066F97B68180076
:1032C00000F072F97B6800221A77BB681022134065
:1032D00022D0FB68102213401ED07B681B6811228D
:1032E00052421A617B6808221A777B681B68DA6988
:1032F000C0239B00134004D07B68180000F04CF9F9
:1033000007E07B68180000F03FF97B68180000F0C8
:103310004BF97B6800221A77BB68012213400CD05E
:10332000FB680122134008D07B681B6802225242CE
:103330001A617B68180003F0B7FFBB688022134056
:1033400004D1BA6880239B0113400BD0FB68802214
:10335000134007D07B681B681E4A1A617B681800FF
:1033600000F0E4FABA6880235B0013400BD0FB68DE
:103370008022134007D07B681B68174A1A617B685C
:10338000180000F0DBFABB68402213400CD0FB6849
:103390004022134008D07B681B68412252421A61C8
:1033A0007B68180000F008F9BB68202213400CD09D
:1033B000FB682022134008D07B681B682122524200
:1033C0001A617B68180000F0A9FAC046BD4604B037
:1033D00080BDC0467FDFFFFFFFFEFFFF80B584B0EA
:1033E00000AF786039600F23FB1800221A707B68E9
:1033F0003C229B5C012B01D10223BCE07B683C2278
:10340000012199547B683D22022199547B681B68F5
:103410009B68BB60BB685A4A1340BB60BB68594A93
:103420001340BB607B681B68BA689A603B681B6886
:1034300080229201934240D080229201934200D98F
:1034400088E080225201934200D188E0802252011C
:10345000934200D97EE0702B18D000D97AE0602B1F
:103460004FD000D976E0502B3BD000D972E0402BF2
:1034700057D000D96EE0302B63D06BD8202B60D0B2
:1034800068D8002B5DD0102B5BD063E07B68186898
:103490003B6899683B685A683B68DB6800F0A8F9AC
:1034A0007B681B689B68BB60BB6877221343BB606B
:1034B0007B681B68BA689A6052E07B6818683B6852
:1034C00099683B685A683B68DB6800F091F97B6853
:1034D0001B689A687B681B688021C9010A439A604F
:1034E0003EE07B6818683B6859683B68DB681A00F7
:1034F00000F002F97B681B685021180000F05CF9AD
:103500002EE07B6818683B6859683B68DB681A00E6
:1035100000F020F97B681B686021180000F04CF96E
:103520001EE07B6818683B6859683B68DB681A00D6
:1035300000F0E2F87B681B684021180000F03CF9BD
:103540000EE07B681A683B681B681900100000F0E9
:1035500033F905E00F23FB1801221A7000E0C04682
:103560007B683D22012199547B683C2200219954BB
:103570000F23FB181B781800BD4604B080BDC04661
:1035800088FFCEFFFF00FFFF80B582B000AF7860FC
:10359000C046BD4602B080BD80B582B000AF786045
:1035A000C046BD4602B080BD80B582B000AF786035
:1035B000C046BD4602B080BD80B582B000AF786025
:1035C000C046BD4602B080BD80B584B000AF786013
:1035D00039607B681B68FB607B683F4A93420CD074
:1035E0007A688023DB059A4207D07B683B4A934286
:1035F00003D07B683A4A934208D1FB687022934318
:10360000FB603B685B68FA681343FB607B68324A87
:1036100093421CD07A688023DB059A4217D07B68DE
:103620002E4A934213D07B682D4A93420FD07B6879
:103630002C4A93420BD07B682B4A934207D07B687D
:103640002A4A934203D07B68294A934208D1FB68F7
:10365000284A1340FB603B68DB68FA681343FB6051
:10366000FB68802293431A003B685B691343FB604D
:103670007B68FA681A603B689A687B68DA623B6824
:103680001A687B689A627B68134A93420BD07B6806
:10369000154A934207D07B68144A934203D07B6853
:1036A000134A934203D13B681A697B681A637B68AB
:1036B00001225A617B681B6901221340012B06D14C
:1036C0007B681B69012293431A007B681A61C0461C
:1036D000BD4604B080BDC046002C0140000400403F
:1036E000000800400020004000400140004401402C
:1036F00000480140FFFCFFFF80B586B000AFF860D6
:10370000B9607A60FB681B6A7B61FB681B6A0122F7
:1037100093431A00FB681A62FB689B693B613B6933
:10372000F02293433B617B681B013A6913433B6181
:103730007B690A2293437B617A69BB6813437B618F
:10374000FB683A699A61FB687A691A62C046BD46AD
:1037500006B080BD80B586B000AFF860B9607A6011
:10376000FB681B6A7B61FB681B6A102293431A008B
:10377000FB681A62FB689B693B613B690D4A134019
:103780003B617B681B033A6913433B617B69A02261
:1037900093437B61BB681B017A6913437B61FB68C0
:1037A0003A699A61FB687A691A62C046BD4606B0FA
:1037B00080BDC046FF0FFFFF80B584B000AF7860CA
:1037C00039607B689B68FB60FB68084A1340FB60BC
:1037D0003A68FB68134307221343FB607B68FA686F
:1037E0009A60C046BD4604B080BDC0468FFFCFFF83
:1037F00080B586B000AFF860B9607A603B60FB6866
:103800009B687B617B69094A13407B613B681A02B4
:103810007B681A43BB6813437A6913437B61FB6877
:103820007A699A60C046BD4606B080BDFF00FFFFC2
:1038300080B584B000AF786039607B683C229B5CC7
:10384000012B01D102235AE07B683C2201219954CB
:103850007B683D22022199547B681B685B68FB6092
:103860007B681B689B68BB607B681B68264A934229
:1038700008D1FB68254A1340FB603B685B68FA6827
:103880001343FB60FB6870229343FB603B681B683B
:10389000FA681343FB607B681B68FA685A607B68B0
:1038A0001B68194A934214D07B681A688023DB0591
:1038B0009A420ED07B681B68154A934209D07B68F8
:1038C0001B68144A934204D07B681B68124A9342D7
:1038D0000CD1BB6880229343BB603B689B68BA688D
:1038E0001343BB607B681B68BA689A607B683D22A3
:1038F000012199547B683C2200219954002318002F
:10390000BD4604B080BDC046002C0140FFFF0FFF44
:1039100000040040000800400040014080B582B033
:1039200000AF7860C046BD4602B080BD80B582B0B1
:1039300000AF7860C046BD4602B080BD80B582B0A1
:1039400000AF7860C046BD4602B080BD80B582B091
:1039500000AF78607B68002B01D1012346E07B68D3
:1039600088229B58002B07D17B6884220021995420
:103970007B681800FDF7FEFA7B68882224219950A5
:103980007B681B681A687B681B6801218A431A6080
:103990007B689B6A002B03D07B68180000F026FC34
:1039A0007B68180000F0CCF80300012B01D1012343
:1039B0001CE07B681B685A687B681B680D490A40DD
:1039C0005A607B681B689A687B681B682A218A4357
:1039D0009A607B681B681A687B681B6801210A4330
:1039E0001A607B68180000F0B5FC03001800BD46A3
:1039F00002B080BDFFB7FFFF80B58AB002AFF860AC
:103A0000B9603B60BB1D1A80FB6888229B58202B45
:103A100000D090E0BB68002B03D0BB1D1B88002B9F
:103A200001D1012388E0FB689A6880235B019A42F8
:103A300009D1FB681B69002B05D1BB68012213402B
:103A400001D0012378E0FB68902200219950FB68A7
:103A5000882221219950FDF7BFFB03007B61FB68A1
:103A6000BA1D542112885A52FB68BA1D5621128879
:103A70005A52FB689A6880235B019A4208D1FB681E
:103A80001B69002B04D10023FB61BB68BB6103E011
:103A9000BB68FB610023BB6130E07A69F8683B6872
:103AA000009313000022802100F0FEFC031E05D0CD
:103AB000FB6888222021995003233DE0FB69002BFD
:103AC0000BD1BB691B881A00FB681B68D205D20D9D
:103AD0009A62BB690233BB6107E0FB691A78FB6835
:103AE0001B689A62FB690133FB61FB6856229B5A93
:103AF0009BB2013B99B2FB6856229952FB68562251
:103B00009B5A9BB2002BC8D17A69F8683B68009336
:103B100013000022402100F0C7FC031E05D0FB6803
:103B2000882220219950032306E0FB688822202167
:103B30009950002300E002231800BD4608B080BD64
:103B4000B0B590B000AF78621A2320229B18DB1921
:103B500000221A707B6A9A687B6A1B691A437B6A27
:103B60005B691A437B6ADB691343FB637B6A1B68EF
:103B70001B68C14A134019007B6A1A68FB6B0B4330
:103B800013607B6A1B685B68BC4A134018007B6A41
:103B9000D9687B6A1A6803000B4353607B6A9B6990
:103BA000FB637B6A1B68B64A934209D07B6A1B6839
:103BB000B44A934204D07B6A1B6AFA6B1343FB63DB
:103BC0007B6A1B689B68B04A134019007B6A1A68BD
:103BD000FB6B0B4393607B6A1B68DB6A0F2293438A
:103BE00018007B6A596A7B6A1A6803000B43D36228
:103BF0007B6A1B68A54A934231D1A54B5B6D0322BA
:103C00001340032B1DD023D8022B0CD020D8002B1F
:103C100002D0012B0ED01BE01B2320229B18DB19A6
:103C200000221A7054E11B2320229B18DB19022268
:103C30001A704DE11B2320229B18DB1904221A70F5
:103C400046E11B2320229B18DB1908221A703FE152
:103C50001B2320229B18DB1910221A7038E17B6A83
:103C60001B688C4A934231D1894B5B6D0C22134007
:103C70000C2B1DD023D8082B0CD020D8002B02D021
:103C8000042B0ED01BE01B2320229B18DB190022E3
:103C90001A701DE11B2320229B18DB1902221A70C7
:103CA00016E11B2320229B18DB1904221A700FE156
:103CB0001B2320229B18DB1908221A7008E11B2302
:103CC00020229B18DB1910221A7001E17B6A1B6805
:103CD000714A934231D16E4B5B6D30221340302BD1
:103CE0001DD023D8202B0CD020D8002B02D0102B95
:103CF0000ED01BE01B2320229B18DB1900221A7018
:103D0000E6E01B2320229B18DB1902221A70DFE059
:103D10001B2320229B18DB1904221A70D8E01B23D6
:103D200020229B18DB1908221A70D1E01B232022C5
:103D30009B18DB1910221A70CAE07B6A1B68574A6D
:103D4000934206D11B2320229B18DB1900221A70F4
:103D5000BEE07B6A1B68524A934206D11B23202295
:103D60009B18DB1900221A70B2E07B6A1B684D4A6F
:103D7000934206D11B2320229B18DB1900221A70C4
:103D8000A6E07B6A1B683E4A93423ED1404B5A6D87
:103D9000C0231B011340C0221201934227D0C0222E
:103DA000120193422AD880221201934211D080221C
:103DB0001201934222D8002B04D08022D2009342D9
:103DC0000ED01BE01B2320229B18DB1900221A7047
:103DD0007EE01B2320229B18DB1902221A7077E059
:103DE0001B2320229B18DB1904221A7070E01B236E
:103DF00020229B18DB1908221A7069E01B2320225D
:103E00009B18DB1910221A7062E07B6A1B681D4A3E
:103E1000934257D11E4B5A6DC0239B001340C022C2
:103E20009200934240D0C0229200934243D8802215
:103E30009200934211D08022920093423BD8002BF3
:103E400004D08022520093420ED034E01B23202263
:103E50009B18DB1900221A703AE01B2320229B18C2
:103E6000DB1902221A7033E01B2320229B18DB1976
:103E700004221A702CE0C046F369FFCFFFCFFFFF8A
:103E80000080004000840040FFF4FF110038014032
:103E9000001002400044004000480040004C004038
:103EA00000500040003C01401B2320229B18DB19DE
:103EB00008221A700CE01B2320229B18DB19102209
:103EC0001A7005E01B2320229B18DB1910221A70A0
:103ED0007B6A1B68C14A934205D07B6A1B68C04A53
:103EE000934200D093E01B2320229B18DB191B7800
:103EF000082B15D018DC042B0DD015DC002B02D0BC
:103F0000022B05D010E0FEF72FFC03007B6314E0CA
:103F1000B44B7B6311E0FEF79BFB03007B630CE07B
:103F200080231B027B6308E000237B631A2320228B
:103F30009B18DB1901221A70C0467B6B002B00D145
:103F400035E17B6A5A6AA84B5200D35A1900786B44
:103F5000FCF7ECF80300BB627B6A5A6813005B0055
:103F60009B18BA6A9A4205D37B6A5B681B03BA6ADC
:103F70009A4206D91A2320229B18DB1901221A70B3
:103F800044E07B6BBB610023FB617B6A5A6A964B02
:103F90005200D35A3B6100237B613A697B69B8695F
:103FA000F969FCF739FA02000B00110E1D020D43EE
:103FB00014027B6A5B685B08BB600023FB60B86827
:103FC000F968001969417B6A5B683B6000237B608C
:103FD0003A687B68FCF720FA02000B0013003B6391
:103FE0003A6BC0239B009A4209D33A6B80235B0350
:103FF0009A4204D27B6A1B683A6BDA6006E01A23A5
:1040000020229B18DB1901221A70D0E0CFE07B6AD6
:10401000DA6980231B029A4200D070E01B23202221
:104020009B18DB191B78082B15D018DC042B0DD03E
:1040300015DC002B02D0022B05D010E0FEF794FB1C
:1040400003007B6314E0674B7B6311E0FEF700FB2A
:1040500003007B630CE080231B027B6308E00023EA
:104060007B631A2320229B18DB1901221A70C04699
:104070007B6B002B00D19AE07B6A5A6A5A4B520044
:10408000D35A1900786BFCF751F803005A007B6A89
:104090005B685B08D2187B6A5B6819001000FCF74C
:1040A00045F803003B633B6B0F2B21D93A6B802310
:1040B0005B029A421CD23B6B9AB20E202024031959
:1040C000DB190F218A431A803B6B5B089BB20722E6
:1040D000134099B20319DB190219D21912880A4345
:1040E0001A807B6A1B680219D2191288DA605EE0B6
:1040F0001A2320229B18DB1901221A7057E01B2378
:1041000020229B18DB191B78082B15D018DC042BF8
:104110000DD015DC002B02D0022B05D010E0FEF7ED
:1041200023FB03007B6314E02E4B7B6311E0FEF75F
:104130008FFA03007B630CE080231B027B6308E0A3
:1041400000237B631A2320229B18DB1901221A709B
:10415000C0467B6B002B2AD07B6A5A6A224B5200E6
:10416000D35A1900786BFBF7E1FF03001A007B6A52
:104170005B685B08D2187B6A5B6819001000FBF76C
:10418000D5FF03003B633B6B0F2B0AD93A6B8023AF
:104190005B029A4205D23B6B9AB27B6A1B68DA607B
:1041A00005E01A2320229B18DB1901221A707B6A72
:1041B0006A22012199527B6A6822012199527B6A05
:1041C00000225A677B6A00229A671A2320229B18D2
:1041D000DB191B781800BD4610B0B0BD0080004050
:1041E000008400400024F400ECA0000880B582B0F8
:1041F00000AF78607B689B6A082213400BD07B6815
:104200001B685B684A4A134019007B689A6B7B689D
:104210001B680A435A607B689B6A012213400BD0DB
:104220007B681B685B68434A134019007B68DA6A45
:104230007B681B680A435A607B689B6A02221340B2
:104240000BD07B681B685B683B4A134019007B6896
:104250001A6B7B681B680A435A607B689B6A04225E
:1042600013400BD07B681B685B68344A134019000D
:104270007B685A6B7B681B680A435A607B689B6A41
:10428000102213400BD07B681B689B682C4A13409C
:1042900019007B68DA6B7B681B680A439A607B684D
:1042A0009B6A202213400BD07B681B689B68254AC1
:1042B000134019007B681A6C7B681B680A439A607C
:1042C0007B689B6A402213401DD07B681B685B683B
:1042D0001D4A134019007B685A6C7B681B680A43AF
:1042E0005A607B685A6C80235B039A420BD17B68CF
:1042F0001B685B68154A134019007B689A6C7B68E1
:104300001B680A435A607B689B6A802213400BD06B
:104310007B681B685B680E4A134019007B68DA6C87
:104320007B681B680A435A60C046BD4602B080BD28
:10433000FF7FFFFFFFFFFDFFFFFFFEFFFFFFFBFF14
:10434000FFEFFFFFFFDFFFFFFFFFEFFFFFFF9FFF1D
:10435000FFFFF7FF80B592B002AF78607B689022D4
:1043600000219950FCF738FF0300FB637B681B6852
:104370001B6808221340082B2DD1FB6B8022910370
:104380007868474A0092002200F08EF8031E22D07F
:10439000EFF310837B627B6ABB630123BB62BB6A62
:1043A00083F31088C0467B681B681A687B681B68AB
:1043B00080218A431A60BB6BFB62FB6A83F310881F
:1043C000C0467B688822202199507B688422002186
:1043D0009954032360E07B681B681B680422134028
:1043E000042B46D1FB6B8022D10378682C4A0092C3
:1043F000002200F059F8031E3BD0EFF31083FB605E
:10440000FB687B6301233B613B6983F31088C046F3
:104410007B681B681A687B681B6822490A401A601F
:104420007B6B7B617B6983F31088C046EFF310835D
:10443000BB61BB693B630123FB61FB6983F31088AC
:10444000C0467B681B689A687B681B6801218A43A9
:104450009A603B6B3B623B6A83F31088C0467B6883
:104460008C22202199507B688422002199540323B7
:1044700012E07B688822202199507B688C222021C1
:1044800099507B680022DA667B6800221A677B6895
:1044900084220021995400231800BD4610B080BD2D
:1044A000FFFFFF01DFFEFFFF80B584B000AFF860C3
:1044B000B9603B60FB1D1A7051E0BB6901334ED0FF
:1044C000FCF78AFE02003B68D31ABA699A4202D30B
:1044D000BB69002B01D1032351E0FB681B681B68FB
:1044E000042213403BD0BB68802B38D0BB68402BE4
:1044F00035D0FB681B68DB6908221340082B11D1FB
:10450000FB681B6808221A62FB68180000F03CF880
:10451000FB68902208219950FB688422002199545D
:1045200001232CE0FB681B68DA6980231B011A4019
:1045300080231B019A4212D1FB681B688022120162
:104540001A62FB68180000F01FF8FB689022202117
:104550009950FB6884220021995403230FE0FB68E3
:104560001B68DB69BA681340BA68D31A5A425341D0
:10457000DBB21A00FB1D1B789A429ED00023180064
:10458000BD4604B080BD000080B58EB000AF78603D
:10459000EFF310837B617B697B630123BB61BB69A4
:1045A00083F31088C0467B681B681A687B681B68A9
:1045B00026490A401A607B6BFB61FB6983F3108814
:1045C000C046EFF310833B623B6A3B6301237B628F
:1045D0007B6A83F31088C0467B681B689A687B6897
:1045E0001B681B490A409A603B6BBB62BB6A83F342
:1045F0001088C0467B68DB6E012B18D1EFF3108367
:10460000BB60BB68FB620123FB60FB6883F310881F
:10461000C0467B681B681A687B681B6810218A4348
:104620001A60FB6A3B613B6983F31088C0467B6874
:104630008C22202199507B680022DA667B68002258
:104640005A67C046BD460EB080BDC046DFFEFFFFC4
:10465000FEFFFFEF80B584B000AF78607B688422F6
:104660009B5C012B01D1022327E07B68842201217E
:1046700099547B688822242199507B681B681B68A9
:10468000FB607B681B681A687B681B6801218A4392
:104690001A60FB680B4A1340FB607B6800225A6675
:1046A0007B681B68FA681A607B6888222021995011
:1046B0007B6884220021995400231800BD4604B071
:1046C00080BDC046FFFFFFDF80B584B000AF7860DB
:1046D00039607B6884229B5C012B01D102232EE090
:1046E0007B688422012199547B6888222421995077
:1046F0007B681B681B68FB607B681B681A687B68AB
:104700001B6801218A431A607B681B689B68DB0079
:10471000D9087B681B683A680A439A607B6818006E
:1047200000F054F87B681B68FA681A607B6888227E
:10473000202199507B68842200219954002318007D
:10474000BD4604B080BD000080B584B000AF786085
:1047500039607B6884229B5C012B01D102232FE00E
:104760007B688422012199547B68882224219950F6
:104770007B681B681B68FB607B681B681A687B682A
:104780001B6801218A431A607B681B689B680E4A7C
:10479000134019007B681B683A680A439A607B687B
:1047A000180000F013F87B681B68FA681A607B68D1
:1047B0008822202199507B6884220021995400236B
:1047C0001800BD4604B080BDFFFFFFF1F0B585B015
:1047D00000AF78607B685B6E002B08D17B686A2233
:1047E000012199527B6868220121995243E00F26EA
:1047F000BB1908221A700E203B1808221A707B6819
:104800001B689B685B0EDAB20D243B1907210A4036
:104810001A707B681B689B685B0FDAB20C257B19EA
:1048200007210A401A703B181B787A19127814492C
:104830008A5C5A4310007B191B78124AD35C19001A
:10484000FBF7FEFC030099B27B686A229952BB1900
:104850001B783A1912780A498A5C5A4310003B19AE
:104860001B78084AD35C1900FBF7EAFC030099B2F5
:104870007B6868229952C046BD4605B0F0BDC0466F
:1048800004A100080CA1000880B500AF084A094B3C
:104890001100180002F0D8FC031E02D001235B4275
:1048A00003E0054B01221A7000231800BD4680BDAD
:1048B000880200200C0000208C02002080B500AF90
:1048C00000231800BD4680BDB0B584B000AF020023
:1048D000FB1D1A700F257C1903F054FA0300237096
:1048E0007B191A78124B1100180003F0A1FE7B19F6
:1048F0001B78002B08D0002003F026F9FF2003F0DE
:1049000043F9012003F020F90F23FB181B78002B3B
:1049100005D0084B180003F0F1FE012304E0064B1C
:10492000180003F0EBFE00231800BD4604B0B0BD34
:104930001C9F0008289F0008309F000880B582B0A7
:1049400000AF0200FB1D1A70FB1D1B78022B09D063
:104950000ADC002B02D0012B02D005E0002304E08A
:10496000002302E0002300E001231800BD4602B04E
:1049700080BDB0B586B000AFB9607A603B600F23F0
:10498000FB18021C1A703B68002B01D1042318E0AD
:104990000F23FB181B78002B12D13B68DAB21725C6
:1049A0007C19B9687B68180003F08EFC0300237043
:1049B0007B191B78002B01D1002302E0012300E0CA
:1049C00001231800BD4606B0B0BDB0B586B000AF3B
:1049D000B9607A603B600F23FB18021C1A703B68B9
:1049E000002B01D1042318E00F23FB181B78002BA8
:1049F00012D13B68DAB217257C19B9687B681800B8
:104A000003F0B4FC030023707B191B78002B01D149
:104A1000002302E0012300E001231800BD4606B098
:104A2000B0BD80B584B000AF3A60FB1D021C1A70A7
:104A3000BB1D0A1C1A70BB1D1B78032B23D034DC52
:104A4000022B17D031DC002B02D0012B23D02CE01D
:104A500003F050F81420FCF7C9FBFF2003F094F892
:104A60000300FF2BF6D10F23FB1800221A7003F06E
:104A70004DF81FE03B68802292001A800F23FB183C
:104A800000221A7016E03B6808221A800F23FB18D8
:104A900000221A700EE003F075FB02003B681A60FA
:104AA0000F23FB1800221A7004E00F23FB180422C6
:104AB0001A70C0460F23FB181B781800BD4604B0BF
:104AC00080BD0000B0B584B000AF0200FB1D1A70BD
:104AD000FB1D1B780B4A9B00D31804331B685B68D3
:104AE000FA1D127807498A18127B0F257C191000CD
:104AF0009847030023707B191B781800BD4604B04B
:104B0000B0BDC046BC02002090B585B000AF020029
:104B1000FB1D1A700F203B1800221A70FB1D1B781A
:104B2000104AD35C002B16D1FB1D1B780D4A0121C6
:104B3000D154FB1D1B780B4A9B00D31804331B6810
:104B40001B68FA1D127807498A18127B3C1810005E
:104B50009847030023700F23FB181B781800BD46ED
:104B600005B090BDBC020020F0B587B000AFB960C1
:104B70007A603B600F217B18021C1A707B181B782F
:104B80000C4A9B00D31804331B689D687B181B7864
:104B9000084AD318187B1726BC193B687A68B9688D
:104BA000A84703002370BB191B781800BD4607B047
:104BB000F0BDC046BC020020F0B587B000AFB960C0
:104BC0007A603B600F217B18021C1A707B181B78DF
:104BD0000C4A9B00D31804331B68DD687B181B78D4
:104BE000084AD318187B1726BC193B687A68B9683D
:104BF000A84703002370BB191B781800BD4607B0F7
:104C0000F0BDC046BC020020F0B585B000AF3A60F0
:104C1000FB1D021C1A70BB1D0A1C1A70FB1D1B78A1
:104C20000C4A9B00D31804331B681B69FA1D1278C9
:104C300008498A18107B0F26BC193D68BA1D1178E7
:104C40002A00984703002370BB191B781800BD4643
:104C500005B0F0BDBC02002080B584B000AF786024
:104C60007B6801331A780E217B181A807B181B8809
:104C70001B021AB27B681B781BB213431AB27B1853
:104C80001A807B181B881800BD4604B080BD80B513
:104C900084B000AF78607B6803331B78FB60FB68EF
:104CA0001B027A68023212781343FB60FB681B0216
:104CB0007A68013212781343FB60FB681B027A6842
:104CC00012781343FB60FB681800BD4604B080BD3A
:104CD00080B582B000AF78600A00BB1C1A807B6888
:104CE0005A1C7A60BA1C1288D2B21A70BB1CBA1C49
:104CF0001288120A1A807B685A1C7A60BA1C1288C1
:104D0000D2B21A70C046BD4602B080BD80B582B036
:104D100000AF786039607B685A1C7A603A68D2B21A
:104D20001A703B681B0A3B607B685A1C7A603A68C1
:104D3000D2B21A703B681B0A3B607B685A1C7A60CF
:104D40003A68D2B21A703B681B0A3B607B685A1CF7
:104D50007A603A68D2B21A70C046BD4602B080BDD1
:104D600080B586B000AFF860B9607A60FB687B619F
:104D7000BB683B617B68002B0DD03A69531C3B61DB
:104D80007B69591C796112781A707B68013B7B60E2
:104D90007B68002BF1D1C046BD4606B080BD80B512
:104DA00086B000AFF860B9607A60FB687B617B69B0
:104DB0005A1C7A61BA68D2B21A707B68013B7B6078
:104DC0007B68002BF3D1C046C046BD4606B080BD0F
:104DD00080B588B000AFF860B9607A60FB68FB61AD
:104DE000BB68BB6100237B61FB695A1CFA611B78BD
:104DF0001900BB695A1CBA611B78CB1A7B617B68AE
:104E0000013B7B607B68002B02D07B69002BEBD0E1
:104E10007B691800BD4608B080BD80B582B000AF88
:104E20007860396002E07B6801337B607B681B78C7
:104E3000002B05D07B681B781A003B689342F2D1A7
:104E40007B681B781800BD4602B080BD80B584B079
:104E500000AF786039600023BB60BB68FB6027E06F
:104E6000254BFA681201D358002B1CD0224BFA684C
:104E70001201D2587B681B689A4216D11E4AFB6801
:104E80001B01D31804331A687B689B689A420CD1C3
:104E9000194AFB681B01D31808331A687B685B69E1
:104EA0009A4202D107E00123BB60FB680133FB603B
:104EB000FB68012BD4D9FB68022B09D1BB68002BFE
:104EC00002D13B68022B01D1002311E012230FE035
:104ED0003B68002B09D1084AFB681B01D3180C332F
:104EE0001A8880235B009A4201D1102300E000233E
:104EF0001800BD4604B080BD9C02002080B582B081
:104F000000AF00237B6002E07B6801337B607B683D
:104F1000012B05D8074B7A681201D358002BF3D127
:104F20007B68023B5A1E9341DBB21800BD4602B0BB
:104F300080BDC0469C02002080B584B000AF786080
:104F400039600023FB601EE03F4BFA681201D25823
:104F50007B681B689A4213D13B4AFB681B01D3183C
:104F600004331A687B689B689A4209D1364AFB6809
:104F70001B01D31808331A687B685B699A4206D014
:104F8000FB680133FB60FB68012BDDD900E0C04604
:104F9000FB68022B30D10023FB6002E0FB68013389
:104FA000FB60FB68012B05D8274BFA681201D35828
:104FB000002BF3D1FB68022B01D100233FE07B687B
:104FC0001968214BFA681201D1507B689A681E4912
:104FD000FB681B01CB1804331A607B685A691A49B5
:104FE000FB681B01CB1808331A60174AFB681B01CA
:104FF000D3180C3300221A803B68002B09D0124AC8
:10500000FB681B01D3180C331B88002B01D0002335
:1050100015E03B68002B08D10B4AFB681B01D31835
:105020000C331B8801339BB201E080235B000649EF
:10503000FA6812018A180C321380FB6801331800D9
:10504000BD4604B080BDC0469C02002080B584B03F
:1050500000AF78607B68013B7B607B68012B32D8B6
:105060000E203B181D497A6812018A180C321288EA
:105070001A803B181A8880235B009A4202D13B18A1
:1050800000221A800E217B181B88002B04D07B186D
:105090001A887B18013A1A80104A7B681B01D318C2
:1050A0000C330E217A1812881A807B181B88002B6B
:1050B00004D10A4B7A6812010021D1500D23FB184C
:1050C00000221A7003E00D23FB1802221A700D2330
:1050D000FB181B781800BD4604B080BD9C02002060
:1050E00080B584B000AF78600023FB600EE00B4B0E
:1050F000FA681201D3587A689A4204D1074BFA68C9
:1051000012010021D150FB680133FB60FB68012BC9
:10511000EDD9C046C046BD4604B080BD9C0200200B
:1051200090B587B000AF78600F243B1900221A7049
:105130007B68DB78002B34D07B681B6B7B617B68E2
:1051400058787B68343319007A690123FFF734FDFE
:10515000031E03D03B1901221A7022E07B68002253
:10516000DA707B685B6A7A69D21A7B68DB699A427B
:1051700017D27B689B783B6110E07B68DB697A69BA
:10518000D3187B617B6858787B68343319007A695F
:105190000123FFF711FD3B69013B3B613B69012B9B
:1051A000EBD80F23FB181B781800BD4607B090BD45
:1051B000B0B584B000AF786039600F257B1900224C
:1051C0001A707B681B6B3A689A421FD07C197B6807
:1051D0001800FFF7A5FF030023702C003B191B7874
:1051E000002B13D17B6858787B68343319003A68F8
:1051F0000123FFF7B9FC031E05D001235B423B608E
:105200003B1901221A707B683A681A630F23FB1856
:105210001B781800BD4604B0B0BD0000B0B584B026
:1052200000AF78600F257C197B681800FFF778FFC6
:10523000030023707B191B78002B5ED17B681B78E1
:10524000032B4DD17B681B79012B49D17B6834330B
:1052500018007B689B891A000021FFF7A0FD7B687E
:105260003433FF33FF33284A11001800FFF730FDB5
:105270007B683433254A11001800FFF747FD7B682F
:105280003433E533FF33224A11001800FFF73EFDA7
:105290007B683433E933FF331A007B685B6919009C
:1052A0001000FFF733FD7B683433ED33FF331A0012
:1052B0007B681B6919001000FFF728FD7B681B6ADB
:1052C0005A1C7B681A637B6858787B6834331900F2
:1052D0007B681A6B0123FFF76FFC7B6800221A7151
:1052E0007B685B78002200211800FFF78DFC031E0D
:1052F00003D00F23FB1801221A700F23FB181B7811
:105300001800BD4604B0B0BD55AA0000525261411C
:105310007272416180B582B000AF786039603B68DD
:10532000023B3B607B689B69023B3A689A4201D32F
:10533000002307E07B685B891A003B685A437B685F
:10534000DB6AD3181800BD4602B080BD90B587B0A7
:1053500000AF786039607B681B683B613B68012B5C
:1053600004D93B699B693A689A4202D301237B6165
:10537000C2E001235B427B613B691B78032B00D1B8
:1053800088E000DDAEE0012B02D0022B5CD0A9E06A
:105390003B68FB60FB685B08FA68D318FB603B69FD
:1053A0005C6A3B699B891900F868FAF7BFFE030045
:1053B000E2183B6911001800FFF7FAFE031E00D047
:1053C00093E0FB685A1CFA603A6992891100180050
:1053D000FAF732FF0B0019003B6934225B189B1867
:1053E0001B78BB603B695C6A3B699B891900F86864
:1053F000FAF79CFE0300E2183B6911001800FFF762
:10540000D7FE031E00D072E03B699B891A00FB683F
:1054100011001800FAF710FF0B0019003B69342245
:105420005B189B181B781B021A00BB681343BB60F8
:105430003B680122134002D0BB681B0902E0BB6835
:105440001B051B0D7B6157E03B695C6A3B699B89CF
:105450005B089BB219003868FAF768FE0300E2188F
:105460003B6911001800FFF7A3FE031E41D13B6901
:1054700034331C003B685A003B699B8919001000BB
:10548000FAF7DAFE0B00E3181800FFF7E5FB03005C
:105490007B6131E03B695C6A3B699B899B089BB2FD
:1054A00019003868FAF742FE0300E2183B69110060
:1054B0001800FFF77DFE031E1DD13B6934331C002D
:1054C0003B689A003B699B8919001000FAF7B4FE0B
:1054D0000B00E3181800FFF7DAFB03001B011B09A0
:1054E0007B6109E001237B6106E0C04604E0C04621
:1054F00002E0C04600E0C0467B691800BD4607B028
:1055000090BDB0B588B000AFF860B9607A601F2375
:10551000FB1802221A70BB68012B00D81AE1FB6845
:105520009B69BA689A4200D314E1FB681B78032B8D
:1055300000D1C1E000DD0DE1012B03D0022B00D131
:105540008AE007E1BB68BB61BB695B08BA69D31835
:10555000BB61FB685C6AFB689B891900B869FAF754
:10556000E5FD0300E2181F257C19FB6811001800F7
:10557000FFF71EFE030023707B191B78002B00D061
:10558000E1E0FB6834331C00BB695A1CBA61FA685D
:10559000928911001800FAF74FFE0B00E3187B61A7
:1055A000BB68012213400DD07B691B785BB20F22D0
:1055B00013405AB27B68DBB21B015BB213435BB290
:1055C000DBB201E07B68DBB27A691370FB68012211
:1055D000DA70FB685C6AFB689B891900B869FAF7A6
:1055E000A5FD0300E2181F257C19FB6811001800B7
:1055F000FFF7DEFD030023707B191B78002B00D022
:10560000A3E0FB6834331C00FB689B891A00BB696C
:1056100011001800FAF710FE0B00E3187B61BB685D
:105620000122134003D07B681B09DBB20EE07B69CB
:105630001B785BB20F2293435AB27B681B0A5BB2A2
:105640000F210B405BB213435BB2DBB27A6913707C
:10565000FB680122DA707DE0FB685C6AFB689B896D
:105660005B089BB21900B868FAF760FD0300E21806
:105670001F257C19FB6811001800FFF799FD030036
:1056800023707B191B78002B61D1FB6834331C001D
:10569000BB685A00FB689B8919001000FAF7CCFD23
:1056A0000B00E3187A6892B211001800FFF710FBA4
:1056B000FB680122DA704DE0FB685C6AFB689B893D
:1056C0009B089BB21900B868FAF730FD0300E21896
:1056D0001F257C19FB6811001800FFF769FD030006
:1056E00023707B191B78002B33D17B681B011C09AD
:1056F000FB6834331D00BB689A00FB689B89190066
:105700001000FAF799FD0B00EB181800FFF7BFFA2D
:1057100003001B0F1B0723437B60FB6834331C0013
:10572000BB689A00FB689B8919001000FAF784FD9A
:105730000B00E3187A6811001800FFF7E7FAFB681E
:105740000122DA7006E0C04604E0C04602E0C0462E
:1057500000E0C0461F23FB181B781800BD4608B0A8
:10576000B0BDB0B588B000AFF860B9607A601F23F3
:10577000FB1800221A70FB681B68BB61BB68012B19
:1057800004D9BB699B69BA689A4201D3022357E0E6
:105790007B68002B11D01F257C1901235A427968A0
:1057A000BB691800FFF7ADFE030023707B191B785F
:1057B000002B02D07B191B7842E0BA68FB6811000D
:1057C0001800FFF7C3FD03007B617B69002B35D018
:1057D0007B69012B01D1022332E07B69013301D1C6
:1057E00001232DE01F257C19B968BB690022180030
:1057F000FFF787FE030023707B191B78002B02D074
:105800007B191B781CE0BB695A69BB699B69023B29
:105810009A420BD2BB695B695A1CBB695A61BB696E
:105820001B7901221343DAB2BB691A717B69BB6031
:10583000BB699B69BA689A42BFD300E0C0460023A7
:105840001800BD4608B0B0BDB0B588B000AF7860F4
:1058500039607B681B683B613B68002B0DD13B695D
:105860001B69BB61BB69002B04D03B699B69BA69AA
:105870009A421DD30123BB611AE03A687B6811008C
:105880001800FFF763FD0300FB60FB68012B01D8E4
:1058900001237BE0FB68013301D1FB6876E03B69C3
:1058A0009B69FA689A4201D2FB686FE03B68BB6172
:1058B000BB69FB61FB690133FB613B699B69FA6969
:1058C0009A4207D30223FB61FA69BB699A4201D964
:1058D00000235BE0FA697B6811001800FFF736FDD2
:1058E0000300FB60FB68002B0DD0FB68012B02D08E
:1058F000FB68013301D1FB6848E0FA69BB699A4251
:10590000D8D1002342E0C04617257C1901235A4212
:10591000F9693B691800FFF7F4FD030023707B1958
:105920001B78002B0BD13B68002B08D07C19FA693F
:1059300039683B691800FFF7E4FD03002370172363
:10594000FB181B78002B16D13B69FA691A613B6979
:105950005A693B699B69023B9A4204D83B695B697F
:105960005A1E3B695A613B691B7901221343DAB223
:105970003B691A7109E01723FB181B78012B02D130
:1059800001235B4200E00123FB61FB691800BD4677
:1059900008B0B0BD80B586B000AF786039607B6874
:1059A0001B68FB607B68DB6A04333B61FB689B8997
:1059B00019003868FAF7BAFB03001A00FB685B8924
:1059C00019001000FAF7B2FB03007B613B691A1D56
:1059D0003A611B68BB60BB68002B01D1002310E05B
:1059E0007A69BB689A4207D37A69BB68D31A7B612C
:1059F0003B6904333B61E9E7C0463B691A687B6950
:105A0000D3181800BD4606B080BD90B587B000AF72
:105A1000786039607B681B683B613A6880239B0330
:105A20009A4203D23B681F22134001D0022374E044
:105A30007B683A685A617B689B687B617B69002B55
:105A400006D13B691B78022B02D93B699B6A7B61BB
:105A50007B69002B0CD13B685B093A691289934240
:105A600001D3022359E03B699A6A7B68DA612FE02F
:105A70003B695B891A003B699B895343FB601AE0D1
:105A80007B687A6911001800FFF760FC03007B61F6
:105A90007B69013301D101233FE07B69012B04D9EC
:105AA0003B699B697A699A4201D3022335E03A68DF
:105AB000FB68D31A3B603A68FB689A42E0D27A6985
:105AC0003B6911001800FFF725FC02007B68DA61D2
:105AD0007B687A699A617B68DB69002B01D10223BC
